{
	"DexContract.sol": {
		"SimpleDex": {
			"abi": [
				{
					"inputs": [
						{
							"internalType": "address",
							"name": "_tokenA",
							"type": "address"
						},
						{
							"internalType": "address",
							"name": "_tokenB",
							"type": "address"
						},
						{
							"internalType": "address",
							"name": "_weth",
							"type": "address"
						}
					],
					"stateMutability": "nonpayable",
					"type": "constructor"
				},
				{
					"anonymous": false,
					"inputs": [
						{
							"indexed": true,
							"internalType": "address",
							"name": "sender",
							"type": "address"
						},
						{
							"indexed": false,
							"internalType": "uint256",
							"name": "value",
							"type": "uint256"
						},
						{
							"indexed": false,
							"internalType": "bytes",
							"name": "data",
							"type": "bytes"
						}
					],
					"name": "FallbackCalled",
					"type": "event"
				},
				{
					"anonymous": false,
					"inputs": [
						{
							"indexed": true,
							"internalType": "address",
							"name": "provider",
							"type": "address"
						},
						{
							"indexed": false,
							"internalType": "uint256",
							"name": "amountA",
							"type": "uint256"
						},
						{
							"indexed": false,
							"internalType": "uint256",
							"name": "amountB",
							"type": "uint256"
						},
						{
							"indexed": false,
							"internalType": "uint256",
							"name": "liquidityMinted",
							"type": "uint256"
						}
					],
					"name": "LiquidityAdded",
					"type": "event"
				},
				{
					"anonymous": false,
					"inputs": [
						{
							"indexed": true,
							"internalType": "address",
							"name": "provider",
							"type": "address"
						},
						{
							"indexed": false,
							"internalType": "uint256",
							"name": "amountA",
							"type": "uint256"
						},
						{
							"indexed": false,
							"internalType": "uint256",
							"name": "amountB",
							"type": "uint256"
						},
						{
							"indexed": false,
							"internalType": "uint256",
							"name": "liquidityBurned",
							"type": "uint256"
						}
					],
					"name": "LiquidityRemoved",
					"type": "event"
				},
				{
					"anonymous": false,
					"inputs": [
						{
							"indexed": true,
							"internalType": "address",
							"name": "sender",
							"type": "address"
						},
						{
							"indexed": false,
							"internalType": "uint256",
							"name": "value",
							"type": "uint256"
						}
					],
					"name": "Received",
					"type": "event"
				},
				{
					"anonymous": false,
					"inputs": [
						{
							"indexed": true,
							"internalType": "address",
							"name": "swapper",
							"type": "address"
						},
						{
							"indexed": false,
							"internalType": "address",
							"name": "tokenIn",
							"type": "address"
						},
						{
							"indexed": false,
							"internalType": "uint256",
							"name": "amountIn",
							"type": "uint256"
						},
						{
							"indexed": false,
							"internalType": "address",
							"name": "tokenOut",
							"type": "address"
						},
						{
							"indexed": false,
							"internalType": "uint256",
							"name": "amountOut",
							"type": "uint256"
						}
					],
					"name": "Swap",
					"type": "event"
				},
				{
					"stateMutability": "payable",
					"type": "fallback"
				},
				{
					"inputs": [],
					"name": "FEE_DENOMINATOR",
					"outputs": [
						{
							"internalType": "uint256",
							"name": "",
							"type": "uint256"
						}
					],
					"stateMutability": "view",
					"type": "function"
				},
				{
					"inputs": [],
					"name": "FEE_PERCENT",
					"outputs": [
						{
							"internalType": "uint256",
							"name": "",
							"type": "uint256"
						}
					],
					"stateMutability": "view",
					"type": "function"
				},
				{
					"inputs": [],
					"name": "WETH",
					"outputs": [
						{
							"internalType": "contract IWETH",
							"name": "",
							"type": "address"
						}
					],
					"stateMutability": "view",
					"type": "function"
				},
				{
					"inputs": [
						{
							"internalType": "uint256",
							"name": "amountA",
							"type": "uint256"
						},
						{
							"internalType": "uint256",
							"name": "amountB",
							"type": "uint256"
						}
					],
					"name": "addLiquidity",
					"outputs": [
						{
							"internalType": "uint256",
							"name": "liquidityMinted",
							"type": "uint256"
						}
					],
					"stateMutability": "nonpayable",
					"type": "function"
				},
				{
					"inputs": [
						{
							"internalType": "address",
							"name": "",
							"type": "address"
						}
					],
					"name": "liquidity",
					"outputs": [
						{
							"internalType": "uint256",
							"name": "",
							"type": "uint256"
						}
					],
					"stateMutability": "view",
					"type": "function"
				},
				{
					"inputs": [
						{
							"internalType": "uint256",
							"name": "liquidityAmount",
							"type": "uint256"
						}
					],
					"name": "removeLiquidity",
					"outputs": [
						{
							"internalType": "uint256",
							"name": "amountA",
							"type": "uint256"
						},
						{
							"internalType": "uint256",
							"name": "amountB",
							"type": "uint256"
						}
					],
					"stateMutability": "nonpayable",
					"type": "function"
				},
				{
					"inputs": [],
					"name": "reserveA",
					"outputs": [
						{
							"internalType": "uint256",
							"name": "",
							"type": "uint256"
						}
					],
					"stateMutability": "view",
					"type": "function"
				},
				{
					"inputs": [],
					"name": "reserveB",
					"outputs": [
						{
							"internalType": "uint256",
							"name": "",
							"type": "uint256"
						}
					],
					"stateMutability": "view",
					"type": "function"
				},
				{
					"inputs": [
						{
							"internalType": "address",
							"name": "inputToken",
							"type": "address"
						},
						{
							"internalType": "uint256",
							"name": "amountIn",
							"type": "uint256"
						},
						{
							"internalType": "uint256",
							"name": "minOut",
							"type": "uint256"
						}
					],
					"name": "swap",
					"outputs": [
						{
							"internalType": "uint256",
							"name": "amountOut",
							"type": "uint256"
						}
					],
					"stateMutability": "nonpayable",
					"type": "function"
				},
				{
					"inputs": [
						{
							"internalType": "uint256",
							"name": "minTokensOut",
							"type": "uint256"
						}
					],
					"name": "swapExactETHForToken",
					"outputs": [
						{
							"internalType": "uint256",
							"name": "tokensOut",
							"type": "uint256"
						}
					],
					"stateMutability": "payable",
					"type": "function"
				},
				{
					"inputs": [
						{
							"internalType": "address",
							"name": "inputToken",
							"type": "address"
						},
						{
							"internalType": "uint256",
							"name": "amountIn",
							"type": "uint256"
						},
						{
							"internalType": "uint256",
							"name": "minETHOut",
							"type": "uint256"
						}
					],
					"name": "swapExactTokenForETH",
					"outputs": [
						{
							"internalType": "uint256",
							"name": "ethOut",
							"type": "uint256"
						}
					],
					"stateMutability": "nonpayable",
					"type": "function"
				},
				{
					"inputs": [],
					"name": "tokenA",
					"outputs": [
						{
							"internalType": "contract IERC20",
							"name": "",
							"type": "address"
						}
					],
					"stateMutability": "view",
					"type": "function"
				},
				{
					"inputs": [],
					"name": "tokenB",
					"outputs": [
						{
							"internalType": "contract IERC20",
							"name": "",
							"type": "address"
						}
					],
					"stateMutability": "view",
					"type": "function"
				},
				{
					"inputs": [],
					"name": "totalLiquidity",
					"outputs": [
						{
							"internalType": "uint256",
							"name": "",
							"type": "uint256"
						}
					],
					"stateMutability": "view",
					"type": "function"
				},
				{
					"stateMutability": "payable",
					"type": "receive"
				}
			],
			"devdoc": {
				"kind": "dev",
				"methods": {},
				"version": 1
			},
			"evm": {
				"assembly": "    /* \"DexContract.sol\":366:9109  contract SimpleDex {... */\n  mstore(0x40, 0x80)\n    /* \"DexContract.sol\":1549:1714  constructor(address _tokenA, address _tokenB, address _weth) {... */\n  callvalue\n  dup1\n  iszero\n  tag_1\n  jumpi\n  revert(0x00, 0x00)\ntag_1:\n  pop\n  mload(0x40)\n  sub(codesize, bytecodeSize)\n  dup1\n  bytecodeSize\n  dup4\n  codecopy\n  dup2\n  dup2\n  add\n  0x40\n  mstore\n  dup2\n  add\n  swap1\n  tag_2\n  swap2\n  swap1\n  tag_3\n  jump\t// in\ntag_2:\n    /* \"DexContract.sol\":1636:1643  _tokenA */\n  dup3\n    /* \"DexContract.sol\":1620:1626  tokenA */\n  0x00\n  0x00\n    /* \"DexContract.sol\":1620:1644  tokenA = IERC20(_tokenA) */\n  0x0100\n  exp\n  dup2\n  sload\n  dup2\n  0xffffffffffffffffffffffffffffffffffffffff\n  mul\n  not\n  and\n  swap1\n  dup4\n  0xffffffffffffffffffffffffffffffffffffffff\n  and\n  mul\n  or\n  swap1\n  sstore\n  pop\n    /* \"DexContract.sol\":1670:1677  _tokenB */\n  dup2\n    /* \"DexContract.sol\":1654:1660  tokenB */\n  0x01\n  0x00\n    /* \"DexContract.sol\":1654:1678  tokenB = IERC20(_tokenB) */\n  0x0100\n  exp\n  dup2\n  sload\n  dup2\n  0xffffffffffffffffffffffffffffffffffffffff\n  mul\n  not\n  and\n  swap1\n  dup4\n  0xffffffffffffffffffffffffffffffffffffffff\n  and\n  mul\n  or\n  swap1\n  sstore\n  pop\n    /* \"DexContract.sol\":1701:1706  _weth */\n  dup1\n    /* \"DexContract.sol\":1688:1692  WETH */\n  0x02\n  0x00\n    /* \"DexContract.sol\":1688:1707  WETH = IWETH(_weth) */\n  0x0100\n  exp\n  dup2\n  sload\n  dup2\n  0xffffffffffffffffffffffffffffffffffffffff\n  mul\n  not\n  and\n  swap1\n  dup4\n  0xffffffffffffffffffffffffffffffffffffffff\n  and\n  mul\n  or\n  swap1\n  sstore\n  pop\n    /* \"DexContract.sol\":1549:1714  constructor(address _tokenA, address _tokenB, address _weth) {... */\n  pop\n  pop\n  pop\n    /* \"DexContract.sol\":366:9109  contract SimpleDex {... */\n  jump(tag_6)\n    /* \"#utility.yul\":88:205   */\ntag_8:\n    /* \"#utility.yul\":197:198   */\n  0x00\n    /* \"#utility.yul\":194:195   */\n  0x00\n    /* \"#utility.yul\":187:199   */\n  revert\n    /* \"#utility.yul\":334:460   */\ntag_10:\n    /* \"#utility.yul\":371:378   */\n  0x00\n    /* \"#utility.yul\":411:453   */\n  0xffffffffffffffffffffffffffffffffffffffff\n    /* \"#utility.yul\":404:409   */\n  dup3\n    /* \"#utility.yul\":400:454   */\n  and\n    /* \"#utility.yul\":389:454   */\n  swap1\n  pop\n    /* \"#utility.yul\":334:460   */\n  swap2\n  swap1\n  pop\n  jump\t// out\n    /* \"#utility.yul\":466:562   */\ntag_11:\n    /* \"#utility.yul\":503:510   */\n  0x00\n    /* \"#utility.yul\":532:556   */\n  tag_20\n    /* \"#utility.yul\":550:555   */\n  dup3\n    /* \"#utility.yul\":532:556   */\n  tag_10\n  jump\t// in\ntag_20:\n    /* \"#utility.yul\":521:556   */\n  swap1\n  pop\n    /* \"#utility.yul\":466:562   */\n  swap2\n  swap1\n  pop\n  jump\t// out\n    /* \"#utility.yul\":568:690   */\ntag_12:\n    /* \"#utility.yul\":641:665   */\n  tag_22\n    /* \"#utility.yul\":659:664   */\n  dup2\n    /* \"#utility.yul\":641:665   */\n  tag_11\n  jump\t// in\ntag_22:\n    /* \"#utility.yul\":634:639   */\n  dup2\n    /* \"#utility.yul\":631:666   */\n  eq\n    /* \"#utility.yul\":621:684   */\n  tag_23\n  jumpi\n    /* \"#utility.yul\":680:681   */\n  0x00\n    /* \"#utility.yul\":677:678   */\n  0x00\n    /* \"#utility.yul\":670:682   */\n  revert\n    /* \"#utility.yul\":621:684   */\ntag_23:\n    /* \"#utility.yul\":568:690   */\n  pop\n  jump\t// out\n    /* \"#utility.yul\":696:839   */\ntag_13:\n    /* \"#utility.yul\":753:758   */\n  0x00\n    /* \"#utility.yul\":784:790   */\n  dup2\n    /* \"#utility.yul\":778:791   */\n  mload\n    /* \"#utility.yul\":769:791   */\n  swap1\n  pop\n    /* \"#utility.yul\":800:833   */\n  tag_25\n    /* \"#utility.yul\":827:832   */\n  dup2\n    /* \"#utility.yul\":800:833   */\n  tag_12\n  jump\t// in\ntag_25:\n    /* \"#utility.yul\":696:839   */\n  swap3\n  swap2\n  pop\n  pop\n  jump\t// out\n    /* \"#utility.yul\":845:1508   */\ntag_3:\n    /* \"#utility.yul\":933:939   */\n  0x00\n    /* \"#utility.yul\":941:947   */\n  0x00\n    /* \"#utility.yul\":949:955   */\n  0x00\n    /* \"#utility.yul\":998:1000   */\n  0x60\n    /* \"#utility.yul\":986:995   */\n  dup5\n    /* \"#utility.yul\":977:984   */\n  dup7\n    /* \"#utility.yul\":973:996   */\n  sub\n    /* \"#utility.yul\":969:1001   */\n  slt\n    /* \"#utility.yul\":966:1085   */\n  iszero\n  tag_27\n  jumpi\n    /* \"#utility.yul\":1004:1083   */\n  tag_28\n  tag_8\n  jump\t// in\ntag_28:\n    /* \"#utility.yul\":966:1085   */\ntag_27:\n    /* \"#utility.yul\":1124:1125   */\n  0x00\n    /* \"#utility.yul\":1149:1213   */\n  tag_29\n    /* \"#utility.yul\":1205:1212   */\n  dup7\n    /* \"#utility.yul\":1196:1202   */\n  dup3\n    /* \"#utility.yul\":1185:1194   */\n  dup8\n    /* \"#utility.yul\":1181:1203   */\n  add\n    /* \"#utility.yul\":1149:1213   */\n  tag_13\n  jump\t// in\ntag_29:\n    /* \"#utility.yul\":1139:1213   */\n  swap4\n  pop\n    /* \"#utility.yul\":1095:1223   */\n  pop\n    /* \"#utility.yul\":1262:1264   */\n  0x20\n    /* \"#utility.yul\":1288:1352   */\n  tag_30\n    /* \"#utility.yul\":1344:1351   */\n  dup7\n    /* \"#utility.yul\":1335:1341   */\n  dup3\n    /* \"#utility.yul\":1324:1333   */\n  dup8\n    /* \"#utility.yul\":1320:1342   */\n  add\n    /* \"#utility.yul\":1288:1352   */\n  tag_13\n  jump\t// in\ntag_30:\n    /* \"#utility.yul\":1278:1352   */\n  swap3\n  pop\n    /* \"#utility.yul\":1233:1362   */\n  pop\n    /* \"#utility.yul\":1401:1403   */\n  0x40\n    /* \"#utility.yul\":1427:1491   */\n  tag_31\n    /* \"#utility.yul\":1483:1490   */\n  dup7\n    /* \"#utility.yul\":1474:1480   */\n  dup3\n    /* \"#utility.yul\":1463:1472   */\n  dup8\n    /* \"#utility.yul\":1459:1481   */\n  add\n    /* \"#utility.yul\":1427:1491   */\n  tag_13\n  jump\t// in\ntag_31:\n    /* \"#utility.yul\":1417:1491   */\n  swap2\n  pop\n    /* \"#utility.yul\":1372:1501   */\n  pop\n    /* \"#utility.yul\":845:1508   */\n  swap3\n  pop\n  swap3\n  pop\n  swap3\n  jump\t// out\n    /* \"DexContract.sol\":366:9109  contract SimpleDex {... */\ntag_6:\n  dataSize(sub_0)\n  dup1\n  dataOffset(sub_0)\n  0x00\n  codecopy\n  0x00\n  return\nstop\n\nsub_0: assembly {\n        /* \"DexContract.sol\":366:9109  contract SimpleDex {... */\n      mstore(0x40, 0x80)\n      jumpi(tag_1, lt(calldatasize, 0x04))\n      shr(0xe0, calldataload(0x00))\n      dup1\n      0x9f1d0f59\n      gt\n      tag_17\n      jumpi\n      dup1\n      0xb8c876b1\n      gt\n      tag_18\n      jumpi\n      dup1\n      0xb8c876b1\n      eq\n      tag_13\n      jumpi\n      dup1\n      0xd73792a9\n      eq\n      tag_14\n      jumpi\n      dup1\n      0xdc5fa6c5\n      eq\n      tag_15\n      jumpi\n      dup1\n      0xeaf98d23\n      eq\n      tag_16\n      jumpi\n      jump(tag_2)\n    tag_18:\n      dup1\n      0x9f1d0f59\n      eq\n      tag_10\n      jumpi\n      dup1\n      0xad5c4648\n      eq\n      tag_11\n      jumpi\n      dup1\n      0xb0413694\n      eq\n      tag_12\n      jumpi\n      jump(tag_2)\n    tag_17:\n      dup1\n      0x483a9d3f\n      gt\n      tag_19\n      jumpi\n      dup1\n      0x483a9d3f\n      eq\n      tag_6\n      jumpi\n      dup1\n      0x5f64b55b\n      eq\n      tag_7\n      jumpi\n      dup1\n      0x9c8f9f23\n      eq\n      tag_8\n      jumpi\n      dup1\n      0x9cd441da\n      eq\n      tag_9\n      jumpi\n      jump(tag_2)\n    tag_19:\n      dup1\n      0x0fc63d10\n      eq\n      tag_3\n      jumpi\n      dup1\n      0x15770f92\n      eq\n      tag_4\n      jumpi\n      dup1\n      0x19e36f3b\n      eq\n      tag_5\n      jumpi\n      jump(tag_2)\n    tag_1:\n      jumpi(tag_2, calldatasize)\n        /* \"DexContract.sol\":8927:8937  msg.sender */\n      caller\n        /* \"DexContract.sol\":8918:8949  Received(msg.sender, msg.value) */\n      0xffffffffffffffffffffffffffffffffffffffff\n      and\n      0x88a5966d370b9919b20f3e2c13ff65706f196a4e32cc2c12bf57088f88525874\n        /* \"DexContract.sol\":8939:8948  msg.value */\n      callvalue\n        /* \"DexContract.sol\":8918:8949  Received(msg.sender, msg.value) */\n      mload(0x40)\n      tag_22\n      swap2\n      swap1\n      tag_23\n      jump\t// in\n    tag_22:\n      mload(0x40)\n      dup1\n      swap2\n      sub\n      swap1\n      log2\n        /* \"DexContract.sol\":366:9109  contract SimpleDex {... */\n      stop\n    tag_2:\n        /* \"DexContract.sol\":9068:9078  msg.sender */\n      caller\n        /* \"DexContract.sol\":9053:9100  FallbackCalled(msg.sender, msg.value, msg.data) */\n      0xffffffffffffffffffffffffffffffffffffffff\n      and\n      0xaca09dd456ca888dccf8cc966e382e6e3042bb7e4d2d7815015f844edeafce42\n        /* \"DexContract.sol\":9080:9089  msg.value */\n      callvalue\n        /* \"DexContract.sol\":9091:9099  msg.data */\n      0x00\n      calldatasize\n        /* \"DexContract.sol\":9053:9100  FallbackCalled(msg.sender, msg.value, msg.data) */\n      mload(0x40)\n      tag_26\n      swap4\n      swap3\n      swap2\n      swap1\n      tag_27\n      jump\t// in\n    tag_26:\n      mload(0x40)\n      dup1\n      swap2\n      sub\n      swap1\n      log2\n        /* \"DexContract.sol\":366:9109  contract SimpleDex {... */\n      stop\n        /* \"DexContract.sol\":391:411  IERC20 public tokenA */\n    tag_3:\n      callvalue\n      dup1\n      iszero\n      tag_28\n      jumpi\n      revert(0x00, 0x00)\n    tag_28:\n      pop\n      tag_29\n      tag_30\n      jump\t// in\n    tag_29:\n      mload(0x40)\n      tag_31\n      swap2\n      swap1\n      tag_32\n      jump\t// in\n    tag_31:\n      mload(0x40)\n      dup1\n      swap2\n      sub\n      swap1\n      return\n        /* \"DexContract.sol\":707:736  uint256 public totalLiquidity */\n    tag_4:\n      callvalue\n      dup1\n      iszero\n      tag_33\n      jumpi\n      revert(0x00, 0x00)\n    tag_33:\n      pop\n      tag_34\n      tag_35\n      jump\t// in\n    tag_34:\n      mload(0x40)\n      tag_36\n      swap2\n      swap1\n      tag_23\n      jump\t// in\n    tag_36:\n      mload(0x40)\n      dup1\n      swap2\n      sub\n      swap1\n      return\n        /* \"DexContract.sol\":645:668  uint256 public reserveB */\n    tag_5:\n      callvalue\n      dup1\n      iszero\n      tag_37\n      jumpi\n      revert(0x00, 0x00)\n    tag_37:\n      pop\n      tag_38\n      tag_39\n      jump\t// in\n    tag_38:\n      mload(0x40)\n      tag_40\n      swap2\n      swap1\n      tag_23\n      jump\t// in\n    tag_40:\n      mload(0x40)\n      dup1\n      swap2\n      sub\n      swap1\n      return\n        /* \"DexContract.sol\":4296:5573  function swapExactETHForToken(uint256 minTokensOut) external payable returns (uint256 tokensOut) {... */\n    tag_6:\n      tag_41\n      0x04\n      dup1\n      calldatasize\n      sub\n      dup2\n      add\n      swap1\n      tag_42\n      swap2\n      swap1\n      tag_43\n      jump\t// in\n    tag_42:\n      tag_44\n      jump\t// in\n    tag_41:\n      mload(0x40)\n      tag_45\n      swap2\n      swap1\n      tag_23\n      jump\t// in\n    tag_45:\n      mload(0x40)\n      dup1\n      swap2\n      sub\n      swap1\n      return\n        /* \"DexContract.sol\":443:463  IERC20 public tokenB */\n    tag_7:\n      callvalue\n      dup1\n      iszero\n      tag_46\n      jumpi\n      revert(0x00, 0x00)\n    tag_46:\n      pop\n      tag_47\n      tag_48\n      jump\t// in\n    tag_47:\n      mload(0x40)\n      tag_49\n      swap2\n      swap1\n      tag_32\n      jump\t// in\n    tag_49:\n      mload(0x40)\n      dup1\n      swap2\n      sub\n      swap1\n      return\n        /* \"DexContract.sol\":3429:4237  function removeLiquidity(uint256 liquidityAmount) external returns (uint256 amountA, uint256 amountB) {... */\n    tag_8:\n      callvalue\n      dup1\n      iszero\n      tag_50\n      jumpi\n      revert(0x00, 0x00)\n    tag_50:\n      pop\n      tag_51\n      0x04\n      dup1\n      calldatasize\n      sub\n      dup2\n      add\n      swap1\n      tag_52\n      swap2\n      swap1\n      tag_43\n      jump\t// in\n    tag_52:\n      tag_53\n      jump\t// in\n    tag_51:\n      mload(0x40)\n      tag_54\n      swap3\n      swap2\n      swap1\n      tag_55\n      jump\t// in\n    tag_54:\n      mload(0x40)\n      dup1\n      swap2\n      sub\n      swap1\n      return\n        /* \"DexContract.sol\":1981:3343  function addLiquidity(uint256 amountA, uint256 amountB) external returns (uint256 liquidityMinted) {... */\n    tag_9:\n      callvalue\n      dup1\n      iszero\n      tag_56\n      jumpi\n      revert(0x00, 0x00)\n    tag_56:\n      pop\n      tag_57\n      0x04\n      dup1\n      calldatasize\n      sub\n      dup2\n      add\n      swap1\n      tag_58\n      swap2\n      swap1\n      tag_59\n      jump\t// in\n    tag_58:\n      tag_60\n      jump\t// in\n    tag_57:\n      mload(0x40)\n      tag_61\n      swap2\n      swap1\n      tag_23\n      jump\t// in\n    tag_61:\n      mload(0x40)\n      dup1\n      swap2\n      sub\n      swap1\n      return\n        /* \"DexContract.sol\":7147:8239  function swap(address inputToken, uint256 amountIn, uint256 minOut) external returns (uint256 amountOut) {... */\n    tag_10:\n      callvalue\n      dup1\n      iszero\n      tag_62\n      jumpi\n      revert(0x00, 0x00)\n    tag_62:\n      pop\n      tag_63\n      0x04\n      dup1\n      calldatasize\n      sub\n      dup2\n      add\n      swap1\n      tag_64\n      swap2\n      swap1\n      tag_65\n      jump\t// in\n    tag_64:\n      tag_66\n      jump\t// in\n    tag_63:\n      mload(0x40)\n      tag_67\n      swap2\n      swap1\n      tag_23\n      jump\t// in\n    tag_67:\n      mload(0x40)\n      dup1\n      swap2\n      sub\n      swap1\n      return\n        /* \"DexContract.sol\":515:532  IWETH public WETH */\n    tag_11:\n      callvalue\n      dup1\n      iszero\n      tag_68\n      jumpi\n      revert(0x00, 0x00)\n    tag_68:\n      pop\n      tag_69\n      tag_70\n      jump\t// in\n    tag_69:\n      mload(0x40)\n      tag_71\n      swap2\n      swap1\n      tag_72\n      jump\t// in\n    tag_71:\n      mload(0x40)\n      dup1\n      swap2\n      sub\n      swap1\n      return\n        /* \"DexContract.sol\":5606:7099  function swapExactTokenForETH(address inputToken, uint256 amountIn, uint256 minETHOut) external returns (uint256 ethOut) {... */\n    tag_12:\n      callvalue\n      dup1\n      iszero\n      tag_73\n      jumpi\n      revert(0x00, 0x00)\n    tag_73:\n      pop\n      tag_74\n      0x04\n      dup1\n      calldatasize\n      sub\n      dup2\n      add\n      swap1\n      tag_75\n      swap2\n      swap1\n      tag_65\n      jump\t// in\n    tag_75:\n      tag_76\n      jump\t// in\n    tag_74:\n      mload(0x40)\n      tag_77\n      swap2\n      swap1\n      tag_23\n      jump\t// in\n    tag_77:\n      mload(0x40)\n      dup1\n      swap2\n      sub\n      swap1\n      return\n        /* \"DexContract.sol\":799:843  mapping(address => uint256) public liquidity */\n    tag_13:\n      callvalue\n      dup1\n      iszero\n      tag_78\n      jumpi\n      revert(0x00, 0x00)\n    tag_78:\n      pop\n      tag_79\n      0x04\n      dup1\n      calldatasize\n      sub\n      dup2\n      add\n      swap1\n      tag_80\n      swap2\n      swap1\n      tag_81\n      jump\t// in\n    tag_80:\n      tag_82\n      jump\t// in\n    tag_79:\n      mload(0x40)\n      tag_83\n      swap2\n      swap1\n      tag_23\n      jump\t// in\n    tag_83:\n      mload(0x40)\n      dup1\n      swap2\n      sub\n      swap1\n      return\n        /* \"DexContract.sol\":968:1014  uint256 public constant FEE_DENOMINATOR = 1000 */\n    tag_14:\n      callvalue\n      dup1\n      iszero\n      tag_84\n      jumpi\n      revert(0x00, 0x00)\n    tag_84:\n      pop\n      tag_85\n      tag_86\n      jump\t// in\n    tag_85:\n      mload(0x40)\n      tag_87\n      swap2\n      swap1\n      tag_23\n      jump\t// in\n    tag_87:\n      mload(0x40)\n      dup1\n      swap2\n      sub\n      swap1\n      return\n        /* \"DexContract.sol\":584:607  uint256 public reserveA */\n    tag_15:\n      callvalue\n      dup1\n      iszero\n      tag_88\n      jumpi\n      revert(0x00, 0x00)\n    tag_88:\n      pop\n      tag_89\n      tag_90\n      jump\t// in\n    tag_89:\n      mload(0x40)\n      tag_91\n      swap2\n      swap1\n      tag_23\n      jump\t// in\n    tag_91:\n      mload(0x40)\n      dup1\n      swap2\n      sub\n      swap1\n      return\n        /* \"DexContract.sol\":921:960  uint256 public constant FEE_PERCENT = 5 */\n    tag_16:\n      callvalue\n      dup1\n      iszero\n      tag_92\n      jumpi\n      revert(0x00, 0x00)\n    tag_92:\n      pop\n      tag_93\n      tag_94\n      jump\t// in\n    tag_93:\n      mload(0x40)\n      tag_95\n      swap2\n      swap1\n      tag_23\n      jump\t// in\n    tag_95:\n      mload(0x40)\n      dup1\n      swap2\n      sub\n      swap1\n      return\n        /* \"DexContract.sol\":391:411  IERC20 public tokenA */\n    tag_30:\n      0x00\n      0x00\n      swap1\n      sload\n      swap1\n      0x0100\n      exp\n      swap1\n      div\n      0xffffffffffffffffffffffffffffffffffffffff\n      and\n      dup2\n      jump\t// out\n        /* \"DexContract.sol\":707:736  uint256 public totalLiquidity */\n    tag_35:\n      sload(0x05)\n      dup2\n      jump\t// out\n        /* \"DexContract.sol\":645:668  uint256 public reserveB */\n    tag_39:\n      sload(0x04)\n      dup2\n      jump\t// out\n        /* \"DexContract.sol\":4296:5573  function swapExactETHForToken(uint256 minTokensOut) external payable returns (uint256 tokensOut) {... */\n    tag_44:\n        /* \"DexContract.sol\":4374:4391  uint256 tokensOut */\n      0x00\n        /* \"DexContract.sol\":4438:4442  WETH */\n      0x02\n      0x00\n      swap1\n      sload\n      swap1\n      0x0100\n      exp\n      swap1\n      div\n      0xffffffffffffffffffffffffffffffffffffffff\n      and\n        /* \"DexContract.sol\":4411:4443  address(tokenA) == address(WETH) */\n      0xffffffffffffffffffffffffffffffffffffffff\n      and\n        /* \"DexContract.sol\":4419:4425  tokenA */\n      0x00\n      0x00\n      swap1\n      sload\n      swap1\n      0x0100\n      exp\n      swap1\n      div\n      0xffffffffffffffffffffffffffffffffffffffff\n      and\n        /* \"DexContract.sol\":4411:4443  address(tokenA) == address(WETH) */\n      0xffffffffffffffffffffffffffffffffffffffff\n      and\n      eq\n        /* \"DexContract.sol\":4411:4479  address(tokenA) == address(WETH) || address(tokenB) == address(WETH) */\n      dup1\n      tag_97\n      jumpi\n      pop\n        /* \"DexContract.sol\":4474:4478  WETH */\n      0x02\n      0x00\n      swap1\n      sload\n      swap1\n      0x0100\n      exp\n      swap1\n      div\n      0xffffffffffffffffffffffffffffffffffffffff\n      and\n        /* \"DexContract.sol\":4447:4479  address(tokenB) == address(WETH) */\n      0xffffffffffffffffffffffffffffffffffffffff\n      and\n        /* \"DexContract.sol\":4455:4461  tokenB */\n      0x01\n      0x00\n      swap1\n      sload\n      swap1\n      0x0100\n      exp\n      swap1\n      div\n      0xffffffffffffffffffffffffffffffffffffffff\n      and\n        /* \"DexContract.sol\":4447:4479  address(tokenB) == address(WETH) */\n      0xffffffffffffffffffffffffffffffffffffffff\n      and\n      eq\n        /* \"DexContract.sol\":4411:4479  address(tokenA) == address(WETH) || address(tokenB) == address(WETH) */\n    tag_97:\n        /* \"DexContract.sol\":4403:4500  require(address(tokenA) == address(WETH) || address(tokenB) == address(WETH), \"WETH not in pair\") */\n      tag_98\n      jumpi\n      mload(0x40)\n      0x08c379a000000000000000000000000000000000000000000000000000000000\n      dup2\n      mstore\n      0x04\n      add\n      tag_99\n      swap1\n      tag_100\n      jump\t// in\n    tag_99:\n      mload(0x40)\n      dup1\n      swap2\n      sub\n      swap1\n      revert\n    tag_98:\n        /* \"DexContract.sol\":4530:4531  0 */\n      0x00\n        /* \"DexContract.sol\":4518:4527  msg.value */\n      callvalue\n        /* \"DexContract.sol\":4518:4531  msg.value > 0 */\n      gt\n        /* \"DexContract.sol\":4510:4549  require(msg.value > 0, \"Must send ETH\") */\n      tag_101\n      jumpi\n      mload(0x40)\n      0x08c379a000000000000000000000000000000000000000000000000000000000\n      dup2\n      mstore\n      0x04\n      add\n      tag_102\n      swap1\n      tag_103\n      jump\t// in\n    tag_102:\n      mload(0x40)\n      dup1\n      swap2\n      sub\n      swap1\n      revert\n    tag_101:\n        /* \"DexContract.sol\":4592:4596  WETH */\n      0x02\n      0x00\n      swap1\n      sload\n      swap1\n      0x0100\n      exp\n      swap1\n      div\n      0xffffffffffffffffffffffffffffffffffffffff\n      and\n        /* \"DexContract.sol\":4592:4604  WETH.deposit */\n      0xffffffffffffffffffffffffffffffffffffffff\n      and\n      0xd0e30db0\n        /* \"DexContract.sol\":4612:4621  msg.value */\n      callvalue\n        /* \"DexContract.sol\":4592:4624  WETH.deposit{value: msg.value}() */\n      mload(0x40)\n      dup3\n      0xffffffff\n      and\n      0xe0\n      shl\n      dup2\n      mstore\n      0x04\n      add\n      0x00\n      mload(0x40)\n      dup1\n      dup4\n      sub\n      dup2\n      dup6\n      dup9\n      dup1\n      extcodesize\n      iszero\n      dup1\n      iszero\n      tag_104\n      jumpi\n      revert(0x00, 0x00)\n    tag_104:\n      pop\n      gas\n      call\n      iszero\n      dup1\n      iszero\n      tag_106\n      jumpi\n      returndatacopy(0x00, 0x00, returndatasize)\n      revert(0x00, returndatasize)\n    tag_106:\n      pop\n      pop\n      pop\n      pop\n      pop\n        /* \"DexContract.sol\":4635:4652  bool wethIsTokenA */\n      0x00\n        /* \"DexContract.sol\":4682:4686  WETH */\n      0x02\n      0x00\n      swap1\n      sload\n      swap1\n      0x0100\n      exp\n      swap1\n      div\n      0xffffffffffffffffffffffffffffffffffffffff\n      and\n        /* \"DexContract.sol\":4655:4687  address(tokenA) == address(WETH) */\n      0xffffffffffffffffffffffffffffffffffffffff\n      and\n        /* \"DexContract.sol\":4663:4669  tokenA */\n      0x00\n      0x00\n      swap1\n      sload\n      swap1\n      0x0100\n      exp\n      swap1\n      div\n      0xffffffffffffffffffffffffffffffffffffffff\n      and\n        /* \"DexContract.sol\":4655:4687  address(tokenA) == address(WETH) */\n      0xffffffffffffffffffffffffffffffffffffffff\n      and\n      eq\n        /* \"DexContract.sol\":4635:4687  bool wethIsTokenA = address(tokenA) == address(WETH) */\n      swap1\n      pop\n        /* \"DexContract.sol\":4698:4715  uint256 reserveIn */\n      0x00\n        /* \"DexContract.sol\":4718:4730  wethIsTokenA */\n      dup2\n        /* \"DexContract.sol\":4718:4752  wethIsTokenA ? reserveA : reserveB */\n      tag_107\n      jumpi\n        /* \"DexContract.sol\":4744:4752  reserveB */\n      sload(0x04)\n        /* \"DexContract.sol\":4718:4752  wethIsTokenA ? reserveA : reserveB */\n      jump(tag_108)\n    tag_107:\n        /* \"DexContract.sol\":4733:4741  reserveA */\n      sload(0x03)\n        /* \"DexContract.sol\":4718:4752  wethIsTokenA ? reserveA : reserveB */\n    tag_108:\n        /* \"DexContract.sol\":4698:4752  uint256 reserveIn = wethIsTokenA ? reserveA : reserveB */\n      swap1\n      pop\n        /* \"DexContract.sol\":4762:4780  uint256 reserveOut */\n      0x00\n        /* \"DexContract.sol\":4783:4795  wethIsTokenA */\n      dup3\n        /* \"DexContract.sol\":4783:4817  wethIsTokenA ? reserveB : reserveA */\n      tag_109\n      jumpi\n        /* \"DexContract.sol\":4809:4817  reserveA */\n      sload(0x03)\n        /* \"DexContract.sol\":4783:4817  wethIsTokenA ? reserveB : reserveA */\n      jump(tag_110)\n    tag_109:\n        /* \"DexContract.sol\":4798:4806  reserveB */\n      sload(0x04)\n        /* \"DexContract.sol\":4783:4817  wethIsTokenA ? reserveB : reserveA */\n    tag_110:\n        /* \"DexContract.sol\":4762:4817  uint256 reserveOut = wethIsTokenA ? reserveB : reserveA */\n      swap1\n      pop\n        /* \"DexContract.sol\":4864:4887  uint256 amountInWithFee */\n      0x00\n        /* \"DexContract.sol\":1010:1014  1000 */\n      0x03e8\n        /* \"DexContract.sol\":959:960  5 */\n      0x05\n        /* \"DexContract.sol\":1010:1014  1000 */\n      0x03e8\n        /* \"DexContract.sol\":4903:4932  FEE_DENOMINATOR - FEE_PERCENT */\n      tag_111\n      swap2\n      swap1\n      tag_112\n      jump\t// in\n    tag_111:\n        /* \"DexContract.sol\":4890:4899  msg.value */\n      callvalue\n        /* \"DexContract.sol\":4890:4933  msg.value * (FEE_DENOMINATOR - FEE_PERCENT) */\n      tag_113\n      swap2\n      swap1\n      tag_114\n      jump\t// in\n    tag_113:\n        /* \"DexContract.sol\":4890:4951  msg.value * (FEE_DENOMINATOR - FEE_PERCENT) / FEE_DENOMINATOR */\n      tag_115\n      swap2\n      swap1\n      tag_116\n      jump\t// in\n    tag_115:\n        /* \"DexContract.sol\":4864:4951  uint256 amountInWithFee = msg.value * (FEE_DENOMINATOR - FEE_PERCENT) / FEE_DENOMINATOR */\n      swap1\n      pop\n        /* \"DexContract.sol\":5059:5074  amountInWithFee */\n      dup1\n        /* \"DexContract.sol\":5047:5056  reserveIn */\n      dup4\n        /* \"DexContract.sol\":5047:5074  reserveIn + amountInWithFee */\n      tag_117\n      swap2\n      swap1\n      tag_118\n      jump\t// in\n    tag_117:\n        /* \"DexContract.sol\":5032:5042  reserveOut */\n      dup3\n        /* \"DexContract.sol\":5014:5029  amountInWithFee */\n      dup3\n        /* \"DexContract.sol\":5014:5042  amountInWithFee * reserveOut */\n      tag_119\n      swap2\n      swap1\n      tag_114\n      jump\t// in\n    tag_119:\n        /* \"DexContract.sol\":5013:5075  (amountInWithFee * reserveOut) / (reserveIn + amountInWithFee) */\n      tag_120\n      swap2\n      swap1\n      tag_116\n      jump\t// in\n    tag_120:\n        /* \"DexContract.sol\":5001:5075  tokensOut = (amountInWithFee * reserveOut) / (reserveIn + amountInWithFee) */\n      swap5\n      pop\n        /* \"DexContract.sol\":5106:5118  minTokensOut */\n      dup6\n        /* \"DexContract.sol\":5093:5102  tokensOut */\n      dup6\n        /* \"DexContract.sol\":5093:5118  tokensOut >= minTokensOut */\n      lt\n      iszero\n        /* \"DexContract.sol\":5085:5142  require(tokensOut >= minTokensOut, \"Insufficient output\") */\n      tag_121\n      jumpi\n      mload(0x40)\n      0x08c379a000000000000000000000000000000000000000000000000000000000\n      dup2\n      mstore\n      0x04\n      add\n      tag_122\n      swap1\n      tag_123\n      jump\t// in\n    tag_122:\n      mload(0x40)\n      dup1\n      swap2\n      sub\n      swap1\n      revert\n    tag_121:\n        /* \"DexContract.sol\":5204:5216  wethIsTokenA */\n      dup4\n        /* \"DexContract.sol\":5200:5420  if (wethIsTokenA) {... */\n      iszero\n      tag_124\n      jumpi\n        /* \"DexContract.sol\":5240:5246  tokenB */\n      0x01\n      0x00\n      swap1\n      sload\n      swap1\n      0x0100\n      exp\n      swap1\n      div\n      0xffffffffffffffffffffffffffffffffffffffff\n      and\n        /* \"DexContract.sol\":5240:5255  tokenB.transfer */\n      0xffffffffffffffffffffffffffffffffffffffff\n      and\n      0xa9059cbb\n        /* \"DexContract.sol\":5256:5266  msg.sender */\n      caller\n        /* \"DexContract.sol\":5268:5277  tokensOut */\n      dup8\n        /* \"DexContract.sol\":5240:5278  tokenB.transfer(msg.sender, tokensOut) */\n      mload(0x40)\n      dup4\n      0xffffffff\n      and\n      0xe0\n      shl\n      dup2\n      mstore\n      0x04\n      add\n      tag_125\n      swap3\n      swap2\n      swap1\n      tag_126\n      jump\t// in\n    tag_125:\n      0x20\n      mload(0x40)\n      dup1\n      dup4\n      sub\n      dup2\n      0x00\n      dup8\n      gas\n      call\n      iszero\n      dup1\n      iszero\n      tag_128\n      jumpi\n      returndatacopy(0x00, 0x00, returndatasize)\n      revert(0x00, returndatasize)\n    tag_128:\n      pop\n      pop\n      pop\n      pop\n      mload(0x40)\n      returndatasize\n      not(0x1f)\n      0x1f\n      dup3\n      add\n      and\n      dup3\n      add\n      dup1\n      0x40\n      mstore\n      pop\n      dup2\n      add\n      swap1\n      tag_129\n      swap2\n      swap1\n      tag_130\n      jump\t// in\n    tag_129:\n        /* \"DexContract.sol\":5232:5305  require(tokenB.transfer(msg.sender, tokensOut), \"Transfer tokenB failed\") */\n      tag_131\n      jumpi\n      mload(0x40)\n      0x08c379a000000000000000000000000000000000000000000000000000000000\n      dup2\n      mstore\n      0x04\n      add\n      tag_132\n      swap1\n      tag_133\n      jump\t// in\n    tag_132:\n      mload(0x40)\n      dup1\n      swap2\n      sub\n      swap1\n      revert\n    tag_131:\n        /* \"DexContract.sol\":5200:5420  if (wethIsTokenA) {... */\n      jump(tag_134)\n    tag_124:\n        /* \"DexContract.sol\":5344:5350  tokenA */\n      0x00\n      0x00\n      swap1\n      sload\n      swap1\n      0x0100\n      exp\n      swap1\n      div\n      0xffffffffffffffffffffffffffffffffffffffff\n      and\n        /* \"DexContract.sol\":5344:5359  tokenA.transfer */\n      0xffffffffffffffffffffffffffffffffffffffff\n      and\n      0xa9059cbb\n        /* \"DexContract.sol\":5360:5370  msg.sender */\n      caller\n        /* \"DexContract.sol\":5372:5381  tokensOut */\n      dup8\n        /* \"DexContract.sol\":5344:5382  tokenA.transfer(msg.sender, tokensOut) */\n      mload(0x40)\n      dup4\n      0xffffffff\n      and\n      0xe0\n      shl\n      dup2\n      mstore\n      0x04\n      add\n      tag_135\n      swap3\n      swap2\n      swap1\n      tag_126\n      jump\t// in\n    tag_135:\n      0x20\n      mload(0x40)\n      dup1\n      dup4\n      sub\n      dup2\n      0x00\n      dup8\n      gas\n      call\n      iszero\n      dup1\n      iszero\n      tag_137\n      jumpi\n      returndatacopy(0x00, 0x00, returndatasize)\n      revert(0x00, returndatasize)\n    tag_137:\n      pop\n      pop\n      pop\n      pop\n      mload(0x40)\n      returndatasize\n      not(0x1f)\n      0x1f\n      dup3\n      add\n      and\n      dup3\n      add\n      dup1\n      0x40\n      mstore\n      pop\n      dup2\n      add\n      swap1\n      tag_138\n      swap2\n      swap1\n      tag_130\n      jump\t// in\n    tag_138:\n        /* \"DexContract.sol\":5336:5409  require(tokenA.transfer(msg.sender, tokensOut), \"Transfer tokenA failed\") */\n      tag_139\n      jumpi\n      mload(0x40)\n      0x08c379a000000000000000000000000000000000000000000000000000000000\n      dup2\n      mstore\n      0x04\n      add\n      tag_140\n      swap1\n      tag_141\n      jump\t// in\n    tag_140:\n      mload(0x40)\n      dup1\n      swap2\n      sub\n      swap1\n      revert\n    tag_139:\n        /* \"DexContract.sol\":5200:5420  if (wethIsTokenA) {... */\n    tag_134:\n        /* \"DexContract.sol\":5430:5447  _updateReserves() */\n      tag_142\n        /* \"DexContract.sol\":5430:5445  _updateReserves */\n      tag_143\n        /* \"DexContract.sol\":5430:5447  _updateReserves() */\n      jump\t// in\n    tag_142:\n        /* \"DexContract.sol\":5468:5478  msg.sender */\n      caller\n        /* \"DexContract.sol\":5463:5566  Swap(msg.sender, address(WETH), msg.value, wethIsTokenA ? address(tokenB) : address(tokenA), tokensOut) */\n      0xffffffffffffffffffffffffffffffffffffffff\n      and\n      0x5380cf97d8f645d3c4896da60c053458dca03a3a31cec642ac80e1ddf0d8d02a\n        /* \"DexContract.sol\":5488:5492  WETH */\n      0x02\n      0x00\n      swap1\n      sload\n      swap1\n      0x0100\n      exp\n      swap1\n      div\n      0xffffffffffffffffffffffffffffffffffffffff\n      and\n        /* \"DexContract.sol\":5495:5504  msg.value */\n      callvalue\n        /* \"DexContract.sol\":5506:5518  wethIsTokenA */\n      dup8\n        /* \"DexContract.sol\":5506:5554  wethIsTokenA ? address(tokenB) : address(tokenA) */\n      tag_144\n      jumpi\n        /* \"DexContract.sol\":5547:5553  tokenA */\n      0x00\n      0x00\n      swap1\n      sload\n      swap1\n      0x0100\n      exp\n      swap1\n      div\n      0xffffffffffffffffffffffffffffffffffffffff\n      and\n        /* \"DexContract.sol\":5506:5554  wethIsTokenA ? address(tokenB) : address(tokenA) */\n      jump(tag_145)\n    tag_144:\n        /* \"DexContract.sol\":5529:5535  tokenB */\n      0x01\n      0x00\n      swap1\n      sload\n      swap1\n      0x0100\n      exp\n      swap1\n      div\n      0xffffffffffffffffffffffffffffffffffffffff\n      and\n        /* \"DexContract.sol\":5506:5554  wethIsTokenA ? address(tokenB) : address(tokenA) */\n    tag_145:\n        /* \"DexContract.sol\":5556:5565  tokensOut */\n      dup10\n        /* \"DexContract.sol\":5463:5566  Swap(msg.sender, address(WETH), msg.value, wethIsTokenA ? address(tokenB) : address(tokenA), tokensOut) */\n      mload(0x40)\n      tag_146\n      swap5\n      swap4\n      swap3\n      swap2\n      swap1\n      tag_147\n      jump\t// in\n    tag_146:\n      mload(0x40)\n      dup1\n      swap2\n      sub\n      swap1\n      log2\n        /* \"DexContract.sol\":4393:5573  {... */\n      pop\n      pop\n      pop\n      pop\n        /* \"DexContract.sol\":4296:5573  function swapExactETHForToken(uint256 minTokensOut) external payable returns (uint256 tokensOut) {... */\n      swap2\n      swap1\n      pop\n      jump\t// out\n        /* \"DexContract.sol\":443:463  IERC20 public tokenB */\n    tag_48:\n      0x01\n      0x00\n      swap1\n      sload\n      swap1\n      0x0100\n      exp\n      swap1\n      div\n      0xffffffffffffffffffffffffffffffffffffffff\n      and\n      dup2\n      jump\t// out\n        /* \"DexContract.sol\":3429:4237  function removeLiquidity(uint256 liquidityAmount) external returns (uint256 amountA, uint256 amountB) {... */\n    tag_53:\n        /* \"DexContract.sol\":3497:3512  uint256 amountA */\n      0x00\n        /* \"DexContract.sol\":3514:3529  uint256 amountB */\n      0x00\n        /* \"DexContract.sol\":3567:3568  0 */\n      0x00\n        /* \"DexContract.sol\":3549:3564  liquidityAmount */\n      dup4\n        /* \"DexContract.sol\":3549:3568  liquidityAmount > 0 */\n      gt\n        /* \"DexContract.sol\":3541:3594  require(liquidityAmount > 0, \"Liquidity must be > 0\") */\n      tag_149\n      jumpi\n      mload(0x40)\n      0x08c379a000000000000000000000000000000000000000000000000000000000\n      dup2\n      mstore\n      0x04\n      add\n      tag_150\n      swap1\n      tag_151\n      jump\t// in\n    tag_150:\n      mload(0x40)\n      dup1\n      swap2\n      sub\n      swap1\n      revert\n    tag_149:\n        /* \"DexContract.sol\":3637:3652  liquidityAmount */\n      dup3\n        /* \"DexContract.sol\":3612:3621  liquidity */\n      0x06\n        /* \"DexContract.sol\":3612:3633  liquidity[msg.sender] */\n      0x00\n        /* \"DexContract.sol\":3622:3632  msg.sender */\n      caller\n        /* \"DexContract.sol\":3612:3633  liquidity[msg.sender] */\n      0xffffffffffffffffffffffffffffffffffffffff\n      and\n      0xffffffffffffffffffffffffffffffffffffffff\n      and\n      dup2\n      mstore\n      0x20\n      add\n      swap1\n      dup2\n      mstore\n      0x20\n      add\n      0x00\n      keccak256\n      sload\n        /* \"DexContract.sol\":3612:3652  liquidity[msg.sender] >= liquidityAmount */\n      lt\n      iszero\n        /* \"DexContract.sol\":3604:3677  require(liquidity[msg.sender] >= liquidityAmount, \"Not enough liquidity\") */\n      tag_152\n      jumpi\n      mload(0x40)\n      0x08c379a000000000000000000000000000000000000000000000000000000000\n      dup2\n      mstore\n      0x04\n      add\n      tag_153\n      swap1\n      tag_154\n      jump\t// in\n    tag_153:\n      mload(0x40)\n      dup1\n      swap2\n      sub\n      swap1\n      revert\n    tag_152:\n        /* \"DexContract.sol\":3797:3811  totalLiquidity */\n      sload(0x05)\n        /* \"DexContract.sol\":3785:3793  reserveA */\n      sload(0x03)\n        /* \"DexContract.sol\":3767:3782  liquidityAmount */\n      dup5\n        /* \"DexContract.sol\":3767:3793  liquidityAmount * reserveA */\n      tag_155\n      swap2\n      swap1\n      tag_114\n      jump\t// in\n    tag_155:\n        /* \"DexContract.sol\":3766:3811  (liquidityAmount * reserveA) / totalLiquidity */\n      tag_156\n      swap2\n      swap1\n      tag_116\n      jump\t// in\n    tag_156:\n        /* \"DexContract.sol\":3756:3811  amountA = (liquidityAmount * reserveA) / totalLiquidity */\n      swap2\n      pop\n        /* \"DexContract.sol\":3862:3876  totalLiquidity */\n      sload(0x05)\n        /* \"DexContract.sol\":3850:3858  reserveB */\n      sload(0x04)\n        /* \"DexContract.sol\":3832:3847  liquidityAmount */\n      dup5\n        /* \"DexContract.sol\":3832:3858  liquidityAmount * reserveB */\n      tag_157\n      swap2\n      swap1\n      tag_114\n      jump\t// in\n    tag_157:\n        /* \"DexContract.sol\":3831:3876  (liquidityAmount * reserveB) / totalLiquidity */\n      tag_158\n      swap2\n      swap1\n      tag_116\n      jump\t// in\n    tag_158:\n        /* \"DexContract.sol\":3821:3876  amountB = (liquidityAmount * reserveB) / totalLiquidity */\n      swap1\n      pop\n        /* \"DexContract.sol\":3912:3927  liquidityAmount */\n      dup3\n        /* \"DexContract.sol\":3887:3896  liquidity */\n      0x06\n        /* \"DexContract.sol\":3887:3908  liquidity[msg.sender] */\n      0x00\n        /* \"DexContract.sol\":3897:3907  msg.sender */\n      caller\n        /* \"DexContract.sol\":3887:3908  liquidity[msg.sender] */\n      0xffffffffffffffffffffffffffffffffffffffff\n      and\n      0xffffffffffffffffffffffffffffffffffffffff\n      and\n      dup2\n      mstore\n      0x20\n      add\n      swap1\n      dup2\n      mstore\n      0x20\n      add\n      0x00\n      keccak256\n      0x00\n        /* \"DexContract.sol\":3887:3927  liquidity[msg.sender] -= liquidityAmount */\n      dup3\n      dup3\n      sload\n      tag_159\n      swap2\n      swap1\n      tag_112\n      jump\t// in\n    tag_159:\n      swap3\n      pop\n      pop\n      dup2\n      swap1\n      sstore\n      pop\n        /* \"DexContract.sol\":3955:3970  liquidityAmount */\n      dup3\n        /* \"DexContract.sol\":3937:3951  totalLiquidity */\n      0x05\n      0x00\n        /* \"DexContract.sol\":3937:3970  totalLiquidity -= liquidityAmount */\n      dup3\n      dup3\n      sload\n      tag_160\n      swap2\n      swap1\n      tag_112\n      jump\t// in\n    tag_160:\n      swap3\n      pop\n      pop\n      dup2\n      swap1\n      sstore\n      pop\n        /* \"DexContract.sol\":3989:3995  tokenA */\n      0x00\n      0x00\n      swap1\n      sload\n      swap1\n      0x0100\n      exp\n      swap1\n      div\n      0xffffffffffffffffffffffffffffffffffffffff\n      and\n        /* \"DexContract.sol\":3989:4004  tokenA.transfer */\n      0xffffffffffffffffffffffffffffffffffffffff\n      and\n      0xa9059cbb\n        /* \"DexContract.sol\":4005:4015  msg.sender */\n      caller\n        /* \"DexContract.sol\":4017:4024  amountA */\n      dup5\n        /* \"DexContract.sol\":3989:4025  tokenA.transfer(msg.sender, amountA) */\n      mload(0x40)\n      dup4\n      0xffffffff\n      and\n      0xe0\n      shl\n      dup2\n      mstore\n      0x04\n      add\n      tag_161\n      swap3\n      swap2\n      swap1\n      tag_126\n      jump\t// in\n    tag_161:\n      0x20\n      mload(0x40)\n      dup1\n      dup4\n      sub\n      dup2\n      0x00\n      dup8\n      gas\n      call\n      iszero\n      dup1\n      iszero\n      tag_163\n      jumpi\n      returndatacopy(0x00, 0x00, returndatasize)\n      revert(0x00, returndatasize)\n    tag_163:\n      pop\n      pop\n      pop\n      pop\n      mload(0x40)\n      returndatasize\n      not(0x1f)\n      0x1f\n      dup3\n      add\n      and\n      dup3\n      add\n      dup1\n      0x40\n      mstore\n      pop\n      dup2\n      add\n      swap1\n      tag_164\n      swap2\n      swap1\n      tag_130\n      jump\t// in\n    tag_164:\n        /* \"DexContract.sol\":3981:4047  require(tokenA.transfer(msg.sender, amountA), \"Transfer A failed\") */\n      tag_165\n      jumpi\n      mload(0x40)\n      0x08c379a000000000000000000000000000000000000000000000000000000000\n      dup2\n      mstore\n      0x04\n      add\n      tag_166\n      swap1\n      tag_167\n      jump\t// in\n    tag_166:\n      mload(0x40)\n      dup1\n      swap2\n      sub\n      swap1\n      revert\n    tag_165:\n        /* \"DexContract.sol\":4065:4071  tokenB */\n      0x01\n      0x00\n      swap1\n      sload\n      swap1\n      0x0100\n      exp\n      swap1\n      div\n      0xffffffffffffffffffffffffffffffffffffffff\n      and\n        /* \"DexContract.sol\":4065:4080  tokenB.transfer */\n      0xffffffffffffffffffffffffffffffffffffffff\n      and\n      0xa9059cbb\n        /* \"DexContract.sol\":4081:4091  msg.sender */\n      caller\n        /* \"DexContract.sol\":4093:4100  amountB */\n      dup4\n        /* \"DexContract.sol\":4065:4101  tokenB.transfer(msg.sender, amountB) */\n      mload(0x40)\n      dup4\n      0xffffffff\n      and\n      0xe0\n      shl\n      dup2\n      mstore\n      0x04\n      add\n      tag_168\n      swap3\n      swap2\n      swap1\n      tag_126\n      jump\t// in\n    tag_168:\n      0x20\n      mload(0x40)\n      dup1\n      dup4\n      sub\n      dup2\n      0x00\n      dup8\n      gas\n      call\n      iszero\n      dup1\n      iszero\n      tag_170\n      jumpi\n      returndatacopy(0x00, 0x00, returndatasize)\n      revert(0x00, returndatasize)\n    tag_170:\n      pop\n      pop\n      pop\n      pop\n      mload(0x40)\n      returndatasize\n      not(0x1f)\n      0x1f\n      dup3\n      add\n      and\n      dup3\n      add\n      dup1\n      0x40\n      mstore\n      pop\n      dup2\n      add\n      swap1\n      tag_171\n      swap2\n      swap1\n      tag_130\n      jump\t// in\n    tag_171:\n        /* \"DexContract.sol\":4057:4123  require(tokenB.transfer(msg.sender, amountB), \"Transfer B failed\") */\n      tag_172\n      jumpi\n      mload(0x40)\n      0x08c379a000000000000000000000000000000000000000000000000000000000\n      dup2\n      mstore\n      0x04\n      add\n      tag_173\n      swap1\n      tag_174\n      jump\t// in\n    tag_173:\n      mload(0x40)\n      dup1\n      swap2\n      sub\n      swap1\n      revert\n    tag_172:\n        /* \"DexContract.sol\":4134:4151  _updateReserves() */\n      tag_175\n        /* \"DexContract.sol\":4134:4149  _updateReserves */\n      tag_143\n        /* \"DexContract.sol\":4134:4151  _updateReserves() */\n      jump\t// in\n    tag_175:\n        /* \"DexContract.sol\":4184:4194  msg.sender */\n      caller\n        /* \"DexContract.sol\":4167:4230  LiquidityRemoved(msg.sender, amountA, amountB, liquidityAmount) */\n      0xffffffffffffffffffffffffffffffffffffffff\n      and\n      0x1dc8bb69df2b8e91fbdcbfcf93d951b3f0000f085a95fe3f7946d6161439245d\n        /* \"DexContract.sol\":4196:4203  amountA */\n      dup4\n        /* \"DexContract.sol\":4205:4212  amountB */\n      dup4\n        /* \"DexContract.sol\":4214:4229  liquidityAmount */\n      dup7\n        /* \"DexContract.sol\":4167:4230  LiquidityRemoved(msg.sender, amountA, amountB, liquidityAmount) */\n      mload(0x40)\n      tag_176\n      swap4\n      swap3\n      swap2\n      swap1\n      tag_177\n      jump\t// in\n    tag_176:\n      mload(0x40)\n      dup1\n      swap2\n      sub\n      swap1\n      log2\n        /* \"DexContract.sol\":3429:4237  function removeLiquidity(uint256 liquidityAmount) external returns (uint256 amountA, uint256 amountB) {... */\n      swap2\n      pop\n      swap2\n      jump\t// out\n        /* \"DexContract.sol\":1981:3343  function addLiquidity(uint256 amountA, uint256 amountB) external returns (uint256 liquidityMinted) {... */\n    tag_60:\n        /* \"DexContract.sol\":2055:2078  uint256 liquidityMinted */\n      0x00\n        /* \"DexContract.sol\":2108:2109  0 */\n      0x00\n        /* \"DexContract.sol\":2098:2105  amountA */\n      dup4\n        /* \"DexContract.sol\":2098:2109  amountA > 0 */\n      gt\n        /* \"DexContract.sol\":2098:2124  amountA > 0 && amountB > 0 */\n      dup1\n      iszero\n      tag_179\n      jumpi\n      pop\n        /* \"DexContract.sol\":2123:2124  0 */\n      0x00\n        /* \"DexContract.sol\":2113:2120  amountB */\n      dup3\n        /* \"DexContract.sol\":2113:2124  amountB > 0 */\n      gt\n        /* \"DexContract.sol\":2098:2124  amountA > 0 && amountB > 0 */\n    tag_179:\n        /* \"DexContract.sol\":2090:2148  require(amountA > 0 && amountB > 0, \"Amounts must be > 0\") */\n      tag_180\n      jumpi\n      mload(0x40)\n      0x08c379a000000000000000000000000000000000000000000000000000000000\n      dup2\n      mstore\n      0x04\n      add\n      tag_181\n      swap1\n      tag_182\n      jump\t// in\n    tag_181:\n      mload(0x40)\n      dup1\n      swap2\n      sub\n      swap1\n      revert\n    tag_180:\n        /* \"DexContract.sol\":2233:2239  tokenA */\n      0x00\n      0x00\n      swap1\n      sload\n      swap1\n      0x0100\n      exp\n      swap1\n      div\n      0xffffffffffffffffffffffffffffffffffffffff\n      and\n        /* \"DexContract.sol\":2233:2252  tokenA.transferFrom */\n      0xffffffffffffffffffffffffffffffffffffffff\n      and\n      0x23b872dd\n        /* \"DexContract.sol\":2253:2263  msg.sender */\n      caller\n        /* \"DexContract.sol\":2273:2277  this */\n      address\n        /* \"DexContract.sol\":2280:2287  amountA */\n      dup7\n        /* \"DexContract.sol\":2233:2288  tokenA.transferFrom(msg.sender, address(this), amountA) */\n      mload(0x40)\n      dup5\n      0xffffffff\n      and\n      0xe0\n      shl\n      dup2\n      mstore\n      0x04\n      add\n      tag_183\n      swap4\n      swap3\n      swap2\n      swap1\n      tag_184\n      jump\t// in\n    tag_183:\n      0x20\n      mload(0x40)\n      dup1\n      dup4\n      sub\n      dup2\n      0x00\n      dup8\n      gas\n      call\n      iszero\n      dup1\n      iszero\n      tag_186\n      jumpi\n      returndatacopy(0x00, 0x00, returndatasize)\n      revert(0x00, returndatasize)\n    tag_186:\n      pop\n      pop\n      pop\n      pop\n      mload(0x40)\n      returndatasize\n      not(0x1f)\n      0x1f\n      dup3\n      add\n      and\n      dup3\n      add\n      dup1\n      0x40\n      mstore\n      pop\n      dup2\n      add\n      swap1\n      tag_187\n      swap2\n      swap1\n      tag_130\n      jump\t// in\n    tag_187:\n        /* \"DexContract.sol\":2225:2310  require(tokenA.transferFrom(msg.sender, address(this), amountA), \"Transfer A failed\") */\n      tag_188\n      jumpi\n      mload(0x40)\n      0x08c379a000000000000000000000000000000000000000000000000000000000\n      dup2\n      mstore\n      0x04\n      add\n      tag_189\n      swap1\n      tag_167\n      jump\t// in\n    tag_189:\n      mload(0x40)\n      dup1\n      swap2\n      sub\n      swap1\n      revert\n    tag_188:\n        /* \"DexContract.sol\":2328:2334  tokenB */\n      0x01\n      0x00\n      swap1\n      sload\n      swap1\n      0x0100\n      exp\n      swap1\n      div\n      0xffffffffffffffffffffffffffffffffffffffff\n      and\n        /* \"DexContract.sol\":2328:2347  tokenB.transferFrom */\n      0xffffffffffffffffffffffffffffffffffffffff\n      and\n      0x23b872dd\n        /* \"DexContract.sol\":2348:2358  msg.sender */\n      caller\n        /* \"DexContract.sol\":2368:2372  this */\n      address\n        /* \"DexContract.sol\":2375:2382  amountB */\n      dup6\n        /* \"DexContract.sol\":2328:2383  tokenB.transferFrom(msg.sender, address(this), amountB) */\n      mload(0x40)\n      dup5\n      0xffffffff\n      and\n      0xe0\n      shl\n      dup2\n      mstore\n      0x04\n      add\n      tag_190\n      swap4\n      swap3\n      swap2\n      swap1\n      tag_184\n      jump\t// in\n    tag_190:\n      0x20\n      mload(0x40)\n      dup1\n      dup4\n      sub\n      dup2\n      0x00\n      dup8\n      gas\n      call\n      iszero\n      dup1\n      iszero\n      tag_192\n      jumpi\n      returndatacopy(0x00, 0x00, returndatasize)\n      revert(0x00, returndatasize)\n    tag_192:\n      pop\n      pop\n      pop\n      pop\n      mload(0x40)\n      returndatasize\n      not(0x1f)\n      0x1f\n      dup3\n      add\n      and\n      dup3\n      add\n      dup1\n      0x40\n      mstore\n      pop\n      dup2\n      add\n      swap1\n      tag_193\n      swap2\n      swap1\n      tag_130\n      jump\t// in\n    tag_193:\n        /* \"DexContract.sol\":2320:2405  require(tokenB.transferFrom(msg.sender, address(this), amountB), \"Transfer B failed\") */\n      tag_194\n      jumpi\n      mload(0x40)\n      0x08c379a000000000000000000000000000000000000000000000000000000000\n      dup2\n      mstore\n      0x04\n      add\n      tag_195\n      swap1\n      tag_174\n      jump\t// in\n    tag_195:\n      mload(0x40)\n      dup1\n      swap2\n      sub\n      swap1\n      revert\n    tag_194:\n        /* \"DexContract.sol\":2438:2439  0 */\n      0x00\n        /* \"DexContract.sol\":2420:2434  totalLiquidity */\n      sload(0x05)\n        /* \"DexContract.sol\":2420:2439  totalLiquidity == 0 */\n      sub\n        /* \"DexContract.sol\":2416:3232  if (totalLiquidity == 0) {... */\n      tag_196\n      jumpi\n        /* \"DexContract.sol\":2588:2611  sqrt(amountA * amountB) */\n      tag_197\n        /* \"DexContract.sol\":2603:2610  amountB */\n      dup3\n        /* \"DexContract.sol\":2593:2600  amountA */\n      dup5\n        /* \"DexContract.sol\":2593:2610  amountA * amountB */\n      tag_198\n      swap2\n      swap1\n      tag_114\n      jump\t// in\n    tag_198:\n        /* \"DexContract.sol\":2588:2592  sqrt */\n      tag_199\n        /* \"DexContract.sol\":2588:2611  sqrt(amountA * amountB) */\n      jump\t// in\n    tag_197:\n        /* \"DexContract.sol\":2570:2611  liquidityMinted = sqrt(amountA * amountB) */\n      swap1\n      pop\n        /* \"DexContract.sol\":2651:2652  0 */\n      0x00\n        /* \"DexContract.sol\":2633:2648  liquidityMinted */\n      dup2\n        /* \"DexContract.sol\":2633:2652  liquidityMinted > 0 */\n      gt\n        /* \"DexContract.sol\":2625:2686  require(liquidityMinted > 0, \"Insufficient liquidity minted\") */\n      tag_200\n      jumpi\n      mload(0x40)\n      0x08c379a000000000000000000000000000000000000000000000000000000000\n      dup2\n      mstore\n      0x04\n      add\n      tag_201\n      swap1\n      tag_202\n      jump\t// in\n    tag_201:\n      mload(0x40)\n      dup1\n      swap2\n      sub\n      swap1\n      revert\n    tag_200:\n        /* \"DexContract.sol\":2717:2732  liquidityMinted */\n      dup1\n        /* \"DexContract.sol\":2700:2714  totalLiquidity */\n      0x05\n        /* \"DexContract.sol\":2700:2732  totalLiquidity = liquidityMinted */\n      dup2\n      swap1\n      sstore\n      pop\n        /* \"DexContract.sol\":2770:2785  liquidityMinted */\n      dup1\n        /* \"DexContract.sol\":2746:2755  liquidity */\n      0x06\n        /* \"DexContract.sol\":2746:2767  liquidity[msg.sender] */\n      0x00\n        /* \"DexContract.sol\":2756:2766  msg.sender */\n      caller\n        /* \"DexContract.sol\":2746:2767  liquidity[msg.sender] */\n      0xffffffffffffffffffffffffffffffffffffffff\n      and\n      0xffffffffffffffffffffffffffffffffffffffff\n      and\n      dup2\n      mstore\n      0x20\n      add\n      swap1\n      dup2\n      mstore\n      0x20\n      add\n      0x00\n      keccak256\n        /* \"DexContract.sol\":2746:2785  liquidity[msg.sender] = liquidityMinted */\n      dup2\n      swap1\n      sstore\n      pop\n        /* \"DexContract.sol\":2416:3232  if (totalLiquidity == 0) {... */\n      jump(tag_203)\n    tag_196:\n        /* \"DexContract.sol\":2918:3045  min(... */\n      tag_204\n        /* \"DexContract.sol\":2968:2976  reserveA */\n      sload(0x03)\n        /* \"DexContract.sol\":2950:2964  totalLiquidity */\n      sload(0x05)\n        /* \"DexContract.sol\":2940:2947  amountA */\n      dup6\n        /* \"DexContract.sol\":2940:2964  amountA * totalLiquidity */\n      tag_205\n      swap2\n      swap1\n      tag_114\n      jump\t// in\n    tag_205:\n        /* \"DexContract.sol\":2939:2976  (amountA * totalLiquidity) / reserveA */\n      tag_206\n      swap2\n      swap1\n      tag_116\n      jump\t// in\n    tag_206:\n        /* \"DexContract.sol\":3023:3031  reserveB */\n      sload(0x04)\n        /* \"DexContract.sol\":3005:3019  totalLiquidity */\n      sload(0x05)\n        /* \"DexContract.sol\":2995:3002  amountB */\n      dup6\n        /* \"DexContract.sol\":2995:3019  amountB * totalLiquidity */\n      tag_207\n      swap2\n      swap1\n      tag_114\n      jump\t// in\n    tag_207:\n        /* \"DexContract.sol\":2994:3031  (amountB * totalLiquidity) / reserveB */\n      tag_208\n      swap2\n      swap1\n      tag_116\n      jump\t// in\n    tag_208:\n        /* \"DexContract.sol\":2918:2921  min */\n      tag_209\n        /* \"DexContract.sol\":2918:3045  min(... */\n      jump\t// in\n    tag_204:\n        /* \"DexContract.sol\":2900:3045  liquidityMinted = min(... */\n      swap1\n      pop\n        /* \"DexContract.sol\":3085:3086  0 */\n      0x00\n        /* \"DexContract.sol\":3067:3082  liquidityMinted */\n      dup2\n        /* \"DexContract.sol\":3067:3086  liquidityMinted > 0 */\n      gt\n        /* \"DexContract.sol\":3059:3120  require(liquidityMinted > 0, \"Insufficient liquidity minted\") */\n      tag_210\n      jumpi\n      mload(0x40)\n      0x08c379a000000000000000000000000000000000000000000000000000000000\n      dup2\n      mstore\n      0x04\n      add\n      tag_211\n      swap1\n      tag_202\n      jump\t// in\n    tag_211:\n      mload(0x40)\n      dup1\n      swap2\n      sub\n      swap1\n      revert\n    tag_210:\n        /* \"DexContract.sol\":3159:3174  liquidityMinted */\n      dup1\n        /* \"DexContract.sol\":3134:3143  liquidity */\n      0x06\n        /* \"DexContract.sol\":3134:3155  liquidity[msg.sender] */\n      0x00\n        /* \"DexContract.sol\":3144:3154  msg.sender */\n      caller\n        /* \"DexContract.sol\":3134:3155  liquidity[msg.sender] */\n      0xffffffffffffffffffffffffffffffffffffffff\n      and\n      0xffffffffffffffffffffffffffffffffffffffff\n      and\n      dup2\n      mstore\n      0x20\n      add\n      swap1\n      dup2\n      mstore\n      0x20\n      add\n      0x00\n      keccak256\n      0x00\n        /* \"DexContract.sol\":3134:3174  liquidity[msg.sender] += liquidityMinted */\n      dup3\n      dup3\n      sload\n      tag_212\n      swap2\n      swap1\n      tag_118\n      jump\t// in\n    tag_212:\n      swap3\n      pop\n      pop\n      dup2\n      swap1\n      sstore\n      pop\n        /* \"DexContract.sol\":3206:3221  liquidityMinted */\n      dup1\n        /* \"DexContract.sol\":3188:3202  totalLiquidity */\n      0x05\n      0x00\n        /* \"DexContract.sol\":3188:3221  totalLiquidity += liquidityMinted */\n      dup3\n      dup3\n      sload\n      tag_213\n      swap2\n      swap1\n      tag_118\n      jump\t// in\n    tag_213:\n      swap3\n      pop\n      pop\n      dup2\n      swap1\n      sstore\n      pop\n        /* \"DexContract.sol\":2416:3232  if (totalLiquidity == 0) {... */\n    tag_203:\n        /* \"DexContract.sol\":3242:3259  _updateReserves() */\n      tag_214\n        /* \"DexContract.sol\":3242:3257  _updateReserves */\n      tag_143\n        /* \"DexContract.sol\":3242:3259  _updateReserves() */\n      jump\t// in\n    tag_214:\n        /* \"DexContract.sol\":3290:3300  msg.sender */\n      caller\n        /* \"DexContract.sol\":3275:3336  LiquidityAdded(msg.sender, amountA, amountB, liquidityMinted) */\n      0xffffffffffffffffffffffffffffffffffffffff\n      and\n      0x64b83944e79c3ce8d4c297411de637c3e102d064677aac0c163976ebdcd6f50e\n        /* \"DexContract.sol\":3302:3309  amountA */\n      dup5\n        /* \"DexContract.sol\":3311:3318  amountB */\n      dup5\n        /* \"DexContract.sol\":3320:3335  liquidityMinted */\n      dup5\n        /* \"DexContract.sol\":3275:3336  LiquidityAdded(msg.sender, amountA, amountB, liquidityMinted) */\n      mload(0x40)\n      tag_215\n      swap4\n      swap3\n      swap2\n      swap1\n      tag_177\n      jump\t// in\n    tag_215:\n      mload(0x40)\n      dup1\n      swap2\n      sub\n      swap1\n      log2\n        /* \"DexContract.sol\":1981:3343  function addLiquidity(uint256 amountA, uint256 amountB) external returns (uint256 liquidityMinted) {... */\n      swap3\n      swap2\n      pop\n      pop\n      jump\t// out\n        /* \"DexContract.sol\":7147:8239  function swap(address inputToken, uint256 amountIn, uint256 minOut) external returns (uint256 amountOut) {... */\n    tag_66:\n        /* \"DexContract.sol\":7233:7250  uint256 amountOut */\n      0x00\n        /* \"DexContract.sol\":7292:7298  tokenA */\n      0x00\n      0x00\n      swap1\n      sload\n      swap1\n      0x0100\n      exp\n      swap1\n      div\n      0xffffffffffffffffffffffffffffffffffffffff\n      and\n        /* \"DexContract.sol\":7270:7299  inputToken == address(tokenA) */\n      0xffffffffffffffffffffffffffffffffffffffff\n      and\n        /* \"DexContract.sol\":7270:7280  inputToken */\n      dup5\n        /* \"DexContract.sol\":7270:7299  inputToken == address(tokenA) */\n      0xffffffffffffffffffffffffffffffffffffffff\n      and\n      eq\n        /* \"DexContract.sol\":7270:7332  inputToken == address(tokenA) || inputToken == address(tokenB) */\n      dup1\n      tag_217\n      jumpi\n      pop\n        /* \"DexContract.sol\":7325:7331  tokenB */\n      0x01\n      0x00\n      swap1\n      sload\n      swap1\n      0x0100\n      exp\n      swap1\n      div\n      0xffffffffffffffffffffffffffffffffffffffff\n      and\n        /* \"DexContract.sol\":7303:7332  inputToken == address(tokenB) */\n      0xffffffffffffffffffffffffffffffffffffffff\n      and\n        /* \"DexContract.sol\":7303:7313  inputToken */\n      dup5\n        /* \"DexContract.sol\":7303:7332  inputToken == address(tokenB) */\n      0xffffffffffffffffffffffffffffffffffffffff\n      and\n      eq\n        /* \"DexContract.sol\":7270:7332  inputToken == address(tokenA) || inputToken == address(tokenB) */\n    tag_217:\n        /* \"DexContract.sol\":7262:7356  require(inputToken == address(tokenA) || inputToken == address(tokenB), \"Invalid input token\") */\n      tag_218\n      jumpi\n      mload(0x40)\n      0x08c379a000000000000000000000000000000000000000000000000000000000\n      dup2\n      mstore\n      0x04\n      add\n      tag_219\n      swap1\n      tag_220\n      jump\t// in\n    tag_219:\n      mload(0x40)\n      dup1\n      swap2\n      sub\n      swap1\n      revert\n    tag_218:\n        /* \"DexContract.sol\":7385:7386  0 */\n      0x00\n        /* \"DexContract.sol\":7374:7382  amountIn */\n      dup4\n        /* \"DexContract.sol\":7374:7386  amountIn > 0 */\n      gt\n        /* \"DexContract.sol\":7366:7403  require(amountIn > 0, \"AmountIn > 0\") */\n      tag_221\n      jumpi\n      mload(0x40)\n      0x08c379a000000000000000000000000000000000000000000000000000000000\n      dup2\n      mstore\n      0x04\n      add\n      tag_222\n      swap1\n      tag_223\n      jump\t// in\n    tag_222:\n      mload(0x40)\n      dup1\n      swap2\n      sub\n      swap1\n      revert\n    tag_221:\n        /* \"DexContract.sol\":7414:7428  IERC20 inToken */\n      0x00\n        /* \"DexContract.sol\":7438:7448  inputToken */\n      dup5\n        /* \"DexContract.sol\":7414:7449  IERC20 inToken = IERC20(inputToken) */\n      swap1\n      pop\n        /* \"DexContract.sol\":7459:7474  IERC20 outToken */\n      0x00\n        /* \"DexContract.sol\":7499:7505  tokenA */\n      0x00\n      0x00\n      swap1\n      sload\n      swap1\n      0x0100\n      exp\n      swap1\n      div\n      0xffffffffffffffffffffffffffffffffffffffff\n      and\n        /* \"DexContract.sol\":7477:7506  inputToken == address(tokenA) */\n      0xffffffffffffffffffffffffffffffffffffffff\n      and\n        /* \"DexContract.sol\":7477:7487  inputToken */\n      dup7\n        /* \"DexContract.sol\":7477:7506  inputToken == address(tokenA) */\n      0xffffffffffffffffffffffffffffffffffffffff\n      and\n      eq\n        /* \"DexContract.sol\":7477:7524  inputToken == address(tokenA) ? tokenB : tokenA */\n      tag_224\n      jumpi\n        /* \"DexContract.sol\":7518:7524  tokenA */\n      0x00\n      0x00\n      swap1\n      sload\n      swap1\n      0x0100\n      exp\n      swap1\n      div\n      0xffffffffffffffffffffffffffffffffffffffff\n      and\n        /* \"DexContract.sol\":7477:7524  inputToken == address(tokenA) ? tokenB : tokenA */\n      jump(tag_225)\n    tag_224:\n        /* \"DexContract.sol\":7509:7515  tokenB */\n      0x01\n      0x00\n      swap1\n      sload\n      swap1\n      0x0100\n      exp\n      swap1\n      div\n      0xffffffffffffffffffffffffffffffffffffffff\n      and\n        /* \"DexContract.sol\":7477:7524  inputToken == address(tokenA) ? tokenB : tokenA */\n    tag_225:\n        /* \"DexContract.sol\":7459:7524  IERC20 outToken = inputToken == address(tokenA) ? tokenB : tokenA */\n      swap1\n      pop\n        /* \"DexContract.sol\":7535:7552  uint256 reserveIn */\n      0x00\n        /* \"DexContract.sol\":7577:7583  tokenA */\n      0x00\n      0x00\n      swap1\n      sload\n      swap1\n      0x0100\n      exp\n      swap1\n      div\n      0xffffffffffffffffffffffffffffffffffffffff\n      and\n        /* \"DexContract.sol\":7555:7584  inputToken == address(tokenA) */\n      0xffffffffffffffffffffffffffffffffffffffff\n      and\n        /* \"DexContract.sol\":7555:7565  inputToken */\n      dup8\n        /* \"DexContract.sol\":7555:7584  inputToken == address(tokenA) */\n      0xffffffffffffffffffffffffffffffffffffffff\n      and\n      eq\n        /* \"DexContract.sol\":7555:7606  inputToken == address(tokenA) ? reserveA : reserveB */\n      tag_226\n      jumpi\n        /* \"DexContract.sol\":7598:7606  reserveB */\n      sload(0x04)\n        /* \"DexContract.sol\":7555:7606  inputToken == address(tokenA) ? reserveA : reserveB */\n      jump(tag_227)\n    tag_226:\n        /* \"DexContract.sol\":7587:7595  reserveA */\n      sload(0x03)\n        /* \"DexContract.sol\":7555:7606  inputToken == address(tokenA) ? reserveA : reserveB */\n    tag_227:\n        /* \"DexContract.sol\":7535:7606  uint256 reserveIn = inputToken == address(tokenA) ? reserveA : reserveB */\n      swap1\n      pop\n        /* \"DexContract.sol\":7616:7634  uint256 reserveOut */\n      0x00\n        /* \"DexContract.sol\":7659:7665  tokenA */\n      0x00\n      0x00\n      swap1\n      sload\n      swap1\n      0x0100\n      exp\n      swap1\n      div\n      0xffffffffffffffffffffffffffffffffffffffff\n      and\n        /* \"DexContract.sol\":7637:7666  inputToken == address(tokenA) */\n      0xffffffffffffffffffffffffffffffffffffffff\n      and\n        /* \"DexContract.sol\":7637:7647  inputToken */\n      dup9\n        /* \"DexContract.sol\":7637:7666  inputToken == address(tokenA) */\n      0xffffffffffffffffffffffffffffffffffffffff\n      and\n      eq\n        /* \"DexContract.sol\":7637:7688  inputToken == address(tokenA) ? reserveB : reserveA */\n      tag_228\n      jumpi\n        /* \"DexContract.sol\":7680:7688  reserveA */\n      sload(0x03)\n        /* \"DexContract.sol\":7637:7688  inputToken == address(tokenA) ? reserveB : reserveA */\n      jump(tag_229)\n    tag_228:\n        /* \"DexContract.sol\":7669:7677  reserveB */\n      sload(0x04)\n        /* \"DexContract.sol\":7637:7688  inputToken == address(tokenA) ? reserveB : reserveA */\n    tag_229:\n        /* \"DexContract.sol\":7616:7688  uint256 reserveOut = inputToken == address(tokenA) ? reserveB : reserveA */\n      swap1\n      pop\n        /* \"DexContract.sol\":7707:7714  inToken */\n      dup4\n        /* \"DexContract.sol\":7707:7727  inToken.transferFrom */\n      0xffffffffffffffffffffffffffffffffffffffff\n      and\n      0x23b872dd\n        /* \"DexContract.sol\":7728:7738  msg.sender */\n      caller\n        /* \"DexContract.sol\":7748:7752  this */\n      address\n        /* \"DexContract.sol\":7755:7763  amountIn */\n      dup11\n        /* \"DexContract.sol\":7707:7764  inToken.transferFrom(msg.sender, address(this), amountIn) */\n      mload(0x40)\n      dup5\n      0xffffffff\n      and\n      0xe0\n      shl\n      dup2\n      mstore\n      0x04\n      add\n      tag_230\n      swap4\n      swap3\n      swap2\n      swap1\n      tag_184\n      jump\t// in\n    tag_230:\n      0x20\n      mload(0x40)\n      dup1\n      dup4\n      sub\n      dup2\n      0x00\n      dup8\n      gas\n      call\n      iszero\n      dup1\n      iszero\n      tag_232\n      jumpi\n      returndatacopy(0x00, 0x00, returndatasize)\n      revert(0x00, returndatasize)\n    tag_232:\n      pop\n      pop\n      pop\n      pop\n      mload(0x40)\n      returndatasize\n      not(0x1f)\n      0x1f\n      dup3\n      add\n      and\n      dup3\n      add\n      dup1\n      0x40\n      mstore\n      pop\n      dup2\n      add\n      swap1\n      tag_233\n      swap2\n      swap1\n      tag_130\n      jump\t// in\n    tag_233:\n        /* \"DexContract.sol\":7699:7787  require(inToken.transferFrom(msg.sender, address(this), amountIn), \"Transfer in failed\") */\n      tag_234\n      jumpi\n      mload(0x40)\n      0x08c379a000000000000000000000000000000000000000000000000000000000\n      dup2\n      mstore\n      0x04\n      add\n      tag_235\n      swap1\n      tag_236\n      jump\t// in\n    tag_235:\n      mload(0x40)\n      dup1\n      swap2\n      sub\n      swap1\n      revert\n    tag_234:\n        /* \"DexContract.sol\":7798:7821  uint256 amountInWithFee */\n      0x00\n        /* \"DexContract.sol\":1010:1014  1000 */\n      0x03e8\n        /* \"DexContract.sol\":959:960  5 */\n      0x05\n        /* \"DexContract.sol\":1010:1014  1000 */\n      0x03e8\n        /* \"DexContract.sol\":7836:7865  FEE_DENOMINATOR - FEE_PERCENT */\n      tag_237\n      swap2\n      swap1\n      tag_112\n      jump\t// in\n    tag_237:\n        /* \"DexContract.sol\":7824:7832  amountIn */\n      dup10\n        /* \"DexContract.sol\":7824:7866  amountIn * (FEE_DENOMINATOR - FEE_PERCENT) */\n      tag_238\n      swap2\n      swap1\n      tag_114\n      jump\t// in\n    tag_238:\n        /* \"DexContract.sol\":7824:7884  amountIn * (FEE_DENOMINATOR - FEE_PERCENT) / FEE_DENOMINATOR */\n      tag_239\n      swap2\n      swap1\n      tag_116\n      jump\t// in\n    tag_239:\n        /* \"DexContract.sol\":7798:7884  uint256 amountInWithFee = amountIn * (FEE_DENOMINATOR - FEE_PERCENT) / FEE_DENOMINATOR */\n      swap1\n      pop\n        /* \"DexContract.sol\":7953:7968  amountInWithFee */\n      dup1\n        /* \"DexContract.sol\":7941:7950  reserveIn */\n      dup4\n        /* \"DexContract.sol\":7941:7968  reserveIn + amountInWithFee */\n      tag_240\n      swap2\n      swap1\n      tag_118\n      jump\t// in\n    tag_240:\n        /* \"DexContract.sol\":7926:7936  reserveOut */\n      dup3\n        /* \"DexContract.sol\":7908:7923  amountInWithFee */\n      dup3\n        /* \"DexContract.sol\":7908:7936  amountInWithFee * reserveOut */\n      tag_241\n      swap2\n      swap1\n      tag_114\n      jump\t// in\n    tag_241:\n        /* \"DexContract.sol\":7907:7969  (amountInWithFee * reserveOut) / (reserveIn + amountInWithFee) */\n      tag_242\n      swap2\n      swap1\n      tag_116\n      jump\t// in\n    tag_242:\n        /* \"DexContract.sol\":7895:7969  amountOut = (amountInWithFee * reserveOut) / (reserveIn + amountInWithFee) */\n      swap6\n      pop\n        /* \"DexContract.sol\":8000:8006  minOut */\n      dup7\n        /* \"DexContract.sol\":7987:7996  amountOut */\n      dup7\n        /* \"DexContract.sol\":7987:8006  amountOut >= minOut */\n      lt\n      iszero\n        /* \"DexContract.sol\":7979:8037  require(amountOut >= minOut, \"Insufficient output amount\") */\n      tag_243\n      jumpi\n      mload(0x40)\n      0x08c379a000000000000000000000000000000000000000000000000000000000\n      dup2\n      mstore\n      0x04\n      add\n      tag_244\n      swap1\n      tag_245\n      jump\t// in\n    tag_244:\n      mload(0x40)\n      dup1\n      swap2\n      sub\n      swap1\n      revert\n    tag_243:\n        /* \"DexContract.sol\":8056:8064  outToken */\n      dup4\n        /* \"DexContract.sol\":8056:8073  outToken.transfer */\n      0xffffffffffffffffffffffffffffffffffffffff\n      and\n      0xa9059cbb\n        /* \"DexContract.sol\":8074:8084  msg.sender */\n      caller\n        /* \"DexContract.sol\":8086:8095  amountOut */\n      dup9\n        /* \"DexContract.sol\":8056:8096  outToken.transfer(msg.sender, amountOut) */\n      mload(0x40)\n      dup4\n      0xffffffff\n      and\n      0xe0\n      shl\n      dup2\n      mstore\n      0x04\n      add\n      tag_246\n      swap3\n      swap2\n      swap1\n      tag_126\n      jump\t// in\n    tag_246:\n      0x20\n      mload(0x40)\n      dup1\n      dup4\n      sub\n      dup2\n      0x00\n      dup8\n      gas\n      call\n      iszero\n      dup1\n      iszero\n      tag_248\n      jumpi\n      returndatacopy(0x00, 0x00, returndatasize)\n      revert(0x00, returndatasize)\n    tag_248:\n      pop\n      pop\n      pop\n      pop\n      mload(0x40)\n      returndatasize\n      not(0x1f)\n      0x1f\n      dup3\n      add\n      and\n      dup3\n      add\n      dup1\n      0x40\n      mstore\n      pop\n      dup2\n      add\n      swap1\n      tag_249\n      swap2\n      swap1\n      tag_130\n      jump\t// in\n    tag_249:\n        /* \"DexContract.sol\":8048:8120  require(outToken.transfer(msg.sender, amountOut), \"Transfer out failed\") */\n      tag_250\n      jumpi\n      mload(0x40)\n      0x08c379a000000000000000000000000000000000000000000000000000000000\n      dup2\n      mstore\n      0x04\n      add\n      tag_251\n      swap1\n      tag_252\n      jump\t// in\n    tag_251:\n      mload(0x40)\n      dup1\n      swap2\n      sub\n      swap1\n      revert\n    tag_250:\n        /* \"DexContract.sol\":8131:8148  _updateReserves() */\n      tag_253\n        /* \"DexContract.sol\":8131:8146  _updateReserves */\n      tag_143\n        /* \"DexContract.sol\":8131:8148  _updateReserves() */\n      jump\t// in\n    tag_253:\n        /* \"DexContract.sol\":8169:8179  msg.sender */\n      caller\n        /* \"DexContract.sol\":8164:8232  Swap(msg.sender, inputToken, amountIn, address(outToken), amountOut) */\n      0xffffffffffffffffffffffffffffffffffffffff\n      and\n      0x5380cf97d8f645d3c4896da60c053458dca03a3a31cec642ac80e1ddf0d8d02a\n        /* \"DexContract.sol\":8181:8191  inputToken */\n      dup11\n        /* \"DexContract.sol\":8193:8201  amountIn */\n      dup11\n        /* \"DexContract.sol\":8211:8219  outToken */\n      dup8\n        /* \"DexContract.sol\":8222:8231  amountOut */\n      dup11\n        /* \"DexContract.sol\":8164:8232  Swap(msg.sender, inputToken, amountIn, address(outToken), amountOut) */\n      mload(0x40)\n      tag_254\n      swap5\n      swap4\n      swap3\n      swap2\n      swap1\n      tag_147\n      jump\t// in\n    tag_254:\n      mload(0x40)\n      dup1\n      swap2\n      sub\n      swap1\n      log2\n        /* \"DexContract.sol\":7252:8239  {... */\n      pop\n      pop\n      pop\n      pop\n      pop\n        /* \"DexContract.sol\":7147:8239  function swap(address inputToken, uint256 amountIn, uint256 minOut) external returns (uint256 amountOut) {... */\n      swap4\n      swap3\n      pop\n      pop\n      pop\n      jump\t// out\n        /* \"DexContract.sol\":515:532  IWETH public WETH */\n    tag_70:\n      0x02\n      0x00\n      swap1\n      sload\n      swap1\n      0x0100\n      exp\n      swap1\n      div\n      0xffffffffffffffffffffffffffffffffffffffff\n      and\n      dup2\n      jump\t// out\n        /* \"DexContract.sol\":5606:7099  function swapExactTokenForETH(address inputToken, uint256 amountIn, uint256 minETHOut) external returns (uint256 ethOut) {... */\n    tag_76:\n        /* \"DexContract.sol\":5711:5725  uint256 ethOut */\n      0x00\n        /* \"DexContract.sol\":5767:5773  tokenA */\n      0x00\n      0x00\n      swap1\n      sload\n      swap1\n      0x0100\n      exp\n      swap1\n      div\n      0xffffffffffffffffffffffffffffffffffffffff\n      and\n        /* \"DexContract.sol\":5745:5774  inputToken == address(tokenA) */\n      0xffffffffffffffffffffffffffffffffffffffff\n      and\n        /* \"DexContract.sol\":5745:5755  inputToken */\n      dup5\n        /* \"DexContract.sol\":5745:5774  inputToken == address(tokenA) */\n      0xffffffffffffffffffffffffffffffffffffffff\n      and\n      eq\n        /* \"DexContract.sol\":5745:5807  inputToken == address(tokenA) || inputToken == address(tokenB) */\n      dup1\n      tag_256\n      jumpi\n      pop\n        /* \"DexContract.sol\":5800:5806  tokenB */\n      0x01\n      0x00\n      swap1\n      sload\n      swap1\n      0x0100\n      exp\n      swap1\n      div\n      0xffffffffffffffffffffffffffffffffffffffff\n      and\n        /* \"DexContract.sol\":5778:5807  inputToken == address(tokenB) */\n      0xffffffffffffffffffffffffffffffffffffffff\n      and\n        /* \"DexContract.sol\":5778:5788  inputToken */\n      dup5\n        /* \"DexContract.sol\":5778:5807  inputToken == address(tokenB) */\n      0xffffffffffffffffffffffffffffffffffffffff\n      and\n      eq\n        /* \"DexContract.sol\":5745:5807  inputToken == address(tokenA) || inputToken == address(tokenB) */\n    tag_256:\n        /* \"DexContract.sol\":5737:5825  require(inputToken == address(tokenA) || inputToken == address(tokenB), \"Invalid token\") */\n      tag_257\n      jumpi\n      mload(0x40)\n      0x08c379a000000000000000000000000000000000000000000000000000000000\n      dup2\n      mstore\n      0x04\n      add\n      tag_258\n      swap1\n      tag_259\n      jump\t// in\n    tag_258:\n      mload(0x40)\n      dup1\n      swap2\n      sub\n      swap1\n      revert\n    tag_257:\n        /* \"DexContract.sol\":5865:5866  0 */\n      0x00\n        /* \"DexContract.sol\":5843:5867  msg.sender != address(0) */\n      0xffffffffffffffffffffffffffffffffffffffff\n      and\n        /* \"DexContract.sol\":5843:5853  msg.sender */\n      caller\n        /* \"DexContract.sol\":5843:5867  msg.sender != address(0) */\n      0xffffffffffffffffffffffffffffffffffffffff\n      and\n      sub\n        /* \"DexContract.sol\":5835:5886  require(msg.sender != address(0), \"Invalid sender\") */\n      tag_260\n      jumpi\n      mload(0x40)\n      0x08c379a000000000000000000000000000000000000000000000000000000000\n      dup2\n      mstore\n      0x04\n      add\n      tag_261\n      swap1\n      tag_262\n      jump\t// in\n    tag_261:\n      mload(0x40)\n      dup1\n      swap2\n      sub\n      swap1\n      revert\n    tag_260:\n        /* \"DexContract.sol\":5915:5916  0 */\n      0x00\n        /* \"DexContract.sol\":5904:5912  amountIn */\n      dup4\n        /* \"DexContract.sol\":5904:5916  amountIn > 0 */\n      gt\n        /* \"DexContract.sol\":5896:5933  require(amountIn > 0, \"AmountIn > 0\") */\n      tag_263\n      jumpi\n      mload(0x40)\n      0x08c379a000000000000000000000000000000000000000000000000000000000\n      dup2\n      mstore\n      0x04\n      add\n      tag_264\n      swap1\n      tag_223\n      jump\t// in\n    tag_264:\n      mload(0x40)\n      dup1\n      swap2\n      sub\n      swap1\n      revert\n    tag_263:\n        /* \"DexContract.sol\":5944:5961  bool wethIsTokenA */\n      0x00\n        /* \"DexContract.sol\":5991:5995  WETH */\n      0x02\n      0x00\n      swap1\n      sload\n      swap1\n      0x0100\n      exp\n      swap1\n      div\n      0xffffffffffffffffffffffffffffffffffffffff\n      and\n        /* \"DexContract.sol\":5964:5996  address(tokenA) == address(WETH) */\n      0xffffffffffffffffffffffffffffffffffffffff\n      and\n        /* \"DexContract.sol\":5972:5978  tokenA */\n      0x00\n      0x00\n      swap1\n      sload\n      swap1\n      0x0100\n      exp\n      swap1\n      div\n      0xffffffffffffffffffffffffffffffffffffffff\n      and\n        /* \"DexContract.sol\":5964:5996  address(tokenA) == address(WETH) */\n      0xffffffffffffffffffffffffffffffffffffffff\n      and\n      eq\n        /* \"DexContract.sol\":5944:5996  bool wethIsTokenA = address(tokenA) == address(WETH) */\n      swap1\n      pop\n        /* \"DexContract.sol\":6033:6043  inputToken */\n      dup5\n        /* \"DexContract.sol\":6014:6043  address(tokenA) == inputToken */\n      0xffffffffffffffffffffffffffffffffffffffff\n      and\n        /* \"DexContract.sol\":6022:6028  tokenA */\n      0x00\n      0x00\n      swap1\n      sload\n      swap1\n      0x0100\n      exp\n      swap1\n      div\n      0xffffffffffffffffffffffffffffffffffffffff\n      and\n        /* \"DexContract.sol\":6014:6043  address(tokenA) == inputToken */\n      0xffffffffffffffffffffffffffffffffffffffff\n      and\n      eq\n        /* \"DexContract.sol\":6014:6076  address(tokenA) == inputToken || address(tokenB) == inputToken */\n      dup1\n      tag_265\n      jumpi\n      pop\n        /* \"DexContract.sol\":6066:6076  inputToken */\n      dup5\n        /* \"DexContract.sol\":6047:6076  address(tokenB) == inputToken */\n      0xffffffffffffffffffffffffffffffffffffffff\n      and\n        /* \"DexContract.sol\":6055:6061  tokenB */\n      0x01\n      0x00\n      swap1\n      sload\n      swap1\n      0x0100\n      exp\n      swap1\n      div\n      0xffffffffffffffffffffffffffffffffffffffff\n      and\n        /* \"DexContract.sol\":6047:6076  address(tokenB) == inputToken */\n      0xffffffffffffffffffffffffffffffffffffffff\n      and\n      eq\n        /* \"DexContract.sol\":6014:6076  address(tokenA) == inputToken || address(tokenB) == inputToken */\n    tag_265:\n        /* \"DexContract.sol\":6006:6104  require(address(tokenA) == inputToken || address(tokenB) == inputToken, \"Input token not in pair\") */\n      tag_266\n      jumpi\n      mload(0x40)\n      0x08c379a000000000000000000000000000000000000000000000000000000000\n      dup2\n      mstore\n      0x04\n      add\n      tag_267\n      swap1\n      tag_268\n      jump\t// in\n    tag_267:\n      mload(0x40)\n      dup1\n      swap2\n      sub\n      swap1\n      revert\n    tag_266:\n        /* \"DexContract.sol\":6149:6153  WETH */\n      0x02\n      0x00\n      swap1\n      sload\n      swap1\n      0x0100\n      exp\n      swap1\n      div\n      0xffffffffffffffffffffffffffffffffffffffff\n      and\n        /* \"DexContract.sol\":6122:6154  address(tokenA) == address(WETH) */\n      0xffffffffffffffffffffffffffffffffffffffff\n      and\n        /* \"DexContract.sol\":6130:6136  tokenA */\n      0x00\n      0x00\n      swap1\n      sload\n      swap1\n      0x0100\n      exp\n      swap1\n      div\n      0xffffffffffffffffffffffffffffffffffffffff\n      and\n        /* \"DexContract.sol\":6122:6154  address(tokenA) == address(WETH) */\n      0xffffffffffffffffffffffffffffffffffffffff\n      and\n      eq\n        /* \"DexContract.sol\":6122:6190  address(tokenA) == address(WETH) || address(tokenB) == address(WETH) */\n      dup1\n      tag_269\n      jumpi\n      pop\n        /* \"DexContract.sol\":6185:6189  WETH */\n      0x02\n      0x00\n      swap1\n      sload\n      swap1\n      0x0100\n      exp\n      swap1\n      div\n      0xffffffffffffffffffffffffffffffffffffffff\n      and\n        /* \"DexContract.sol\":6158:6190  address(tokenB) == address(WETH) */\n      0xffffffffffffffffffffffffffffffffffffffff\n      and\n        /* \"DexContract.sol\":6166:6172  tokenB */\n      0x01\n      0x00\n      swap1\n      sload\n      swap1\n      0x0100\n      exp\n      swap1\n      div\n      0xffffffffffffffffffffffffffffffffffffffff\n      and\n        /* \"DexContract.sol\":6158:6190  address(tokenB) == address(WETH) */\n      0xffffffffffffffffffffffffffffffffffffffff\n      and\n      eq\n        /* \"DexContract.sol\":6122:6190  address(tokenA) == address(WETH) || address(tokenB) == address(WETH) */\n    tag_269:\n        /* \"DexContract.sol\":6114:6211  require(address(tokenA) == address(WETH) || address(tokenB) == address(WETH), \"WETH not in pair\") */\n      tag_270\n      jumpi\n      mload(0x40)\n      0x08c379a000000000000000000000000000000000000000000000000000000000\n      dup2\n      mstore\n      0x04\n      add\n      tag_271\n      swap1\n      tag_100\n      jump\t// in\n    tag_271:\n      mload(0x40)\n      dup1\n      swap2\n      sub\n      swap1\n      revert\n    tag_270:\n        /* \"DexContract.sol\":6222:6236  IERC20 inToken */\n      0x00\n        /* \"DexContract.sol\":6246:6256  inputToken */\n      dup6\n        /* \"DexContract.sol\":6222:6257  IERC20 inToken = IERC20(inputToken) */\n      swap1\n      pop\n        /* \"DexContract.sol\":6267:6282  IERC20 outToken */\n      0x00\n        /* \"DexContract.sol\":6285:6297  wethIsTokenA */\n      dup3\n        /* \"DexContract.sol\":6285:6315  wethIsTokenA ? tokenB : tokenA */\n      tag_272\n      jumpi\n        /* \"DexContract.sol\":6309:6315  tokenA */\n      0x00\n      0x00\n      swap1\n      sload\n      swap1\n      0x0100\n      exp\n      swap1\n      div\n      0xffffffffffffffffffffffffffffffffffffffff\n      and\n        /* \"DexContract.sol\":6285:6315  wethIsTokenA ? tokenB : tokenA */\n      jump(tag_273)\n    tag_272:\n        /* \"DexContract.sol\":6300:6306  tokenB */\n      0x01\n      0x00\n      swap1\n      sload\n      swap1\n      0x0100\n      exp\n      swap1\n      div\n      0xffffffffffffffffffffffffffffffffffffffff\n      and\n        /* \"DexContract.sol\":6285:6315  wethIsTokenA ? tokenB : tokenA */\n    tag_273:\n        /* \"DexContract.sol\":6267:6315  IERC20 outToken = wethIsTokenA ? tokenB : tokenA */\n      swap1\n      pop\n        /* \"DexContract.sol\":6326:6343  uint256 reserveIn */\n      0x00\n        /* \"DexContract.sol\":6368:6374  tokenA */\n      0x00\n      0x00\n      swap1\n      sload\n      swap1\n      0x0100\n      exp\n      swap1\n      div\n      0xffffffffffffffffffffffffffffffffffffffff\n      and\n        /* \"DexContract.sol\":6346:6375  inputToken == address(tokenA) */\n      0xffffffffffffffffffffffffffffffffffffffff\n      and\n        /* \"DexContract.sol\":6346:6356  inputToken */\n      dup9\n        /* \"DexContract.sol\":6346:6375  inputToken == address(tokenA) */\n      0xffffffffffffffffffffffffffffffffffffffff\n      and\n      eq\n        /* \"DexContract.sol\":6346:6397  inputToken == address(tokenA) ? reserveA : reserveB */\n      tag_274\n      jumpi\n        /* \"DexContract.sol\":6389:6397  reserveB */\n      sload(0x04)\n        /* \"DexContract.sol\":6346:6397  inputToken == address(tokenA) ? reserveA : reserveB */\n      jump(tag_275)\n    tag_274:\n        /* \"DexContract.sol\":6378:6386  reserveA */\n      sload(0x03)\n        /* \"DexContract.sol\":6346:6397  inputToken == address(tokenA) ? reserveA : reserveB */\n    tag_275:\n        /* \"DexContract.sol\":6326:6397  uint256 reserveIn = inputToken == address(tokenA) ? reserveA : reserveB */\n      swap1\n      pop\n        /* \"DexContract.sol\":6407:6425  uint256 reserveOut */\n      0x00\n        /* \"DexContract.sol\":6450:6456  tokenA */\n      0x00\n      0x00\n      swap1\n      sload\n      swap1\n      0x0100\n      exp\n      swap1\n      div\n      0xffffffffffffffffffffffffffffffffffffffff\n      and\n        /* \"DexContract.sol\":6428:6457  inputToken == address(tokenA) */\n      0xffffffffffffffffffffffffffffffffffffffff\n      and\n        /* \"DexContract.sol\":6428:6438  inputToken */\n      dup10\n        /* \"DexContract.sol\":6428:6457  inputToken == address(tokenA) */\n      0xffffffffffffffffffffffffffffffffffffffff\n      and\n      eq\n        /* \"DexContract.sol\":6428:6479  inputToken == address(tokenA) ? reserveB : reserveA */\n      tag_276\n      jumpi\n        /* \"DexContract.sol\":6471:6479  reserveA */\n      sload(0x03)\n        /* \"DexContract.sol\":6428:6479  inputToken == address(tokenA) ? reserveB : reserveA */\n      jump(tag_277)\n    tag_276:\n        /* \"DexContract.sol\":6460:6468  reserveB */\n      sload(0x04)\n        /* \"DexContract.sol\":6428:6479  inputToken == address(tokenA) ? reserveB : reserveA */\n    tag_277:\n        /* \"DexContract.sol\":6407:6479  uint256 reserveOut = inputToken == address(tokenA) ? reserveB : reserveA */\n      swap1\n      pop\n        /* \"DexContract.sol\":6498:6505  inToken */\n      dup4\n        /* \"DexContract.sol\":6498:6518  inToken.transferFrom */\n      0xffffffffffffffffffffffffffffffffffffffff\n      and\n      0x23b872dd\n        /* \"DexContract.sol\":6519:6529  msg.sender */\n      caller\n        /* \"DexContract.sol\":6539:6543  this */\n      address\n        /* \"DexContract.sol\":6546:6554  amountIn */\n      dup12\n        /* \"DexContract.sol\":6498:6555  inToken.transferFrom(msg.sender, address(this), amountIn) */\n      mload(0x40)\n      dup5\n      0xffffffff\n      and\n      0xe0\n      shl\n      dup2\n      mstore\n      0x04\n      add\n      tag_278\n      swap4\n      swap3\n      swap2\n      swap1\n      tag_184\n      jump\t// in\n    tag_278:\n      0x20\n      mload(0x40)\n      dup1\n      dup4\n      sub\n      dup2\n      0x00\n      dup8\n      gas\n      call\n      iszero\n      dup1\n      iszero\n      tag_280\n      jumpi\n      returndatacopy(0x00, 0x00, returndatasize)\n      revert(0x00, returndatasize)\n    tag_280:\n      pop\n      pop\n      pop\n      pop\n      mload(0x40)\n      returndatasize\n      not(0x1f)\n      0x1f\n      dup3\n      add\n      and\n      dup3\n      add\n      dup1\n      0x40\n      mstore\n      pop\n      dup2\n      add\n      swap1\n      tag_281\n      swap2\n      swap1\n      tag_130\n      jump\t// in\n    tag_281:\n        /* \"DexContract.sol\":6490:6578  require(inToken.transferFrom(msg.sender, address(this), amountIn), \"Transfer in failed\") */\n      tag_282\n      jumpi\n      mload(0x40)\n      0x08c379a000000000000000000000000000000000000000000000000000000000\n      dup2\n      mstore\n      0x04\n      add\n      tag_283\n      swap1\n      tag_236\n      jump\t// in\n    tag_283:\n      mload(0x40)\n      dup1\n      swap2\n      sub\n      swap1\n      revert\n    tag_282:\n        /* \"DexContract.sol\":6589:6612  uint256 amountInWithFee */\n      0x00\n        /* \"DexContract.sol\":1010:1014  1000 */\n      0x03e8\n        /* \"DexContract.sol\":959:960  5 */\n      0x05\n        /* \"DexContract.sol\":1010:1014  1000 */\n      0x03e8\n        /* \"DexContract.sol\":6627:6656  FEE_DENOMINATOR - FEE_PERCENT */\n      tag_284\n      swap2\n      swap1\n      tag_112\n      jump\t// in\n    tag_284:\n        /* \"DexContract.sol\":6615:6623  amountIn */\n      dup11\n        /* \"DexContract.sol\":6615:6657  amountIn * (FEE_DENOMINATOR - FEE_PERCENT) */\n      tag_285\n      swap2\n      swap1\n      tag_114\n      jump\t// in\n    tag_285:\n        /* \"DexContract.sol\":6615:6675  amountIn * (FEE_DENOMINATOR - FEE_PERCENT) / FEE_DENOMINATOR */\n      tag_286\n      swap2\n      swap1\n      tag_116\n      jump\t// in\n    tag_286:\n        /* \"DexContract.sol\":6589:6675  uint256 amountInWithFee = amountIn * (FEE_DENOMINATOR - FEE_PERCENT) / FEE_DENOMINATOR */\n      swap1\n      pop\n        /* \"DexContract.sol\":6741:6756  amountInWithFee */\n      dup1\n        /* \"DexContract.sol\":6729:6738  reserveIn */\n      dup4\n        /* \"DexContract.sol\":6729:6756  reserveIn + amountInWithFee */\n      tag_287\n      swap2\n      swap1\n      tag_118\n      jump\t// in\n    tag_287:\n        /* \"DexContract.sol\":6714:6724  reserveOut */\n      dup3\n        /* \"DexContract.sol\":6696:6711  amountInWithFee */\n      dup3\n        /* \"DexContract.sol\":6696:6724  amountInWithFee * reserveOut */\n      tag_288\n      swap2\n      swap1\n      tag_114\n      jump\t// in\n    tag_288:\n        /* \"DexContract.sol\":6695:6757  (amountInWithFee * reserveOut) / (reserveIn + amountInWithFee) */\n      tag_289\n      swap2\n      swap1\n      tag_116\n      jump\t// in\n    tag_289:\n        /* \"DexContract.sol\":6686:6757  ethOut = (amountInWithFee * reserveOut) / (reserveIn + amountInWithFee) */\n      swap7\n      pop\n        /* \"DexContract.sol\":6785:6794  minETHOut */\n      dup8\n        /* \"DexContract.sol\":6775:6781  ethOut */\n      dup8\n        /* \"DexContract.sol\":6775:6794  ethOut >= minETHOut */\n      lt\n      iszero\n        /* \"DexContract.sol\":6767:6819  require(ethOut >= minETHOut, \"Insufficient ETH out\") */\n      tag_290\n      jumpi\n      mload(0x40)\n      0x08c379a000000000000000000000000000000000000000000000000000000000\n      dup2\n      mstore\n      0x04\n      add\n      tag_291\n      swap1\n      tag_292\n      jump\t// in\n    tag_291:\n      mload(0x40)\n      dup1\n      swap2\n      sub\n      swap1\n      revert\n    tag_290:\n        /* \"DexContract.sol\":6860:6864  WETH */\n      0x02\n      0x00\n      swap1\n      sload\n      swap1\n      0x0100\n      exp\n      swap1\n      div\n      0xffffffffffffffffffffffffffffffffffffffff\n      and\n        /* \"DexContract.sol\":6860:6873  WETH.withdraw */\n      0xffffffffffffffffffffffffffffffffffffffff\n      and\n      0x2e1a7d4d\n        /* \"DexContract.sol\":6874:6880  ethOut */\n      dup9\n        /* \"DexContract.sol\":6860:6881  WETH.withdraw(ethOut) */\n      mload(0x40)\n      dup3\n      0xffffffff\n      and\n      0xe0\n      shl\n      dup2\n      mstore\n      0x04\n      add\n      tag_293\n      swap2\n      swap1\n      tag_23\n      jump\t// in\n    tag_293:\n      0x00\n      mload(0x40)\n      dup1\n      dup4\n      sub\n      dup2\n      0x00\n      dup8\n      dup1\n      extcodesize\n      iszero\n      dup1\n      iszero\n      tag_294\n      jumpi\n      revert(0x00, 0x00)\n    tag_294:\n      pop\n      gas\n      call\n      iszero\n      dup1\n      iszero\n      tag_296\n      jumpi\n      returndatacopy(0x00, 0x00, returndatasize)\n      revert(0x00, returndatasize)\n    tag_296:\n      pop\n      pop\n      pop\n      pop\n        /* \"DexContract.sol\":6893:6902  bool sent */\n      0x00\n        /* \"DexContract.sol\":6907:6917  msg.sender */\n      caller\n        /* \"DexContract.sol\":6907:6922  msg.sender.call */\n      0xffffffffffffffffffffffffffffffffffffffff\n      and\n        /* \"DexContract.sol\":6930:6936  ethOut */\n      dup9\n        /* \"DexContract.sol\":6907:6941  msg.sender.call{value: ethOut}(\"\") */\n      mload(0x40)\n      tag_297\n      swap1\n      tag_298\n      jump\t// in\n    tag_297:\n      0x00\n      mload(0x40)\n      dup1\n      dup4\n      sub\n      dup2\n      dup6\n      dup8\n      gas\n      call\n      swap3\n      pop\n      pop\n      pop\n      returndatasize\n      dup1\n      0x00\n      dup2\n      eq\n      tag_301\n      jumpi\n      mload(0x40)\n      swap2\n      pop\n      and(add(returndatasize, 0x3f), not(0x1f))\n      dup3\n      add\n      0x40\n      mstore\n      returndatasize\n      dup3\n      mstore\n      returndatasize\n      0x00\n      0x20\n      dup5\n      add\n      returndatacopy\n      jump(tag_300)\n    tag_301:\n      0x60\n      swap2\n      pop\n    tag_300:\n      pop\n        /* \"DexContract.sol\":6892:6941  (bool sent,) = msg.sender.call{value: ethOut}(\"\") */\n      pop\n      swap1\n      pop\n        /* \"DexContract.sol\":6959:6963  sent */\n      dup1\n        /* \"DexContract.sol\":6951:6987  require(sent, \"ETH transfer failed\") */\n      tag_302\n      jumpi\n      mload(0x40)\n      0x08c379a000000000000000000000000000000000000000000000000000000000\n      dup2\n      mstore\n      0x04\n      add\n      tag_303\n      swap1\n      tag_304\n      jump\t// in\n    tag_303:\n      mload(0x40)\n      dup1\n      swap2\n      sub\n      swap1\n      revert\n    tag_302:\n        /* \"DexContract.sol\":6998:7015  _updateReserves() */\n      tag_305\n        /* \"DexContract.sol\":6998:7013  _updateReserves */\n      tag_143\n        /* \"DexContract.sol\":6998:7015  _updateReserves() */\n      jump\t// in\n    tag_305:\n        /* \"DexContract.sol\":7036:7046  msg.sender */\n      caller\n        /* \"DexContract.sol\":7031:7092  Swap(msg.sender, inputToken, amountIn, address(WETH), ethOut) */\n      0xffffffffffffffffffffffffffffffffffffffff\n      and\n      0x5380cf97d8f645d3c4896da60c053458dca03a3a31cec642ac80e1ddf0d8d02a\n        /* \"DexContract.sol\":7048:7058  inputToken */\n      dup13\n        /* \"DexContract.sol\":7060:7068  amountIn */\n      dup13\n        /* \"DexContract.sol\":7078:7082  WETH */\n      0x02\n      0x00\n      swap1\n      sload\n      swap1\n      0x0100\n      exp\n      swap1\n      div\n      0xffffffffffffffffffffffffffffffffffffffff\n      and\n        /* \"DexContract.sol\":7085:7091  ethOut */\n      dup13\n        /* \"DexContract.sol\":7031:7092  Swap(msg.sender, inputToken, amountIn, address(WETH), ethOut) */\n      mload(0x40)\n      tag_306\n      swap5\n      swap4\n      swap3\n      swap2\n      swap1\n      tag_147\n      jump\t// in\n    tag_306:\n      mload(0x40)\n      dup1\n      swap2\n      sub\n      swap1\n      log2\n        /* \"DexContract.sol\":5727:7099  {... */\n      pop\n      pop\n      pop\n      pop\n      pop\n      pop\n      pop\n        /* \"DexContract.sol\":5606:7099  function swapExactTokenForETH(address inputToken, uint256 amountIn, uint256 minETHOut) external returns (uint256 ethOut) {... */\n      swap4\n      swap3\n      pop\n      pop\n      pop\n      jump\t// out\n        /* \"DexContract.sol\":799:843  mapping(address => uint256) public liquidity */\n    tag_82:\n      mstore(0x20, 0x06)\n      dup1\n      0x00\n      mstore\n      keccak256(0x00, 0x40)\n      0x00\n      swap2\n      pop\n      swap1\n      pop\n      sload\n      dup2\n      jump\t// out\n        /* \"DexContract.sol\":968:1014  uint256 public constant FEE_DENOMINATOR = 1000 */\n    tag_86:\n        /* \"DexContract.sol\":1010:1014  1000 */\n      0x03e8\n        /* \"DexContract.sol\":968:1014  uint256 public constant FEE_DENOMINATOR = 1000 */\n      dup2\n      jump\t// out\n        /* \"DexContract.sol\":584:607  uint256 public reserveA */\n    tag_90:\n      sload(0x03)\n      dup2\n      jump\t// out\n        /* \"DexContract.sol\":921:960  uint256 public constant FEE_PERCENT = 5 */\n    tag_94:\n        /* \"DexContract.sol\":959:960  5 */\n      0x05\n        /* \"DexContract.sol\":921:960  uint256 public constant FEE_PERCENT = 5 */\n      dup2\n      jump\t// out\n        /* \"DexContract.sol\":1792:1939  function _updateReserves() internal {... */\n    tag_143:\n        /* \"DexContract.sol\":1849:1855  tokenA */\n      0x00\n      0x00\n      swap1\n      sload\n      swap1\n      0x0100\n      exp\n      swap1\n      div\n      0xffffffffffffffffffffffffffffffffffffffff\n      and\n        /* \"DexContract.sol\":1849:1865  tokenA.balanceOf */\n      0xffffffffffffffffffffffffffffffffffffffff\n      and\n      0x70a08231\n        /* \"DexContract.sol\":1874:1878  this */\n      address\n        /* \"DexContract.sol\":1849:1880  tokenA.balanceOf(address(this)) */\n      mload(0x40)\n      dup3\n      0xffffffff\n      and\n      0xe0\n      shl\n      dup2\n      mstore\n      0x04\n      add\n      tag_308\n      swap2\n      swap1\n      tag_309\n      jump\t// in\n    tag_308:\n      0x20\n      mload(0x40)\n      dup1\n      dup4\n      sub\n      dup2\n      dup7\n      gas\n      staticcall\n      iszero\n      dup1\n      iszero\n      tag_311\n      jumpi\n      returndatacopy(0x00, 0x00, returndatasize)\n      revert(0x00, returndatasize)\n    tag_311:\n      pop\n      pop\n      pop\n      pop\n      mload(0x40)\n      returndatasize\n      not(0x1f)\n      0x1f\n      dup3\n      add\n      and\n      dup3\n      add\n      dup1\n      0x40\n      mstore\n      pop\n      dup2\n      add\n      swap1\n      tag_312\n      swap2\n      swap1\n      tag_313\n      jump\t// in\n    tag_312:\n        /* \"DexContract.sol\":1838:1846  reserveA */\n      0x03\n        /* \"DexContract.sol\":1838:1880  reserveA = tokenA.balanceOf(address(this)) */\n      dup2\n      swap1\n      sstore\n      pop\n        /* \"DexContract.sol\":1901:1907  tokenB */\n      0x01\n      0x00\n      swap1\n      sload\n      swap1\n      0x0100\n      exp\n      swap1\n      div\n      0xffffffffffffffffffffffffffffffffffffffff\n      and\n        /* \"DexContract.sol\":1901:1917  tokenB.balanceOf */\n      0xffffffffffffffffffffffffffffffffffffffff\n      and\n      0x70a08231\n        /* \"DexContract.sol\":1926:1930  this */\n      address\n        /* \"DexContract.sol\":1901:1932  tokenB.balanceOf(address(this)) */\n      mload(0x40)\n      dup3\n      0xffffffff\n      and\n      0xe0\n      shl\n      dup2\n      mstore\n      0x04\n      add\n      tag_314\n      swap2\n      swap1\n      tag_309\n      jump\t// in\n    tag_314:\n      0x20\n      mload(0x40)\n      dup1\n      dup4\n      sub\n      dup2\n      dup7\n      gas\n      staticcall\n      iszero\n      dup1\n      iszero\n      tag_316\n      jumpi\n      returndatacopy(0x00, 0x00, returndatasize)\n      revert(0x00, returndatasize)\n    tag_316:\n      pop\n      pop\n      pop\n      pop\n      mload(0x40)\n      returndatasize\n      not(0x1f)\n      0x1f\n      dup3\n      add\n      and\n      dup3\n      add\n      dup1\n      0x40\n      mstore\n      pop\n      dup2\n      add\n      swap1\n      tag_317\n      swap2\n      swap1\n      tag_313\n      jump\t// in\n    tag_317:\n        /* \"DexContract.sol\":1890:1898  reserveB */\n      0x04\n        /* \"DexContract.sol\":1890:1932  reserveB = tokenB.balanceOf(address(this)) */\n      dup2\n      swap1\n      sstore\n      pop\n        /* \"DexContract.sol\":1792:1939  function _updateReserves() internal {... */\n      jump\t// out\n        /* \"DexContract.sol\":8295:8587  function sqrt(uint y) internal pure returns (uint z) {... */\n    tag_199:\n        /* \"DexContract.sol\":8340:8346  uint z */\n      0x00\n        /* \"DexContract.sol\":8366:8367  3 */\n      0x03\n        /* \"DexContract.sol\":8362:8363  y */\n      dup3\n        /* \"DexContract.sol\":8362:8367  y > 3 */\n      gt\n        /* \"DexContract.sol\":8358:8581  if (y > 3) {... */\n      iszero\n      tag_319\n      jumpi\n        /* \"DexContract.sol\":8387:8388  y */\n      dup2\n        /* \"DexContract.sol\":8383:8388  z = y */\n      swap1\n      pop\n        /* \"DexContract.sol\":8402:8408  uint x */\n      0x00\n        /* \"DexContract.sol\":8419:8420  1 */\n      0x01\n        /* \"DexContract.sol\":8415:8416  2 */\n      0x02\n        /* \"DexContract.sol\":8411:8412  y */\n      dup5\n        /* \"DexContract.sol\":8411:8416  y / 2 */\n      tag_320\n      swap2\n      swap1\n      tag_116\n      jump\t// in\n    tag_320:\n        /* \"DexContract.sol\":8411:8420  y / 2 + 1 */\n      tag_321\n      swap2\n      swap1\n      tag_118\n      jump\t// in\n    tag_321:\n        /* \"DexContract.sol\":8402:8420  uint x = y / 2 + 1 */\n      swap1\n      pop\n        /* \"DexContract.sol\":8434:8523  while (x < z) {... */\n    tag_322:\n        /* \"DexContract.sol\":8445:8446  z */\n      dup2\n        /* \"DexContract.sol\":8441:8442  x */\n      dup2\n        /* \"DexContract.sol\":8441:8446  x < z */\n      lt\n        /* \"DexContract.sol\":8434:8523  while (x < z) {... */\n      iszero\n      tag_323\n      jumpi\n        /* \"DexContract.sol\":8470:8471  x */\n      dup1\n        /* \"DexContract.sol\":8466:8471  z = x */\n      swap2\n      pop\n        /* \"DexContract.sol\":8507:8508  2 */\n      0x02\n        /* \"DexContract.sol\":8502:8503  x */\n      dup2\n        /* \"DexContract.sol\":8498:8499  x */\n      dup3\n        /* \"DexContract.sol\":8494:8495  y */\n      dup6\n        /* \"DexContract.sol\":8494:8499  y / x */\n      tag_324\n      swap2\n      swap1\n      tag_116\n      jump\t// in\n    tag_324:\n        /* \"DexContract.sol\":8494:8503  y / x + x */\n      tag_325\n      swap2\n      swap1\n      tag_118\n      jump\t// in\n    tag_325:\n        /* \"DexContract.sol\":8493:8508  (y / x + x) / 2 */\n      tag_326\n      swap2\n      swap1\n      tag_116\n      jump\t// in\n    tag_326:\n        /* \"DexContract.sol\":8489:8508  x = (y / x + x) / 2 */\n      swap1\n      pop\n        /* \"DexContract.sol\":8434:8523  while (x < z) {... */\n      jump(tag_322)\n    tag_323:\n        /* \"DexContract.sol\":8369:8533  {... */\n      pop\n        /* \"DexContract.sol\":8358:8581  if (y > 3) {... */\n      jump(tag_327)\n    tag_319:\n        /* \"DexContract.sol\":8548:8549  0 */\n      0x00\n        /* \"DexContract.sol\":8543:8544  y */\n      dup3\n        /* \"DexContract.sol\":8543:8549  y != 0 */\n      eq\n        /* \"DexContract.sol\":8539:8581  if (y != 0) {... */\n      tag_328\n      jumpi\n        /* \"DexContract.sol\":8569:8570  1 */\n      0x01\n        /* \"DexContract.sol\":8565:8570  z = 1 */\n      swap1\n      pop\n        /* \"DexContract.sol\":8539:8581  if (y != 0) {... */\n    tag_328:\n        /* \"DexContract.sol\":8358:8581  if (y > 3) {... */\n    tag_327:\n        /* \"DexContract.sol\":8295:8587  function sqrt(uint y) internal pure returns (uint z) {... */\n      swap2\n      swap1\n      pop\n      jump\t// out\n        /* \"DexContract.sol\":8640:8735  function min(uint x, uint y) internal pure returns (uint) {... */\n    tag_209:\n        /* \"DexContract.sol\":8692:8696  uint */\n      0x00\n        /* \"DexContract.sol\":8719:8720  y */\n      dup2\n        /* \"DexContract.sol\":8715:8716  x */\n      dup4\n        /* \"DexContract.sol\":8715:8720  x < y */\n      lt\n        /* \"DexContract.sol\":8715:8728  x < y ? x : y */\n      tag_330\n      jumpi\n        /* \"DexContract.sol\":8727:8728  y */\n      dup2\n        /* \"DexContract.sol\":8715:8728  x < y ? x : y */\n      jump(tag_331)\n    tag_330:\n        /* \"DexContract.sol\":8723:8724  x */\n      dup3\n        /* \"DexContract.sol\":8715:8728  x < y ? x : y */\n    tag_331:\n        /* \"DexContract.sol\":8708:8728  return x < y ? x : y */\n      swap1\n      pop\n        /* \"DexContract.sol\":8640:8735  function min(uint x, uint y) internal pure returns (uint) {... */\n      swap3\n      swap2\n      pop\n      pop\n      jump\t// out\n        /* \"#utility.yul\":7:84   */\n    tag_332:\n        /* \"#utility.yul\":44:51   */\n      0x00\n        /* \"#utility.yul\":73:78   */\n      dup2\n        /* \"#utility.yul\":62:78   */\n      swap1\n      pop\n        /* \"#utility.yul\":7:84   */\n      swap2\n      swap1\n      pop\n      jump\t// out\n        /* \"#utility.yul\":90:208   */\n    tag_333:\n        /* \"#utility.yul\":177:201   */\n      tag_410\n        /* \"#utility.yul\":195:200   */\n      dup2\n        /* \"#utility.yul\":177:201   */\n      tag_332\n      jump\t// in\n    tag_410:\n        /* \"#utility.yul\":172:175   */\n      dup3\n        /* \"#utility.yul\":165:202   */\n      mstore\n        /* \"#utility.yul\":90:208   */\n      pop\n      pop\n      jump\t// out\n        /* \"#utility.yul\":214:436   */\n    tag_23:\n        /* \"#utility.yul\":307:311   */\n      0x00\n        /* \"#utility.yul\":345:347   */\n      0x20\n        /* \"#utility.yul\":334:343   */\n      dup3\n        /* \"#utility.yul\":330:348   */\n      add\n        /* \"#utility.yul\":322:348   */\n      swap1\n      pop\n        /* \"#utility.yul\":358:429   */\n      tag_412\n        /* \"#utility.yul\":426:427   */\n      0x00\n        /* \"#utility.yul\":415:424   */\n      dup4\n        /* \"#utility.yul\":411:428   */\n      add\n        /* \"#utility.yul\":402:408   */\n      dup5\n        /* \"#utility.yul\":358:429   */\n      tag_333\n      jump\t// in\n    tag_412:\n        /* \"#utility.yul\":214:436   */\n      swap3\n      swap2\n      pop\n      pop\n      jump\t// out\n        /* \"#utility.yul\":442:610   */\n    tag_334:\n        /* \"#utility.yul\":525:536   */\n      0x00\n        /* \"#utility.yul\":559:565   */\n      dup3\n        /* \"#utility.yul\":554:557   */\n      dup3\n        /* \"#utility.yul\":547:566   */\n      mstore\n        /* \"#utility.yul\":599:603   */\n      0x20\n        /* \"#utility.yul\":594:597   */\n      dup3\n        /* \"#utility.yul\":590:604   */\n      add\n        /* \"#utility.yul\":575:604   */\n      swap1\n      pop\n        /* \"#utility.yul\":442:610   */\n      swap3\n      swap2\n      pop\n      pop\n      jump\t// out\n        /* \"#utility.yul\":616:764   */\n    tag_335:\n        /* \"#utility.yul\":714:720   */\n      dup3\n        /* \"#utility.yul\":709:712   */\n      dup2\n        /* \"#utility.yul\":704:707   */\n      dup4\n        /* \"#utility.yul\":691:721   */\n      calldatacopy\n        /* \"#utility.yul\":755:756   */\n      0x00\n        /* \"#utility.yul\":746:752   */\n      dup4\n        /* \"#utility.yul\":741:744   */\n      dup4\n        /* \"#utility.yul\":737:753   */\n      add\n        /* \"#utility.yul\":730:757   */\n      mstore\n        /* \"#utility.yul\":616:764   */\n      pop\n      pop\n      pop\n      jump\t// out\n        /* \"#utility.yul\":770:872   */\n    tag_336:\n        /* \"#utility.yul\":811:817   */\n      0x00\n        /* \"#utility.yul\":862:864   */\n      0x1f\n        /* \"#utility.yul\":858:865   */\n      not\n        /* \"#utility.yul\":853:855   */\n      0x1f\n        /* \"#utility.yul\":846:851   */\n      dup4\n        /* \"#utility.yul\":842:856   */\n      add\n        /* \"#utility.yul\":838:866   */\n      and\n        /* \"#utility.yul\":828:866   */\n      swap1\n      pop\n        /* \"#utility.yul\":770:872   */\n      swap2\n      swap1\n      pop\n      jump\t// out\n        /* \"#utility.yul\":900:1214   */\n    tag_337:\n        /* \"#utility.yul\":996:999   */\n      0x00\n        /* \"#utility.yul\":1017:1087   */\n      tag_417\n        /* \"#utility.yul\":1080:1086   */\n      dup4\n        /* \"#utility.yul\":1075:1078   */\n      dup6\n        /* \"#utility.yul\":1017:1087   */\n      tag_334\n      jump\t// in\n    tag_417:\n        /* \"#utility.yul\":1010:1087   */\n      swap4\n      pop\n        /* \"#utility.yul\":1097:1153   */\n      tag_418\n        /* \"#utility.yul\":1146:1152   */\n      dup4\n        /* \"#utility.yul\":1141:1144   */\n      dup6\n        /* \"#utility.yul\":1134:1139   */\n      dup5\n        /* \"#utility.yul\":1097:1153   */\n      tag_335\n      jump\t// in\n    tag_418:\n        /* \"#utility.yul\":1178:1207   */\n      tag_419\n        /* \"#utility.yul\":1200:1206   */\n      dup4\n        /* \"#utility.yul\":1178:1207   */\n      tag_336\n      jump\t// in\n    tag_419:\n        /* \"#utility.yul\":1173:1176   */\n      dup5\n        /* \"#utility.yul\":1169:1208   */\n      add\n        /* \"#utility.yul\":1162:1208   */\n      swap1\n      pop\n        /* \"#utility.yul\":900:1214   */\n      swap4\n      swap3\n      pop\n      pop\n      pop\n      jump\t// out\n        /* \"#utility.yul\":1220:1659   */\n    tag_27:\n        /* \"#utility.yul\":1369:1373   */\n      0x00\n        /* \"#utility.yul\":1407:1409   */\n      0x40\n        /* \"#utility.yul\":1396:1405   */\n      dup3\n        /* \"#utility.yul\":1392:1410   */\n      add\n        /* \"#utility.yul\":1384:1410   */\n      swap1\n      pop\n        /* \"#utility.yul\":1420:1491   */\n      tag_421\n        /* \"#utility.yul\":1488:1489   */\n      0x00\n        /* \"#utility.yul\":1477:1486   */\n      dup4\n        /* \"#utility.yul\":1473:1490   */\n      add\n        /* \"#utility.yul\":1464:1470   */\n      dup7\n        /* \"#utility.yul\":1420:1491   */\n      tag_333\n      jump\t// in\n    tag_421:\n        /* \"#utility.yul\":1538:1547   */\n      dup2\n        /* \"#utility.yul\":1532:1536   */\n      dup2\n        /* \"#utility.yul\":1528:1548   */\n      sub\n        /* \"#utility.yul\":1523:1525   */\n      0x20\n        /* \"#utility.yul\":1512:1521   */\n      dup4\n        /* \"#utility.yul\":1508:1526   */\n      add\n        /* \"#utility.yul\":1501:1549   */\n      mstore\n        /* \"#utility.yul\":1566:1652   */\n      tag_422\n        /* \"#utility.yul\":1647:1651   */\n      dup2\n        /* \"#utility.yul\":1638:1644   */\n      dup5\n        /* \"#utility.yul\":1630:1636   */\n      dup7\n        /* \"#utility.yul\":1566:1652   */\n      tag_337\n      jump\t// in\n    tag_422:\n        /* \"#utility.yul\":1558:1652   */\n      swap1\n      pop\n        /* \"#utility.yul\":1220:1659   */\n      swap5\n      swap4\n      pop\n      pop\n      pop\n      pop\n      jump\t// out\n        /* \"#utility.yul\":1665:1791   */\n    tag_338:\n        /* \"#utility.yul\":1702:1709   */\n      0x00\n        /* \"#utility.yul\":1742:1784   */\n      0xffffffffffffffffffffffffffffffffffffffff\n        /* \"#utility.yul\":1735:1740   */\n      dup3\n        /* \"#utility.yul\":1731:1785   */\n      and\n        /* \"#utility.yul\":1720:1785   */\n      swap1\n      pop\n        /* \"#utility.yul\":1665:1791   */\n      swap2\n      swap1\n      pop\n      jump\t// out\n        /* \"#utility.yul\":1797:1857   */\n    tag_339:\n        /* \"#utility.yul\":1825:1828   */\n      0x00\n        /* \"#utility.yul\":1846:1851   */\n      dup2\n        /* \"#utility.yul\":1839:1851   */\n      swap1\n      pop\n        /* \"#utility.yul\":1797:1857   */\n      swap2\n      swap1\n      pop\n      jump\t// out\n        /* \"#utility.yul\":1863:2005   */\n    tag_340:\n        /* \"#utility.yul\":1913:1922   */\n      0x00\n        /* \"#utility.yul\":1946:1999   */\n      tag_426\n        /* \"#utility.yul\":1964:1998   */\n      tag_427\n        /* \"#utility.yul\":1973:1997   */\n      tag_428\n        /* \"#utility.yul\":1991:1996   */\n      dup5\n        /* \"#utility.yul\":1973:1997   */\n      tag_338\n      jump\t// in\n    tag_428:\n        /* \"#utility.yul\":1964:1998   */\n      tag_339\n      jump\t// in\n    tag_427:\n        /* \"#utility.yul\":1946:1999   */\n      tag_338\n      jump\t// in\n    tag_426:\n        /* \"#utility.yul\":1933:1999   */\n      swap1\n      pop\n        /* \"#utility.yul\":1863:2005   */\n      swap2\n      swap1\n      pop\n      jump\t// out\n        /* \"#utility.yul\":2011:2137   */\n    tag_341:\n        /* \"#utility.yul\":2061:2070   */\n      0x00\n        /* \"#utility.yul\":2094:2131   */\n      tag_430\n        /* \"#utility.yul\":2125:2130   */\n      dup3\n        /* \"#utility.yul\":2094:2131   */\n      tag_340\n      jump\t// in\n    tag_430:\n        /* \"#utility.yul\":2081:2131   */\n      swap1\n      pop\n        /* \"#utility.yul\":2011:2137   */\n      swap2\n      swap1\n      pop\n      jump\t// out\n        /* \"#utility.yul\":2143:2282   */\n    tag_342:\n        /* \"#utility.yul\":2206:2215   */\n      0x00\n        /* \"#utility.yul\":2239:2276   */\n      tag_432\n        /* \"#utility.yul\":2270:2275   */\n      dup3\n        /* \"#utility.yul\":2239:2276   */\n      tag_341\n      jump\t// in\n    tag_432:\n        /* \"#utility.yul\":2226:2276   */\n      swap1\n      pop\n        /* \"#utility.yul\":2143:2282   */\n      swap2\n      swap1\n      pop\n      jump\t// out\n        /* \"#utility.yul\":2288:2445   */\n    tag_343:\n        /* \"#utility.yul\":2388:2438   */\n      tag_434\n        /* \"#utility.yul\":2432:2437   */\n      dup2\n        /* \"#utility.yul\":2388:2438   */\n      tag_342\n      jump\t// in\n    tag_434:\n        /* \"#utility.yul\":2383:2386   */\n      dup3\n        /* \"#utility.yul\":2376:2439   */\n      mstore\n        /* \"#utility.yul\":2288:2445   */\n      pop\n      pop\n      jump\t// out\n        /* \"#utility.yul\":2451:2699   */\n    tag_32:\n        /* \"#utility.yul\":2557:2561   */\n      0x00\n        /* \"#utility.yul\":2595:2597   */\n      0x20\n        /* \"#utility.yul\":2584:2593   */\n      dup3\n        /* \"#utility.yul\":2580:2598   */\n      add\n        /* \"#utility.yul\":2572:2598   */\n      swap1\n      pop\n        /* \"#utility.yul\":2608:2692   */\n      tag_436\n        /* \"#utility.yul\":2689:2690   */\n      0x00\n        /* \"#utility.yul\":2678:2687   */\n      dup4\n        /* \"#utility.yul\":2674:2691   */\n      add\n        /* \"#utility.yul\":2665:2671   */\n      dup5\n        /* \"#utility.yul\":2608:2692   */\n      tag_343\n      jump\t// in\n    tag_436:\n        /* \"#utility.yul\":2451:2699   */\n      swap3\n      swap2\n      pop\n      pop\n      jump\t// out\n        /* \"#utility.yul\":2786:2903   */\n    tag_345:\n        /* \"#utility.yul\":2895:2896   */\n      0x00\n        /* \"#utility.yul\":2892:2893   */\n      0x00\n        /* \"#utility.yul\":2885:2897   */\n      revert\n        /* \"#utility.yul\":3032:3154   */\n    tag_347:\n        /* \"#utility.yul\":3105:3129   */\n      tag_441\n        /* \"#utility.yul\":3123:3128   */\n      dup2\n        /* \"#utility.yul\":3105:3129   */\n      tag_332\n      jump\t// in\n    tag_441:\n        /* \"#utility.yul\":3098:3103   */\n      dup2\n        /* \"#utility.yul\":3095:3130   */\n      eq\n        /* \"#utility.yul\":3085:3148   */\n      tag_442\n      jumpi\n        /* \"#utility.yul\":3144:3145   */\n      0x00\n        /* \"#utility.yul\":3141:3142   */\n      0x00\n        /* \"#utility.yul\":3134:3146   */\n      revert\n        /* \"#utility.yul\":3085:3148   */\n    tag_442:\n        /* \"#utility.yul\":3032:3154   */\n      pop\n      jump\t// out\n        /* \"#utility.yul\":3160:3299   */\n    tag_348:\n        /* \"#utility.yul\":3206:3211   */\n      0x00\n        /* \"#utility.yul\":3244:3250   */\n      dup2\n        /* \"#utility.yul\":3231:3251   */\n      calldataload\n        /* \"#utility.yul\":3222:3251   */\n      swap1\n      pop\n        /* \"#utility.yul\":3260:3293   */\n      tag_444\n        /* \"#utility.yul\":3287:3292   */\n      dup2\n        /* \"#utility.yul\":3260:3293   */\n      tag_347\n      jump\t// in\n    tag_444:\n        /* \"#utility.yul\":3160:3299   */\n      swap3\n      swap2\n      pop\n      pop\n      jump\t// out\n        /* \"#utility.yul\":3305:3634   */\n    tag_43:\n        /* \"#utility.yul\":3364:3370   */\n      0x00\n        /* \"#utility.yul\":3413:3415   */\n      0x20\n        /* \"#utility.yul\":3401:3410   */\n      dup3\n        /* \"#utility.yul\":3392:3399   */\n      dup5\n        /* \"#utility.yul\":3388:3411   */\n      sub\n        /* \"#utility.yul\":3384:3416   */\n      slt\n        /* \"#utility.yul\":3381:3500   */\n      iszero\n      tag_446\n      jumpi\n        /* \"#utility.yul\":3419:3498   */\n      tag_447\n      tag_345\n      jump\t// in\n    tag_447:\n        /* \"#utility.yul\":3381:3500   */\n    tag_446:\n        /* \"#utility.yul\":3539:3540   */\n      0x00\n        /* \"#utility.yul\":3564:3617   */\n      tag_448\n        /* \"#utility.yul\":3609:3616   */\n      dup5\n        /* \"#utility.yul\":3600:3606   */\n      dup3\n        /* \"#utility.yul\":3589:3598   */\n      dup6\n        /* \"#utility.yul\":3585:3607   */\n      add\n        /* \"#utility.yul\":3564:3617   */\n      tag_348\n      jump\t// in\n    tag_448:\n        /* \"#utility.yul\":3554:3617   */\n      swap2\n      pop\n        /* \"#utility.yul\":3510:3627   */\n      pop\n        /* \"#utility.yul\":3305:3634   */\n      swap3\n      swap2\n      pop\n      pop\n      jump\t// out\n        /* \"#utility.yul\":3640:3972   */\n    tag_55:\n        /* \"#utility.yul\":3761:3765   */\n      0x00\n        /* \"#utility.yul\":3799:3801   */\n      0x40\n        /* \"#utility.yul\":3788:3797   */\n      dup3\n        /* \"#utility.yul\":3784:3802   */\n      add\n        /* \"#utility.yul\":3776:3802   */\n      swap1\n      pop\n        /* \"#utility.yul\":3812:3883   */\n      tag_450\n        /* \"#utility.yul\":3880:3881   */\n      0x00\n        /* \"#utility.yul\":3869:3878   */\n      dup4\n        /* \"#utility.yul\":3865:3882   */\n      add\n        /* \"#utility.yul\":3856:3862   */\n      dup6\n        /* \"#utility.yul\":3812:3883   */\n      tag_333\n      jump\t// in\n    tag_450:\n        /* \"#utility.yul\":3893:3965   */\n      tag_451\n        /* \"#utility.yul\":3961:3963   */\n      0x20\n        /* \"#utility.yul\":3950:3959   */\n      dup4\n        /* \"#utility.yul\":3946:3964   */\n      add\n        /* \"#utility.yul\":3937:3943   */\n      dup5\n        /* \"#utility.yul\":3893:3965   */\n      tag_333\n      jump\t// in\n    tag_451:\n        /* \"#utility.yul\":3640:3972   */\n      swap4\n      swap3\n      pop\n      pop\n      pop\n      jump\t// out\n        /* \"#utility.yul\":3978:4452   */\n    tag_59:\n        /* \"#utility.yul\":4046:4052   */\n      0x00\n        /* \"#utility.yul\":4054:4060   */\n      0x00\n        /* \"#utility.yul\":4103:4105   */\n      0x40\n        /* \"#utility.yul\":4091:4100   */\n      dup4\n        /* \"#utility.yul\":4082:4089   */\n      dup6\n        /* \"#utility.yul\":4078:4101   */\n      sub\n        /* \"#utility.yul\":4074:4106   */\n      slt\n        /* \"#utility.yul\":4071:4190   */\n      iszero\n      tag_453\n      jumpi\n        /* \"#utility.yul\":4109:4188   */\n      tag_454\n      tag_345\n      jump\t// in\n    tag_454:\n        /* \"#utility.yul\":4071:4190   */\n    tag_453:\n        /* \"#utility.yul\":4229:4230   */\n      0x00\n        /* \"#utility.yul\":4254:4307   */\n      tag_455\n        /* \"#utility.yul\":4299:4306   */\n      dup6\n        /* \"#utility.yul\":4290:4296   */\n      dup3\n        /* \"#utility.yul\":4279:4288   */\n      dup7\n        /* \"#utility.yul\":4275:4297   */\n      add\n        /* \"#utility.yul\":4254:4307   */\n      tag_348\n      jump\t// in\n    tag_455:\n        /* \"#utility.yul\":4244:4307   */\n      swap3\n      pop\n        /* \"#utility.yul\":4200:4317   */\n      pop\n        /* \"#utility.yul\":4356:4358   */\n      0x20\n        /* \"#utility.yul\":4382:4435   */\n      tag_456\n        /* \"#utility.yul\":4427:4434   */\n      dup6\n        /* \"#utility.yul\":4418:4424   */\n      dup3\n        /* \"#utility.yul\":4407:4416   */\n      dup7\n        /* \"#utility.yul\":4403:4425   */\n      add\n        /* \"#utility.yul\":4382:4435   */\n      tag_348\n      jump\t// in\n    tag_456:\n        /* \"#utility.yul\":4372:4435   */\n      swap2\n      pop\n        /* \"#utility.yul\":4327:4445   */\n      pop\n        /* \"#utility.yul\":3978:4452   */\n      swap3\n      pop\n      swap3\n      swap1\n      pop\n      jump\t// out\n        /* \"#utility.yul\":4458:4554   */\n    tag_349:\n        /* \"#utility.yul\":4495:4502   */\n      0x00\n        /* \"#utility.yul\":4524:4548   */\n      tag_458\n        /* \"#utility.yul\":4542:4547   */\n      dup3\n        /* \"#utility.yul\":4524:4548   */\n      tag_338\n      jump\t// in\n    tag_458:\n        /* \"#utility.yul\":4513:4548   */\n      swap1\n      pop\n        /* \"#utility.yul\":4458:4554   */\n      swap2\n      swap1\n      pop\n      jump\t// out\n        /* \"#utility.yul\":4560:4682   */\n    tag_350:\n        /* \"#utility.yul\":4633:4657   */\n      tag_460\n        /* \"#utility.yul\":4651:4656   */\n      dup2\n        /* \"#utility.yul\":4633:4657   */\n      tag_349\n      jump\t// in\n    tag_460:\n        /* \"#utility.yul\":4626:4631   */\n      dup2\n        /* \"#utility.yul\":4623:4658   */\n      eq\n        /* \"#utility.yul\":4613:4676   */\n      tag_461\n      jumpi\n        /* \"#utility.yul\":4672:4673   */\n      0x00\n        /* \"#utility.yul\":4669:4670   */\n      0x00\n        /* \"#utility.yul\":4662:4674   */\n      revert\n        /* \"#utility.yul\":4613:4676   */\n    tag_461:\n        /* \"#utility.yul\":4560:4682   */\n      pop\n      jump\t// out\n        /* \"#utility.yul\":4688:4827   */\n    tag_351:\n        /* \"#utility.yul\":4734:4739   */\n      0x00\n        /* \"#utility.yul\":4772:4778   */\n      dup2\n        /* \"#utility.yul\":4759:4779   */\n      calldataload\n        /* \"#utility.yul\":4750:4779   */\n      swap1\n      pop\n        /* \"#utility.yul\":4788:4821   */\n      tag_463\n        /* \"#utility.yul\":4815:4820   */\n      dup2\n        /* \"#utility.yul\":4788:4821   */\n      tag_350\n      jump\t// in\n    tag_463:\n        /* \"#utility.yul\":4688:4827   */\n      swap3\n      swap2\n      pop\n      pop\n      jump\t// out\n        /* \"#utility.yul\":4833:5452   */\n    tag_65:\n        /* \"#utility.yul\":4910:4916   */\n      0x00\n        /* \"#utility.yul\":4918:4924   */\n      0x00\n        /* \"#utility.yul\":4926:4932   */\n      0x00\n        /* \"#utility.yul\":4975:4977   */\n      0x60\n        /* \"#utility.yul\":4963:4972   */\n      dup5\n        /* \"#utility.yul\":4954:4961   */\n      dup7\n        /* \"#utility.yul\":4950:4973   */\n      sub\n        /* \"#utility.yul\":4946:4978   */\n      slt\n        /* \"#utility.yul\":4943:5062   */\n      iszero\n      tag_465\n      jumpi\n        /* \"#utility.yul\":4981:5060   */\n      tag_466\n      tag_345\n      jump\t// in\n    tag_466:\n        /* \"#utility.yul\":4943:5062   */\n    tag_465:\n        /* \"#utility.yul\":5101:5102   */\n      0x00\n        /* \"#utility.yul\":5126:5179   */\n      tag_467\n        /* \"#utility.yul\":5171:5178   */\n      dup7\n        /* \"#utility.yul\":5162:5168   */\n      dup3\n        /* \"#utility.yul\":5151:5160   */\n      dup8\n        /* \"#utility.yul\":5147:5169   */\n      add\n        /* \"#utility.yul\":5126:5179   */\n      tag_351\n      jump\t// in\n    tag_467:\n        /* \"#utility.yul\":5116:5179   */\n      swap4\n      pop\n        /* \"#utility.yul\":5072:5189   */\n      pop\n        /* \"#utility.yul\":5228:5230   */\n      0x20\n        /* \"#utility.yul\":5254:5307   */\n      tag_468\n        /* \"#utility.yul\":5299:5306   */\n      dup7\n        /* \"#utility.yul\":5290:5296   */\n      dup3\n        /* \"#utility.yul\":5279:5288   */\n      dup8\n        /* \"#utility.yul\":5275:5297   */\n      add\n        /* \"#utility.yul\":5254:5307   */\n      tag_348\n      jump\t// in\n    tag_468:\n        /* \"#utility.yul\":5244:5307   */\n      swap3\n      pop\n        /* \"#utility.yul\":5199:5317   */\n      pop\n        /* \"#utility.yul\":5356:5358   */\n      0x40\n        /* \"#utility.yul\":5382:5435   */\n      tag_469\n        /* \"#utility.yul\":5427:5434   */\n      dup7\n        /* \"#utility.yul\":5418:5424   */\n      dup3\n        /* \"#utility.yul\":5407:5416   */\n      dup8\n        /* \"#utility.yul\":5403:5425   */\n      add\n        /* \"#utility.yul\":5382:5435   */\n      tag_348\n      jump\t// in\n    tag_469:\n        /* \"#utility.yul\":5372:5435   */\n      swap2\n      pop\n        /* \"#utility.yul\":5327:5445   */\n      pop\n        /* \"#utility.yul\":4833:5452   */\n      swap3\n      pop\n      swap3\n      pop\n      swap3\n      jump\t// out\n        /* \"#utility.yul\":5458:5596   */\n    tag_352:\n        /* \"#utility.yul\":5520:5529   */\n      0x00\n        /* \"#utility.yul\":5553:5590   */\n      tag_471\n        /* \"#utility.yul\":5584:5589   */\n      dup3\n        /* \"#utility.yul\":5553:5590   */\n      tag_341\n      jump\t// in\n    tag_471:\n        /* \"#utility.yul\":5540:5590   */\n      swap1\n      pop\n        /* \"#utility.yul\":5458:5596   */\n      swap2\n      swap1\n      pop\n      jump\t// out\n        /* \"#utility.yul\":5602:5757   */\n    tag_353:\n        /* \"#utility.yul\":5701:5750   */\n      tag_473\n        /* \"#utility.yul\":5744:5749   */\n      dup2\n        /* \"#utility.yul\":5701:5750   */\n      tag_352\n      jump\t// in\n    tag_473:\n        /* \"#utility.yul\":5696:5699   */\n      dup3\n        /* \"#utility.yul\":5689:5751   */\n      mstore\n        /* \"#utility.yul\":5602:5757   */\n      pop\n      pop\n      jump\t// out\n        /* \"#utility.yul\":5763:6009   */\n    tag_72:\n        /* \"#utility.yul\":5868:5872   */\n      0x00\n        /* \"#utility.yul\":5906:5908   */\n      0x20\n        /* \"#utility.yul\":5895:5904   */\n      dup3\n        /* \"#utility.yul\":5891:5909   */\n      add\n        /* \"#utility.yul\":5883:5909   */\n      swap1\n      pop\n        /* \"#utility.yul\":5919:6002   */\n      tag_475\n        /* \"#utility.yul\":5999:6000   */\n      0x00\n        /* \"#utility.yul\":5988:5997   */\n      dup4\n        /* \"#utility.yul\":5984:6001   */\n      add\n        /* \"#utility.yul\":5975:5981   */\n      dup5\n        /* \"#utility.yul\":5919:6002   */\n      tag_353\n      jump\t// in\n    tag_475:\n        /* \"#utility.yul\":5763:6009   */\n      swap3\n      swap2\n      pop\n      pop\n      jump\t// out\n        /* \"#utility.yul\":6015:6344   */\n    tag_81:\n        /* \"#utility.yul\":6074:6080   */\n      0x00\n        /* \"#utility.yul\":6123:6125   */\n      0x20\n        /* \"#utility.yul\":6111:6120   */\n      dup3\n        /* \"#utility.yul\":6102:6109   */\n      dup5\n        /* \"#utility.yul\":6098:6121   */\n      sub\n        /* \"#utility.yul\":6094:6126   */\n      slt\n        /* \"#utility.yul\":6091:6210   */\n      iszero\n      tag_477\n      jumpi\n        /* \"#utility.yul\":6129:6208   */\n      tag_478\n      tag_345\n      jump\t// in\n    tag_478:\n        /* \"#utility.yul\":6091:6210   */\n    tag_477:\n        /* \"#utility.yul\":6249:6250   */\n      0x00\n        /* \"#utility.yul\":6274:6327   */\n      tag_479\n        /* \"#utility.yul\":6319:6326   */\n      dup5\n        /* \"#utility.yul\":6310:6316   */\n      dup3\n        /* \"#utility.yul\":6299:6308   */\n      dup6\n        /* \"#utility.yul\":6295:6317   */\n      add\n        /* \"#utility.yul\":6274:6327   */\n      tag_351\n      jump\t// in\n    tag_479:\n        /* \"#utility.yul\":6264:6327   */\n      swap2\n      pop\n        /* \"#utility.yul\":6220:6337   */\n      pop\n        /* \"#utility.yul\":6015:6344   */\n      swap3\n      swap2\n      pop\n      pop\n      jump\t// out\n        /* \"#utility.yul\":6350:6519   */\n    tag_354:\n        /* \"#utility.yul\":6434:6445   */\n      0x00\n        /* \"#utility.yul\":6468:6474   */\n      dup3\n        /* \"#utility.yul\":6463:6466   */\n      dup3\n        /* \"#utility.yul\":6456:6475   */\n      mstore\n        /* \"#utility.yul\":6508:6512   */\n      0x20\n        /* \"#utility.yul\":6503:6506   */\n      dup3\n        /* \"#utility.yul\":6499:6513   */\n      add\n        /* \"#utility.yul\":6484:6513   */\n      swap1\n      pop\n        /* \"#utility.yul\":6350:6519   */\n      swap3\n      swap2\n      pop\n      pop\n      jump\t// out\n        /* \"#utility.yul\":6525:6691   */\n    tag_355:\n        /* \"#utility.yul\":6665:6683   */\n      0x57455448206e6f7420696e207061697200000000000000000000000000000000\n        /* \"#utility.yul\":6661:6662   */\n      0x00\n        /* \"#utility.yul\":6653:6659   */\n      dup3\n        /* \"#utility.yul\":6649:6663   */\n      add\n        /* \"#utility.yul\":6642:6684   */\n      mstore\n        /* \"#utility.yul\":6525:6691   */\n      pop\n      jump\t// out\n        /* \"#utility.yul\":6697:7063   */\n    tag_356:\n        /* \"#utility.yul\":6839:6842   */\n      0x00\n        /* \"#utility.yul\":6860:6927   */\n      tag_483\n        /* \"#utility.yul\":6924:6926   */\n      0x10\n        /* \"#utility.yul\":6919:6922   */\n      dup4\n        /* \"#utility.yul\":6860:6927   */\n      tag_354\n      jump\t// in\n    tag_483:\n        /* \"#utility.yul\":6853:6927   */\n      swap2\n      pop\n        /* \"#utility.yul\":6936:7029   */\n      tag_484\n        /* \"#utility.yul\":7025:7028   */\n      dup3\n        /* \"#utility.yul\":6936:7029   */\n      tag_355\n      jump\t// in\n    tag_484:\n        /* \"#utility.yul\":7054:7056   */\n      0x20\n        /* \"#utility.yul\":7049:7052   */\n      dup3\n        /* \"#utility.yul\":7045:7057   */\n      add\n        /* \"#utility.yul\":7038:7057   */\n      swap1\n      pop\n        /* \"#utility.yul\":6697:7063   */\n      swap2\n      swap1\n      pop\n      jump\t// out\n        /* \"#utility.yul\":7069:7488   */\n    tag_100:\n        /* \"#utility.yul\":7235:7239   */\n      0x00\n        /* \"#utility.yul\":7273:7275   */\n      0x20\n        /* \"#utility.yul\":7262:7271   */\n      dup3\n        /* \"#utility.yul\":7258:7276   */\n      add\n        /* \"#utility.yul\":7250:7276   */\n      swap1\n      pop\n        /* \"#utility.yul\":7322:7331   */\n      dup2\n        /* \"#utility.yul\":7316:7320   */\n      dup2\n        /* \"#utility.yul\":7312:7332   */\n      sub\n        /* \"#utility.yul\":7308:7309   */\n      0x00\n        /* \"#utility.yul\":7297:7306   */\n      dup4\n        /* \"#utility.yul\":7293:7310   */\n      add\n        /* \"#utility.yul\":7286:7333   */\n      mstore\n        /* \"#utility.yul\":7350:7481   */\n      tag_486\n        /* \"#utility.yul\":7476:7480   */\n      dup2\n        /* \"#utility.yul\":7350:7481   */\n      tag_356\n      jump\t// in\n    tag_486:\n        /* \"#utility.yul\":7342:7481   */\n      swap1\n      pop\n        /* \"#utility.yul\":7069:7488   */\n      swap2\n      swap1\n      pop\n      jump\t// out\n        /* \"#utility.yul\":7494:7657   */\n    tag_357:\n        /* \"#utility.yul\":7634:7649   */\n      0x4d7573742073656e642045544800000000000000000000000000000000000000\n        /* \"#utility.yul\":7630:7631   */\n      0x00\n        /* \"#utility.yul\":7622:7628   */\n      dup3\n        /* \"#utility.yul\":7618:7632   */\n      add\n        /* \"#utility.yul\":7611:7650   */\n      mstore\n        /* \"#utility.yul\":7494:7657   */\n      pop\n      jump\t// out\n        /* \"#utility.yul\":7663:8029   */\n    tag_358:\n        /* \"#utility.yul\":7805:7808   */\n      0x00\n        /* \"#utility.yul\":7826:7893   */\n      tag_489\n        /* \"#utility.yul\":7890:7892   */\n      0x0d\n        /* \"#utility.yul\":7885:7888   */\n      dup4\n        /* \"#utility.yul\":7826:7893   */\n      tag_354\n      jump\t// in\n    tag_489:\n        /* \"#utility.yul\":7819:7893   */\n      swap2\n      pop\n        /* \"#utility.yul\":7902:7995   */\n      tag_490\n        /* \"#utility.yul\":7991:7994   */\n      dup3\n        /* \"#utility.yul\":7902:7995   */\n      tag_357\n      jump\t// in\n    tag_490:\n        /* \"#utility.yul\":8020:8022   */\n      0x20\n        /* \"#utility.yul\":8015:8018   */\n      dup3\n        /* \"#utility.yul\":8011:8023   */\n      add\n        /* \"#utility.yul\":8004:8023   */\n      swap1\n      pop\n        /* \"#utility.yul\":7663:8029   */\n      swap2\n      swap1\n      pop\n      jump\t// out\n        /* \"#utility.yul\":8035:8454   */\n    tag_103:\n        /* \"#utility.yul\":8201:8205   */\n      0x00\n        /* \"#utility.yul\":8239:8241   */\n      0x20\n        /* \"#utility.yul\":8228:8237   */\n      dup3\n        /* \"#utility.yul\":8224:8242   */\n      add\n        /* \"#utility.yul\":8216:8242   */\n      swap1\n      pop\n        /* \"#utility.yul\":8288:8297   */\n      dup2\n        /* \"#utility.yul\":8282:8286   */\n      dup2\n        /* \"#utility.yul\":8278:8298   */\n      sub\n        /* \"#utility.yul\":8274:8275   */\n      0x00\n        /* \"#utility.yul\":8263:8272   */\n      dup4\n        /* \"#utility.yul\":8259:8276   */\n      add\n        /* \"#utility.yul\":8252:8299   */\n      mstore\n        /* \"#utility.yul\":8316:8447   */\n      tag_492\n        /* \"#utility.yul\":8442:8446   */\n      dup2\n        /* \"#utility.yul\":8316:8447   */\n      tag_358\n      jump\t// in\n    tag_492:\n        /* \"#utility.yul\":8308:8447   */\n      swap1\n      pop\n        /* \"#utility.yul\":8035:8454   */\n      swap2\n      swap1\n      pop\n      jump\t// out\n        /* \"#utility.yul\":8460:8640   */\n    tag_359:\n        /* \"#utility.yul\":8508:8585   */\n      0x4e487b7100000000000000000000000000000000000000000000000000000000\n        /* \"#utility.yul\":8505:8506   */\n      0x00\n        /* \"#utility.yul\":8498:8586   */\n      mstore\n        /* \"#utility.yul\":8605:8609   */\n      0x11\n        /* \"#utility.yul\":8602:8603   */\n      0x04\n        /* \"#utility.yul\":8595:8610   */\n      mstore\n        /* \"#utility.yul\":8629:8633   */\n      0x24\n        /* \"#utility.yul\":8626:8627   */\n      0x00\n        /* \"#utility.yul\":8619:8634   */\n      revert\n        /* \"#utility.yul\":8646:8840   */\n    tag_112:\n        /* \"#utility.yul\":8686:8690   */\n      0x00\n        /* \"#utility.yul\":8706:8726   */\n      tag_495\n        /* \"#utility.yul\":8724:8725   */\n      dup3\n        /* \"#utility.yul\":8706:8726   */\n      tag_332\n      jump\t// in\n    tag_495:\n        /* \"#utility.yul\":8701:8726   */\n      swap2\n      pop\n        /* \"#utility.yul\":8740:8760   */\n      tag_496\n        /* \"#utility.yul\":8758:8759   */\n      dup4\n        /* \"#utility.yul\":8740:8760   */\n      tag_332\n      jump\t// in\n    tag_496:\n        /* \"#utility.yul\":8735:8760   */\n      swap3\n      pop\n        /* \"#utility.yul\":8784:8785   */\n      dup3\n        /* \"#utility.yul\":8781:8782   */\n      dup3\n        /* \"#utility.yul\":8777:8786   */\n      sub\n        /* \"#utility.yul\":8769:8786   */\n      swap1\n      pop\n        /* \"#utility.yul\":8808:8809   */\n      dup2\n        /* \"#utility.yul\":8802:8806   */\n      dup2\n        /* \"#utility.yul\":8799:8810   */\n      gt\n        /* \"#utility.yul\":8796:8833   */\n      iszero\n      tag_497\n      jumpi\n        /* \"#utility.yul\":8813:8831   */\n      tag_498\n      tag_359\n      jump\t// in\n    tag_498:\n        /* \"#utility.yul\":8796:8833   */\n    tag_497:\n        /* \"#utility.yul\":8646:8840   */\n      swap3\n      swap2\n      pop\n      pop\n      jump\t// out\n        /* \"#utility.yul\":8846:9256   */\n    tag_114:\n        /* \"#utility.yul\":8886:8893   */\n      0x00\n        /* \"#utility.yul\":8909:8929   */\n      tag_500\n        /* \"#utility.yul\":8927:8928   */\n      dup3\n        /* \"#utility.yul\":8909:8929   */\n      tag_332\n      jump\t// in\n    tag_500:\n        /* \"#utility.yul\":8904:8929   */\n      swap2\n      pop\n        /* \"#utility.yul\":8943:8963   */\n      tag_501\n        /* \"#utility.yul\":8961:8962   */\n      dup4\n        /* \"#utility.yul\":8943:8963   */\n      tag_332\n      jump\t// in\n    tag_501:\n        /* \"#utility.yul\":8938:8963   */\n      swap3\n      pop\n        /* \"#utility.yul\":8998:8999   */\n      dup3\n        /* \"#utility.yul\":8995:8996   */\n      dup3\n        /* \"#utility.yul\":8991:9000   */\n      mul\n        /* \"#utility.yul\":9020:9050   */\n      tag_502\n        /* \"#utility.yul\":9038:9049   */\n      dup2\n        /* \"#utility.yul\":9020:9050   */\n      tag_332\n      jump\t// in\n    tag_502:\n        /* \"#utility.yul\":9009:9050   */\n      swap2\n      pop\n        /* \"#utility.yul\":9199:9200   */\n      dup3\n        /* \"#utility.yul\":9190:9197   */\n      dup3\n        /* \"#utility.yul\":9186:9201   */\n      div\n        /* \"#utility.yul\":9183:9184   */\n      dup5\n        /* \"#utility.yul\":9180:9202   */\n      eq\n        /* \"#utility.yul\":9160:9161   */\n      dup4\n        /* \"#utility.yul\":9153:9162   */\n      iszero\n        /* \"#utility.yul\":9133:9216   */\n      or\n        /* \"#utility.yul\":9110:9249   */\n      tag_503\n      jumpi\n        /* \"#utility.yul\":9229:9247   */\n      tag_504\n      tag_359\n      jump\t// in\n    tag_504:\n        /* \"#utility.yul\":9110:9249   */\n    tag_503:\n        /* \"#utility.yul\":8894:9256   */\n      pop\n        /* \"#utility.yul\":8846:9256   */\n      swap3\n      swap2\n      pop\n      pop\n      jump\t// out\n        /* \"#utility.yul\":9262:9442   */\n    tag_360:\n        /* \"#utility.yul\":9310:9387   */\n      0x4e487b7100000000000000000000000000000000000000000000000000000000\n        /* \"#utility.yul\":9307:9308   */\n      0x00\n        /* \"#utility.yul\":9300:9388   */\n      mstore\n        /* \"#utility.yul\":9407:9411   */\n      0x12\n        /* \"#utility.yul\":9404:9405   */\n      0x04\n        /* \"#utility.yul\":9397:9412   */\n      mstore\n        /* \"#utility.yul\":9431:9435   */\n      0x24\n        /* \"#utility.yul\":9428:9429   */\n      0x00\n        /* \"#utility.yul\":9421:9436   */\n      revert\n        /* \"#utility.yul\":9448:9633   */\n    tag_116:\n        /* \"#utility.yul\":9488:9489   */\n      0x00\n        /* \"#utility.yul\":9505:9525   */\n      tag_507\n        /* \"#utility.yul\":9523:9524   */\n      dup3\n        /* \"#utility.yul\":9505:9525   */\n      tag_332\n      jump\t// in\n    tag_507:\n        /* \"#utility.yul\":9500:9525   */\n      swap2\n      pop\n        /* \"#utility.yul\":9539:9559   */\n      tag_508\n        /* \"#utility.yul\":9557:9558   */\n      dup4\n        /* \"#utility.yul\":9539:9559   */\n      tag_332\n      jump\t// in\n    tag_508:\n        /* \"#utility.yul\":9534:9559   */\n      swap3\n      pop\n        /* \"#utility.yul\":9578:9579   */\n      dup3\n        /* \"#utility.yul\":9568:9603   */\n      tag_509\n      jumpi\n        /* \"#utility.yul\":9583:9601   */\n      tag_510\n      tag_360\n      jump\t// in\n    tag_510:\n        /* \"#utility.yul\":9568:9603   */\n    tag_509:\n        /* \"#utility.yul\":9625:9626   */\n      dup3\n        /* \"#utility.yul\":9622:9623   */\n      dup3\n        /* \"#utility.yul\":9618:9627   */\n      div\n        /* \"#utility.yul\":9613:9627   */\n      swap1\n      pop\n        /* \"#utility.yul\":9448:9633   */\n      swap3\n      swap2\n      pop\n      pop\n      jump\t// out\n        /* \"#utility.yul\":9639:9830   */\n    tag_118:\n        /* \"#utility.yul\":9679:9682   */\n      0x00\n        /* \"#utility.yul\":9698:9718   */\n      tag_512\n        /* \"#utility.yul\":9716:9717   */\n      dup3\n        /* \"#utility.yul\":9698:9718   */\n      tag_332\n      jump\t// in\n    tag_512:\n        /* \"#utility.yul\":9693:9718   */\n      swap2\n      pop\n        /* \"#utility.yul\":9732:9752   */\n      tag_513\n        /* \"#utility.yul\":9750:9751   */\n      dup4\n        /* \"#utility.yul\":9732:9752   */\n      tag_332\n      jump\t// in\n    tag_513:\n        /* \"#utility.yul\":9727:9752   */\n      swap3\n      pop\n        /* \"#utility.yul\":9775:9776   */\n      dup3\n        /* \"#utility.yul\":9772:9773   */\n      dup3\n        /* \"#utility.yul\":9768:9777   */\n      add\n        /* \"#utility.yul\":9761:9777   */\n      swap1\n      pop\n        /* \"#utility.yul\":9796:9799   */\n      dup1\n        /* \"#utility.yul\":9793:9794   */\n      dup3\n        /* \"#utility.yul\":9790:9800   */\n      gt\n        /* \"#utility.yul\":9787:9823   */\n      iszero\n      tag_514\n      jumpi\n        /* \"#utility.yul\":9803:9821   */\n      tag_515\n      tag_359\n      jump\t// in\n    tag_515:\n        /* \"#utility.yul\":9787:9823   */\n    tag_514:\n        /* \"#utility.yul\":9639:9830   */\n      swap3\n      swap2\n      pop\n      pop\n      jump\t// out\n        /* \"#utility.yul\":9836:10005   */\n    tag_361:\n        /* \"#utility.yul\":9976:9997   */\n      0x496e73756666696369656e74206f757470757400000000000000000000000000\n        /* \"#utility.yul\":9972:9973   */\n      0x00\n        /* \"#utility.yul\":9964:9970   */\n      dup3\n        /* \"#utility.yul\":9960:9974   */\n      add\n        /* \"#utility.yul\":9953:9998   */\n      mstore\n        /* \"#utility.yul\":9836:10005   */\n      pop\n      jump\t// out\n        /* \"#utility.yul\":10011:10377   */\n    tag_362:\n        /* \"#utility.yul\":10153:10156   */\n      0x00\n        /* \"#utility.yul\":10174:10241   */\n      tag_518\n        /* \"#utility.yul\":10238:10240   */\n      0x13\n        /* \"#utility.yul\":10233:10236   */\n      dup4\n        /* \"#utility.yul\":10174:10241   */\n      tag_354\n      jump\t// in\n    tag_518:\n        /* \"#utility.yul\":10167:10241   */\n      swap2\n      pop\n        /* \"#utility.yul\":10250:10343   */\n      tag_519\n        /* \"#utility.yul\":10339:10342   */\n      dup3\n        /* \"#utility.yul\":10250:10343   */\n      tag_361\n      jump\t// in\n    tag_519:\n        /* \"#utility.yul\":10368:10370   */\n      0x20\n        /* \"#utility.yul\":10363:10366   */\n      dup3\n        /* \"#utility.yul\":10359:10371   */\n      add\n        /* \"#utility.yul\":10352:10371   */\n      swap1\n      pop\n        /* \"#utility.yul\":10011:10377   */\n      swap2\n      swap1\n      pop\n      jump\t// out\n        /* \"#utility.yul\":10383:10802   */\n    tag_123:\n        /* \"#utility.yul\":10549:10553   */\n      0x00\n        /* \"#utility.yul\":10587:10589   */\n      0x20\n        /* \"#utility.yul\":10576:10585   */\n      dup3\n        /* \"#utility.yul\":10572:10590   */\n      add\n        /* \"#utility.yul\":10564:10590   */\n      swap1\n      pop\n        /* \"#utility.yul\":10636:10645   */\n      dup2\n        /* \"#utility.yul\":10630:10634   */\n      dup2\n        /* \"#utility.yul\":10626:10646   */\n      sub\n        /* \"#utility.yul\":10622:10623   */\n      0x00\n        /* \"#utility.yul\":10611:10620   */\n      dup4\n        /* \"#utility.yul\":10607:10624   */\n      add\n        /* \"#utility.yul\":10600:10647   */\n      mstore\n        /* \"#utility.yul\":10664:10795   */\n      tag_521\n        /* \"#utility.yul\":10790:10794   */\n      dup2\n        /* \"#utility.yul\":10664:10795   */\n      tag_362\n      jump\t// in\n    tag_521:\n        /* \"#utility.yul\":10656:10795   */\n      swap1\n      pop\n        /* \"#utility.yul\":10383:10802   */\n      swap2\n      swap1\n      pop\n      jump\t// out\n        /* \"#utility.yul\":10808:10926   */\n    tag_363:\n        /* \"#utility.yul\":10895:10919   */\n      tag_523\n        /* \"#utility.yul\":10913:10918   */\n      dup2\n        /* \"#utility.yul\":10895:10919   */\n      tag_349\n      jump\t// in\n    tag_523:\n        /* \"#utility.yul\":10890:10893   */\n      dup3\n        /* \"#utility.yul\":10883:10920   */\n      mstore\n        /* \"#utility.yul\":10808:10926   */\n      pop\n      pop\n      jump\t// out\n        /* \"#utility.yul\":10932:11264   */\n    tag_126:\n        /* \"#utility.yul\":11053:11057   */\n      0x00\n        /* \"#utility.yul\":11091:11093   */\n      0x40\n        /* \"#utility.yul\":11080:11089   */\n      dup3\n        /* \"#utility.yul\":11076:11094   */\n      add\n        /* \"#utility.yul\":11068:11094   */\n      swap1\n      pop\n        /* \"#utility.yul\":11104:11175   */\n      tag_525\n        /* \"#utility.yul\":11172:11173   */\n      0x00\n        /* \"#utility.yul\":11161:11170   */\n      dup4\n        /* \"#utility.yul\":11157:11174   */\n      add\n        /* \"#utility.yul\":11148:11154   */\n      dup6\n        /* \"#utility.yul\":11104:11175   */\n      tag_363\n      jump\t// in\n    tag_525:\n        /* \"#utility.yul\":11185:11257   */\n      tag_526\n        /* \"#utility.yul\":11253:11255   */\n      0x20\n        /* \"#utility.yul\":11242:11251   */\n      dup4\n        /* \"#utility.yul\":11238:11256   */\n      add\n        /* \"#utility.yul\":11229:11235   */\n      dup5\n        /* \"#utility.yul\":11185:11257   */\n      tag_333\n      jump\t// in\n    tag_526:\n        /* \"#utility.yul\":10932:11264   */\n      swap4\n      swap3\n      pop\n      pop\n      pop\n      jump\t// out\n        /* \"#utility.yul\":11270:11360   */\n    tag_364:\n        /* \"#utility.yul\":11304:11311   */\n      0x00\n        /* \"#utility.yul\":11347:11352   */\n      dup2\n        /* \"#utility.yul\":11340:11353   */\n      iszero\n        /* \"#utility.yul\":11333:11354   */\n      iszero\n        /* \"#utility.yul\":11322:11354   */\n      swap1\n      pop\n        /* \"#utility.yul\":11270:11360   */\n      swap2\n      swap1\n      pop\n      jump\t// out\n        /* \"#utility.yul\":11366:11482   */\n    tag_365:\n        /* \"#utility.yul\":11436:11457   */\n      tag_529\n        /* \"#utility.yul\":11451:11456   */\n      dup2\n        /* \"#utility.yul\":11436:11457   */\n      tag_364\n      jump\t// in\n    tag_529:\n        /* \"#utility.yul\":11429:11434   */\n      dup2\n        /* \"#utility.yul\":11426:11458   */\n      eq\n        /* \"#utility.yul\":11416:11476   */\n      tag_530\n      jumpi\n        /* \"#utility.yul\":11472:11473   */\n      0x00\n        /* \"#utility.yul\":11469:11470   */\n      0x00\n        /* \"#utility.yul\":11462:11474   */\n      revert\n        /* \"#utility.yul\":11416:11476   */\n    tag_530:\n        /* \"#utility.yul\":11366:11482   */\n      pop\n      jump\t// out\n        /* \"#utility.yul\":11488:11625   */\n    tag_366:\n        /* \"#utility.yul\":11542:11547   */\n      0x00\n        /* \"#utility.yul\":11573:11579   */\n      dup2\n        /* \"#utility.yul\":11567:11580   */\n      mload\n        /* \"#utility.yul\":11558:11580   */\n      swap1\n      pop\n        /* \"#utility.yul\":11589:11619   */\n      tag_532\n        /* \"#utility.yul\":11613:11618   */\n      dup2\n        /* \"#utility.yul\":11589:11619   */\n      tag_365\n      jump\t// in\n    tag_532:\n        /* \"#utility.yul\":11488:11625   */\n      swap3\n      swap2\n      pop\n      pop\n      jump\t// out\n        /* \"#utility.yul\":11631:11976   */\n    tag_130:\n        /* \"#utility.yul\":11698:11704   */\n      0x00\n        /* \"#utility.yul\":11747:11749   */\n      0x20\n        /* \"#utility.yul\":11735:11744   */\n      dup3\n        /* \"#utility.yul\":11726:11733   */\n      dup5\n        /* \"#utility.yul\":11722:11745   */\n      sub\n        /* \"#utility.yul\":11718:11750   */\n      slt\n        /* \"#utility.yul\":11715:11834   */\n      iszero\n      tag_534\n      jumpi\n        /* \"#utility.yul\":11753:11832   */\n      tag_535\n      tag_345\n      jump\t// in\n    tag_535:\n        /* \"#utility.yul\":11715:11834   */\n    tag_534:\n        /* \"#utility.yul\":11873:11874   */\n      0x00\n        /* \"#utility.yul\":11898:11959   */\n      tag_536\n        /* \"#utility.yul\":11951:11958   */\n      dup5\n        /* \"#utility.yul\":11942:11948   */\n      dup3\n        /* \"#utility.yul\":11931:11940   */\n      dup6\n        /* \"#utility.yul\":11927:11949   */\n      add\n        /* \"#utility.yul\":11898:11959   */\n      tag_366\n      jump\t// in\n    tag_536:\n        /* \"#utility.yul\":11888:11959   */\n      swap2\n      pop\n        /* \"#utility.yul\":11844:11969   */\n      pop\n        /* \"#utility.yul\":11631:11976   */\n      swap3\n      swap2\n      pop\n      pop\n      jump\t// out\n        /* \"#utility.yul\":11982:12154   */\n    tag_367:\n        /* \"#utility.yul\":12122:12146   */\n      0x5472616e7366657220746f6b656e42206661696c656400000000000000000000\n        /* \"#utility.yul\":12118:12119   */\n      0x00\n        /* \"#utility.yul\":12110:12116   */\n      dup3\n        /* \"#utility.yul\":12106:12120   */\n      add\n        /* \"#utility.yul\":12099:12147   */\n      mstore\n        /* \"#utility.yul\":11982:12154   */\n      pop\n      jump\t// out\n        /* \"#utility.yul\":12160:12526   */\n    tag_368:\n        /* \"#utility.yul\":12302:12305   */\n      0x00\n        /* \"#utility.yul\":12323:12390   */\n      tag_539\n        /* \"#utility.yul\":12387:12389   */\n      0x16\n        /* \"#utility.yul\":12382:12385   */\n      dup4\n        /* \"#utility.yul\":12323:12390   */\n      tag_354\n      jump\t// in\n    tag_539:\n        /* \"#utility.yul\":12316:12390   */\n      swap2\n      pop\n        /* \"#utility.yul\":12399:12492   */\n      tag_540\n        /* \"#utility.yul\":12488:12491   */\n      dup3\n        /* \"#utility.yul\":12399:12492   */\n      tag_367\n      jump\t// in\n    tag_540:\n        /* \"#utility.yul\":12517:12519   */\n      0x20\n        /* \"#utility.yul\":12512:12515   */\n      dup3\n        /* \"#utility.yul\":12508:12520   */\n      add\n        /* \"#utility.yul\":12501:12520   */\n      swap1\n      pop\n        /* \"#utility.yul\":12160:12526   */\n      swap2\n      swap1\n      pop\n      jump\t// out\n        /* \"#utility.yul\":12532:12951   */\n    tag_133:\n        /* \"#utility.yul\":12698:12702   */\n      0x00\n        /* \"#utility.yul\":12736:12738   */\n      0x20\n        /* \"#utility.yul\":12725:12734   */\n      dup3\n        /* \"#utility.yul\":12721:12739   */\n      add\n        /* \"#utility.yul\":12713:12739   */\n      swap1\n      pop\n        /* \"#utility.yul\":12785:12794   */\n      dup2\n        /* \"#utility.yul\":12779:12783   */\n      dup2\n        /* \"#utility.yul\":12775:12795   */\n      sub\n        /* \"#utility.yul\":12771:12772   */\n      0x00\n        /* \"#utility.yul\":12760:12769   */\n      dup4\n        /* \"#utility.yul\":12756:12773   */\n      add\n        /* \"#utility.yul\":12749:12796   */\n      mstore\n        /* \"#utility.yul\":12813:12944   */\n      tag_542\n        /* \"#utility.yul\":12939:12943   */\n      dup2\n        /* \"#utility.yul\":12813:12944   */\n      tag_368\n      jump\t// in\n    tag_542:\n        /* \"#utility.yul\":12805:12944   */\n      swap1\n      pop\n        /* \"#utility.yul\":12532:12951   */\n      swap2\n      swap1\n      pop\n      jump\t// out\n        /* \"#utility.yul\":12957:13129   */\n    tag_369:\n        /* \"#utility.yul\":13097:13121   */\n      0x5472616e7366657220746f6b656e41206661696c656400000000000000000000\n        /* \"#utility.yul\":13093:13094   */\n      0x00\n        /* \"#utility.yul\":13085:13091   */\n      dup3\n        /* \"#utility.yul\":13081:13095   */\n      add\n        /* \"#utility.yul\":13074:13122   */\n      mstore\n        /* \"#utility.yul\":12957:13129   */\n      pop\n      jump\t// out\n        /* \"#utility.yul\":13135:13501   */\n    tag_370:\n        /* \"#utility.yul\":13277:13280   */\n      0x00\n        /* \"#utility.yul\":13298:13365   */\n      tag_545\n        /* \"#utility.yul\":13362:13364   */\n      0x16\n        /* \"#utility.yul\":13357:13360   */\n      dup4\n        /* \"#utility.yul\":13298:13365   */\n      tag_354\n      jump\t// in\n    tag_545:\n        /* \"#utility.yul\":13291:13365   */\n      swap2\n      pop\n        /* \"#utility.yul\":13374:13467   */\n      tag_546\n        /* \"#utility.yul\":13463:13466   */\n      dup3\n        /* \"#utility.yul\":13374:13467   */\n      tag_369\n      jump\t// in\n    tag_546:\n        /* \"#utility.yul\":13492:13494   */\n      0x20\n        /* \"#utility.yul\":13487:13490   */\n      dup3\n        /* \"#utility.yul\":13483:13495   */\n      add\n        /* \"#utility.yul\":13476:13495   */\n      swap1\n      pop\n        /* \"#utility.yul\":13135:13501   */\n      swap2\n      swap1\n      pop\n      jump\t// out\n        /* \"#utility.yul\":13507:13926   */\n    tag_141:\n        /* \"#utility.yul\":13673:13677   */\n      0x00\n        /* \"#utility.yul\":13711:13713   */\n      0x20\n        /* \"#utility.yul\":13700:13709   */\n      dup3\n        /* \"#utility.yul\":13696:13714   */\n      add\n        /* \"#utility.yul\":13688:13714   */\n      swap1\n      pop\n        /* \"#utility.yul\":13760:13769   */\n      dup2\n        /* \"#utility.yul\":13754:13758   */\n      dup2\n        /* \"#utility.yul\":13750:13770   */\n      sub\n        /* \"#utility.yul\":13746:13747   */\n      0x00\n        /* \"#utility.yul\":13735:13744   */\n      dup4\n        /* \"#utility.yul\":13731:13748   */\n      add\n        /* \"#utility.yul\":13724:13771   */\n      mstore\n        /* \"#utility.yul\":13788:13919   */\n      tag_548\n        /* \"#utility.yul\":13914:13918   */\n      dup2\n        /* \"#utility.yul\":13788:13919   */\n      tag_370\n      jump\t// in\n    tag_548:\n        /* \"#utility.yul\":13780:13919   */\n      swap1\n      pop\n        /* \"#utility.yul\":13507:13926   */\n      swap2\n      swap1\n      pop\n      jump\t// out\n        /* \"#utility.yul\":13932:14485   */\n    tag_147:\n        /* \"#utility.yul\":14109:14113   */\n      0x00\n        /* \"#utility.yul\":14147:14150   */\n      0x80\n        /* \"#utility.yul\":14136:14145   */\n      dup3\n        /* \"#utility.yul\":14132:14151   */\n      add\n        /* \"#utility.yul\":14124:14151   */\n      swap1\n      pop\n        /* \"#utility.yul\":14161:14232   */\n      tag_550\n        /* \"#utility.yul\":14229:14230   */\n      0x00\n        /* \"#utility.yul\":14218:14227   */\n      dup4\n        /* \"#utility.yul\":14214:14231   */\n      add\n        /* \"#utility.yul\":14205:14211   */\n      dup8\n        /* \"#utility.yul\":14161:14232   */\n      tag_363\n      jump\t// in\n    tag_550:\n        /* \"#utility.yul\":14242:14314   */\n      tag_551\n        /* \"#utility.yul\":14310:14312   */\n      0x20\n        /* \"#utility.yul\":14299:14308   */\n      dup4\n        /* \"#utility.yul\":14295:14313   */\n      add\n        /* \"#utility.yul\":14286:14292   */\n      dup7\n        /* \"#utility.yul\":14242:14314   */\n      tag_333\n      jump\t// in\n    tag_551:\n        /* \"#utility.yul\":14324:14396   */\n      tag_552\n        /* \"#utility.yul\":14392:14394   */\n      0x40\n        /* \"#utility.yul\":14381:14390   */\n      dup4\n        /* \"#utility.yul\":14377:14395   */\n      add\n        /* \"#utility.yul\":14368:14374   */\n      dup6\n        /* \"#utility.yul\":14324:14396   */\n      tag_363\n      jump\t// in\n    tag_552:\n        /* \"#utility.yul\":14406:14478   */\n      tag_553\n        /* \"#utility.yul\":14474:14476   */\n      0x60\n        /* \"#utility.yul\":14463:14472   */\n      dup4\n        /* \"#utility.yul\":14459:14477   */\n      add\n        /* \"#utility.yul\":14450:14456   */\n      dup5\n        /* \"#utility.yul\":14406:14478   */\n      tag_333\n      jump\t// in\n    tag_553:\n        /* \"#utility.yul\":13932:14485   */\n      swap6\n      swap5\n      pop\n      pop\n      pop\n      pop\n      pop\n      jump\t// out\n        /* \"#utility.yul\":14491:14662   */\n    tag_371:\n        /* \"#utility.yul\":14631:14654   */\n      0x4c6971756964697479206d757374206265203e20300000000000000000000000\n        /* \"#utility.yul\":14627:14628   */\n      0x00\n        /* \"#utility.yul\":14619:14625   */\n      dup3\n        /* \"#utility.yul\":14615:14629   */\n      add\n        /* \"#utility.yul\":14608:14655   */\n      mstore\n        /* \"#utility.yul\":14491:14662   */\n      pop\n      jump\t// out\n        /* \"#utility.yul\":14668:15034   */\n    tag_372:\n        /* \"#utility.yul\":14810:14813   */\n      0x00\n        /* \"#utility.yul\":14831:14898   */\n      tag_556\n        /* \"#utility.yul\":14895:14897   */\n      0x15\n        /* \"#utility.yul\":14890:14893   */\n      dup4\n        /* \"#utility.yul\":14831:14898   */\n      tag_354\n      jump\t// in\n    tag_556:\n        /* \"#utility.yul\":14824:14898   */\n      swap2\n      pop\n        /* \"#utility.yul\":14907:15000   */\n      tag_557\n        /* \"#utility.yul\":14996:14999   */\n      dup3\n        /* \"#utility.yul\":14907:15000   */\n      tag_371\n      jump\t// in\n    tag_557:\n        /* \"#utility.yul\":15025:15027   */\n      0x20\n        /* \"#utility.yul\":15020:15023   */\n      dup3\n        /* \"#utility.yul\":15016:15028   */\n      add\n        /* \"#utility.yul\":15009:15028   */\n      swap1\n      pop\n        /* \"#utility.yul\":14668:15034   */\n      swap2\n      swap1\n      pop\n      jump\t// out\n        /* \"#utility.yul\":15040:15459   */\n    tag_151:\n        /* \"#utility.yul\":15206:15210   */\n      0x00\n        /* \"#utility.yul\":15244:15246   */\n      0x20\n        /* \"#utility.yul\":15233:15242   */\n      dup3\n        /* \"#utility.yul\":15229:15247   */\n      add\n        /* \"#utility.yul\":15221:15247   */\n      swap1\n      pop\n        /* \"#utility.yul\":15293:15302   */\n      dup2\n        /* \"#utility.yul\":15287:15291   */\n      dup2\n        /* \"#utility.yul\":15283:15303   */\n      sub\n        /* \"#utility.yul\":15279:15280   */\n      0x00\n        /* \"#utility.yul\":15268:15277   */\n      dup4\n        /* \"#utility.yul\":15264:15281   */\n      add\n        /* \"#utility.yul\":15257:15304   */\n      mstore\n        /* \"#utility.yul\":15321:15452   */\n      tag_559\n        /* \"#utility.yul\":15447:15451   */\n      dup2\n        /* \"#utility.yul\":15321:15452   */\n      tag_372\n      jump\t// in\n    tag_559:\n        /* \"#utility.yul\":15313:15452   */\n      swap1\n      pop\n        /* \"#utility.yul\":15040:15459   */\n      swap2\n      swap1\n      pop\n      jump\t// out\n        /* \"#utility.yul\":15465:15635   */\n    tag_373:\n        /* \"#utility.yul\":15605:15627   */\n      0x4e6f7420656e6f756768206c6971756964697479000000000000000000000000\n        /* \"#utility.yul\":15601:15602   */\n      0x00\n        /* \"#utility.yul\":15593:15599   */\n      dup3\n        /* \"#utility.yul\":15589:15603   */\n      add\n        /* \"#utility.yul\":15582:15628   */\n      mstore\n        /* \"#utility.yul\":15465:15635   */\n      pop\n      jump\t// out\n        /* \"#utility.yul\":15641:16007   */\n    tag_374:\n        /* \"#utility.yul\":15783:15786   */\n      0x00\n        /* \"#utility.yul\":15804:15871   */\n      tag_562\n        /* \"#utility.yul\":15868:15870   */\n      0x14\n        /* \"#utility.yul\":15863:15866   */\n      dup4\n        /* \"#utility.yul\":15804:15871   */\n      tag_354\n      jump\t// in\n    tag_562:\n        /* \"#utility.yul\":15797:15871   */\n      swap2\n      pop\n        /* \"#utility.yul\":15880:15973   */\n      tag_563\n        /* \"#utility.yul\":15969:15972   */\n      dup3\n        /* \"#utility.yul\":15880:15973   */\n      tag_373\n      jump\t// in\n    tag_563:\n        /* \"#utility.yul\":15998:16000   */\n      0x20\n        /* \"#utility.yul\":15993:15996   */\n      dup3\n        /* \"#utility.yul\":15989:16001   */\n      add\n        /* \"#utility.yul\":15982:16001   */\n      swap1\n      pop\n        /* \"#utility.yul\":15641:16007   */\n      swap2\n      swap1\n      pop\n      jump\t// out\n        /* \"#utility.yul\":16013:16432   */\n    tag_154:\n        /* \"#utility.yul\":16179:16183   */\n      0x00\n        /* \"#utility.yul\":16217:16219   */\n      0x20\n        /* \"#utility.yul\":16206:16215   */\n      dup3\n        /* \"#utility.yul\":16202:16220   */\n      add\n        /* \"#utility.yul\":16194:16220   */\n      swap1\n      pop\n        /* \"#utility.yul\":16266:16275   */\n      dup2\n        /* \"#utility.yul\":16260:16264   */\n      dup2\n        /* \"#utility.yul\":16256:16276   */\n      sub\n        /* \"#utility.yul\":16252:16253   */\n      0x00\n        /* \"#utility.yul\":16241:16250   */\n      dup4\n        /* \"#utility.yul\":16237:16254   */\n      add\n        /* \"#utility.yul\":16230:16277   */\n      mstore\n        /* \"#utility.yul\":16294:16425   */\n      tag_565\n        /* \"#utility.yul\":16420:16424   */\n      dup2\n        /* \"#utility.yul\":16294:16425   */\n      tag_374\n      jump\t// in\n    tag_565:\n        /* \"#utility.yul\":16286:16425   */\n      swap1\n      pop\n        /* \"#utility.yul\":16013:16432   */\n      swap2\n      swap1\n      pop\n      jump\t// out\n        /* \"#utility.yul\":16438:16605   */\n    tag_375:\n        /* \"#utility.yul\":16578:16597   */\n      0x5472616e736665722041206661696c6564000000000000000000000000000000\n        /* \"#utility.yul\":16574:16575   */\n      0x00\n        /* \"#utility.yul\":16566:16572   */\n      dup3\n        /* \"#utility.yul\":16562:16576   */\n      add\n        /* \"#utility.yul\":16555:16598   */\n      mstore\n        /* \"#utility.yul\":16438:16605   */\n      pop\n      jump\t// out\n        /* \"#utility.yul\":16611:16977   */\n    tag_376:\n        /* \"#utility.yul\":16753:16756   */\n      0x00\n        /* \"#utility.yul\":16774:16841   */\n      tag_568\n        /* \"#utility.yul\":16838:16840   */\n      0x11\n        /* \"#utility.yul\":16833:16836   */\n      dup4\n        /* \"#utility.yul\":16774:16841   */\n      tag_354\n      jump\t// in\n    tag_568:\n        /* \"#utility.yul\":16767:16841   */\n      swap2\n      pop\n        /* \"#utility.yul\":16850:16943   */\n      tag_569\n        /* \"#utility.yul\":16939:16942   */\n      dup3\n        /* \"#utility.yul\":16850:16943   */\n      tag_375\n      jump\t// in\n    tag_569:\n        /* \"#utility.yul\":16968:16970   */\n      0x20\n        /* \"#utility.yul\":16963:16966   */\n      dup3\n        /* \"#utility.yul\":16959:16971   */\n      add\n        /* \"#utility.yul\":16952:16971   */\n      swap1\n      pop\n        /* \"#utility.yul\":16611:16977   */\n      swap2\n      swap1\n      pop\n      jump\t// out\n        /* \"#utility.yul\":16983:17402   */\n    tag_167:\n        /* \"#utility.yul\":17149:17153   */\n      0x00\n        /* \"#utility.yul\":17187:17189   */\n      0x20\n        /* \"#utility.yul\":17176:17185   */\n      dup3\n        /* \"#utility.yul\":17172:17190   */\n      add\n        /* \"#utility.yul\":17164:17190   */\n      swap1\n      pop\n        /* \"#utility.yul\":17236:17245   */\n      dup2\n        /* \"#utility.yul\":17230:17234   */\n      dup2\n        /* \"#utility.yul\":17226:17246   */\n      sub\n        /* \"#utility.yul\":17222:17223   */\n      0x00\n        /* \"#utility.yul\":17211:17220   */\n      dup4\n        /* \"#utility.yul\":17207:17224   */\n      add\n        /* \"#utility.yul\":17200:17247   */\n      mstore\n        /* \"#utility.yul\":17264:17395   */\n      tag_571\n        /* \"#utility.yul\":17390:17394   */\n      dup2\n        /* \"#utility.yul\":17264:17395   */\n      tag_376\n      jump\t// in\n    tag_571:\n        /* \"#utility.yul\":17256:17395   */\n      swap1\n      pop\n        /* \"#utility.yul\":16983:17402   */\n      swap2\n      swap1\n      pop\n      jump\t// out\n        /* \"#utility.yul\":17408:17575   */\n    tag_377:\n        /* \"#utility.yul\":17548:17567   */\n      0x5472616e736665722042206661696c6564000000000000000000000000000000\n        /* \"#utility.yul\":17544:17545   */\n      0x00\n        /* \"#utility.yul\":17536:17542   */\n      dup3\n        /* \"#utility.yul\":17532:17546   */\n      add\n        /* \"#utility.yul\":17525:17568   */\n      mstore\n        /* \"#utility.yul\":17408:17575   */\n      pop\n      jump\t// out\n        /* \"#utility.yul\":17581:17947   */\n    tag_378:\n        /* \"#utility.yul\":17723:17726   */\n      0x00\n        /* \"#utility.yul\":17744:17811   */\n      tag_574\n        /* \"#utility.yul\":17808:17810   */\n      0x11\n        /* \"#utility.yul\":17803:17806   */\n      dup4\n        /* \"#utility.yul\":17744:17811   */\n      tag_354\n      jump\t// in\n    tag_574:\n        /* \"#utility.yul\":17737:17811   */\n      swap2\n      pop\n        /* \"#utility.yul\":17820:17913   */\n      tag_575\n        /* \"#utility.yul\":17909:17912   */\n      dup3\n        /* \"#utility.yul\":17820:17913   */\n      tag_377\n      jump\t// in\n    tag_575:\n        /* \"#utility.yul\":17938:17940   */\n      0x20\n        /* \"#utility.yul\":17933:17936   */\n      dup3\n        /* \"#utility.yul\":17929:17941   */\n      add\n        /* \"#utility.yul\":17922:17941   */\n      swap1\n      pop\n        /* \"#utility.yul\":17581:17947   */\n      swap2\n      swap1\n      pop\n      jump\t// out\n        /* \"#utility.yul\":17953:18372   */\n    tag_174:\n        /* \"#utility.yul\":18119:18123   */\n      0x00\n        /* \"#utility.yul\":18157:18159   */\n      0x20\n        /* \"#utility.yul\":18146:18155   */\n      dup3\n        /* \"#utility.yul\":18142:18160   */\n      add\n        /* \"#utility.yul\":18134:18160   */\n      swap1\n      pop\n        /* \"#utility.yul\":18206:18215   */\n      dup2\n        /* \"#utility.yul\":18200:18204   */\n      dup2\n        /* \"#utility.yul\":18196:18216   */\n      sub\n        /* \"#utility.yul\":18192:18193   */\n      0x00\n        /* \"#utility.yul\":18181:18190   */\n      dup4\n        /* \"#utility.yul\":18177:18194   */\n      add\n        /* \"#utility.yul\":18170:18217   */\n      mstore\n        /* \"#utility.yul\":18234:18365   */\n      tag_577\n        /* \"#utility.yul\":18360:18364   */\n      dup2\n        /* \"#utility.yul\":18234:18365   */\n      tag_378\n      jump\t// in\n    tag_577:\n        /* \"#utility.yul\":18226:18365   */\n      swap1\n      pop\n        /* \"#utility.yul\":17953:18372   */\n      swap2\n      swap1\n      pop\n      jump\t// out\n        /* \"#utility.yul\":18378:18820   */\n    tag_177:\n        /* \"#utility.yul\":18527:18531   */\n      0x00\n        /* \"#utility.yul\":18565:18567   */\n      0x60\n        /* \"#utility.yul\":18554:18563   */\n      dup3\n        /* \"#utility.yul\":18550:18568   */\n      add\n        /* \"#utility.yul\":18542:18568   */\n      swap1\n      pop\n        /* \"#utility.yul\":18578:18649   */\n      tag_579\n        /* \"#utility.yul\":18646:18647   */\n      0x00\n        /* \"#utility.yul\":18635:18644   */\n      dup4\n        /* \"#utility.yul\":18631:18648   */\n      add\n        /* \"#utility.yul\":18622:18628   */\n      dup7\n        /* \"#utility.yul\":18578:18649   */\n      tag_333\n      jump\t// in\n    tag_579:\n        /* \"#utility.yul\":18659:18731   */\n      tag_580\n        /* \"#utility.yul\":18727:18729   */\n      0x20\n        /* \"#utility.yul\":18716:18725   */\n      dup4\n        /* \"#utility.yul\":18712:18730   */\n      add\n        /* \"#utility.yul\":18703:18709   */\n      dup6\n        /* \"#utility.yul\":18659:18731   */\n      tag_333\n      jump\t// in\n    tag_580:\n        /* \"#utility.yul\":18741:18813   */\n      tag_581\n        /* \"#utility.yul\":18809:18811   */\n      0x40\n        /* \"#utility.yul\":18798:18807   */\n      dup4\n        /* \"#utility.yul\":18794:18812   */\n      add\n        /* \"#utility.yul\":18785:18791   */\n      dup5\n        /* \"#utility.yul\":18741:18813   */\n      tag_333\n      jump\t// in\n    tag_581:\n        /* \"#utility.yul\":18378:18820   */\n      swap5\n      swap4\n      pop\n      pop\n      pop\n      pop\n      jump\t// out\n        /* \"#utility.yul\":18826:18995   */\n    tag_379:\n        /* \"#utility.yul\":18966:18987   */\n      0x416d6f756e7473206d757374206265203e203000000000000000000000000000\n        /* \"#utility.yul\":18962:18963   */\n      0x00\n        /* \"#utility.yul\":18954:18960   */\n      dup3\n        /* \"#utility.yul\":18950:18964   */\n      add\n        /* \"#utility.yul\":18943:18988   */\n      mstore\n        /* \"#utility.yul\":18826:18995   */\n      pop\n      jump\t// out\n        /* \"#utility.yul\":19001:19367   */\n    tag_380:\n        /* \"#utility.yul\":19143:19146   */\n      0x00\n        /* \"#utility.yul\":19164:19231   */\n      tag_584\n        /* \"#utility.yul\":19228:19230   */\n      0x13\n        /* \"#utility.yul\":19223:19226   */\n      dup4\n        /* \"#utility.yul\":19164:19231   */\n      tag_354\n      jump\t// in\n    tag_584:\n        /* \"#utility.yul\":19157:19231   */\n      swap2\n      pop\n        /* \"#utility.yul\":19240:19333   */\n      tag_585\n        /* \"#utility.yul\":19329:19332   */\n      dup3\n        /* \"#utility.yul\":19240:19333   */\n      tag_379\n      jump\t// in\n    tag_585:\n        /* \"#utility.yul\":19358:19360   */\n      0x20\n        /* \"#utility.yul\":19353:19356   */\n      dup3\n        /* \"#utility.yul\":19349:19361   */\n      add\n        /* \"#utility.yul\":19342:19361   */\n      swap1\n      pop\n        /* \"#utility.yul\":19001:19367   */\n      swap2\n      swap1\n      pop\n      jump\t// out\n        /* \"#utility.yul\":19373:19792   */\n    tag_182:\n        /* \"#utility.yul\":19539:19543   */\n      0x00\n        /* \"#utility.yul\":19577:19579   */\n      0x20\n        /* \"#utility.yul\":19566:19575   */\n      dup3\n        /* \"#utility.yul\":19562:19580   */\n      add\n        /* \"#utility.yul\":19554:19580   */\n      swap1\n      pop\n        /* \"#utility.yul\":19626:19635   */\n      dup2\n        /* \"#utility.yul\":19620:19624   */\n      dup2\n        /* \"#utility.yul\":19616:19636   */\n      sub\n        /* \"#utility.yul\":19612:19613   */\n      0x00\n        /* \"#utility.yul\":19601:19610   */\n      dup4\n        /* \"#utility.yul\":19597:19614   */\n      add\n        /* \"#utility.yul\":19590:19637   */\n      mstore\n        /* \"#utility.yul\":19654:19785   */\n      tag_587\n        /* \"#utility.yul\":19780:19784   */\n      dup2\n        /* \"#utility.yul\":19654:19785   */\n      tag_380\n      jump\t// in\n    tag_587:\n        /* \"#utility.yul\":19646:19785   */\n      swap1\n      pop\n        /* \"#utility.yul\":19373:19792   */\n      swap2\n      swap1\n      pop\n      jump\t// out\n        /* \"#utility.yul\":19798:20240   */\n    tag_184:\n        /* \"#utility.yul\":19947:19951   */\n      0x00\n        /* \"#utility.yul\":19985:19987   */\n      0x60\n        /* \"#utility.yul\":19974:19983   */\n      dup3\n        /* \"#utility.yul\":19970:19988   */\n      add\n        /* \"#utility.yul\":19962:19988   */\n      swap1\n      pop\n        /* \"#utility.yul\":19998:20069   */\n      tag_589\n        /* \"#utility.yul\":20066:20067   */\n      0x00\n        /* \"#utility.yul\":20055:20064   */\n      dup4\n        /* \"#utility.yul\":20051:20068   */\n      add\n        /* \"#utility.yul\":20042:20048   */\n      dup7\n        /* \"#utility.yul\":19998:20069   */\n      tag_363\n      jump\t// in\n    tag_589:\n        /* \"#utility.yul\":20079:20151   */\n      tag_590\n        /* \"#utility.yul\":20147:20149   */\n      0x20\n        /* \"#utility.yul\":20136:20145   */\n      dup4\n        /* \"#utility.yul\":20132:20150   */\n      add\n        /* \"#utility.yul\":20123:20129   */\n      dup6\n        /* \"#utility.yul\":20079:20151   */\n      tag_363\n      jump\t// in\n    tag_590:\n        /* \"#utility.yul\":20161:20233   */\n      tag_591\n        /* \"#utility.yul\":20229:20231   */\n      0x40\n        /* \"#utility.yul\":20218:20227   */\n      dup4\n        /* \"#utility.yul\":20214:20232   */\n      add\n        /* \"#utility.yul\":20205:20211   */\n      dup5\n        /* \"#utility.yul\":20161:20233   */\n      tag_333\n      jump\t// in\n    tag_591:\n        /* \"#utility.yul\":19798:20240   */\n      swap5\n      swap4\n      pop\n      pop\n      pop\n      pop\n      jump\t// out\n        /* \"#utility.yul\":20246:20425   */\n    tag_381:\n        /* \"#utility.yul\":20386:20417   */\n      0x496e73756666696369656e74206c6971756964697479206d696e746564000000\n        /* \"#utility.yul\":20382:20383   */\n      0x00\n        /* \"#utility.yul\":20374:20380   */\n      dup3\n        /* \"#utility.yul\":20370:20384   */\n      add\n        /* \"#utility.yul\":20363:20418   */\n      mstore\n        /* \"#utility.yul\":20246:20425   */\n      pop\n      jump\t// out\n        /* \"#utility.yul\":20431:20797   */\n    tag_382:\n        /* \"#utility.yul\":20573:20576   */\n      0x00\n        /* \"#utility.yul\":20594:20661   */\n      tag_594\n        /* \"#utility.yul\":20658:20660   */\n      0x1d\n        /* \"#utility.yul\":20653:20656   */\n      dup4\n        /* \"#utility.yul\":20594:20661   */\n      tag_354\n      jump\t// in\n    tag_594:\n        /* \"#utility.yul\":20587:20661   */\n      swap2\n      pop\n        /* \"#utility.yul\":20670:20763   */\n      tag_595\n        /* \"#utility.yul\":20759:20762   */\n      dup3\n        /* \"#utility.yul\":20670:20763   */\n      tag_381\n      jump\t// in\n    tag_595:\n        /* \"#utility.yul\":20788:20790   */\n      0x20\n        /* \"#utility.yul\":20783:20786   */\n      dup3\n        /* \"#utility.yul\":20779:20791   */\n      add\n        /* \"#utility.yul\":20772:20791   */\n      swap1\n      pop\n        /* \"#utility.yul\":20431:20797   */\n      swap2\n      swap1\n      pop\n      jump\t// out\n        /* \"#utility.yul\":20803:21222   */\n    tag_202:\n        /* \"#utility.yul\":20969:20973   */\n      0x00\n        /* \"#utility.yul\":21007:21009   */\n      0x20\n        /* \"#utility.yul\":20996:21005   */\n      dup3\n        /* \"#utility.yul\":20992:21010   */\n      add\n        /* \"#utility.yul\":20984:21010   */\n      swap1\n      pop\n        /* \"#utility.yul\":21056:21065   */\n      dup2\n        /* \"#utility.yul\":21050:21054   */\n      dup2\n        /* \"#utility.yul\":21046:21066   */\n      sub\n        /* \"#utility.yul\":21042:21043   */\n      0x00\n        /* \"#utility.yul\":21031:21040   */\n      dup4\n        /* \"#utility.yul\":21027:21044   */\n      add\n        /* \"#utility.yul\":21020:21067   */\n      mstore\n        /* \"#utility.yul\":21084:21215   */\n      tag_597\n        /* \"#utility.yul\":21210:21214   */\n      dup2\n        /* \"#utility.yul\":21084:21215   */\n      tag_382\n      jump\t// in\n    tag_597:\n        /* \"#utility.yul\":21076:21215   */\n      swap1\n      pop\n        /* \"#utility.yul\":20803:21222   */\n      swap2\n      swap1\n      pop\n      jump\t// out\n        /* \"#utility.yul\":21228:21397   */\n    tag_383:\n        /* \"#utility.yul\":21368:21389   */\n      0x496e76616c696420696e70757420746f6b656e00000000000000000000000000\n        /* \"#utility.yul\":21364:21365   */\n      0x00\n        /* \"#utility.yul\":21356:21362   */\n      dup3\n        /* \"#utility.yul\":21352:21366   */\n      add\n        /* \"#utility.yul\":21345:21390   */\n      mstore\n        /* \"#utility.yul\":21228:21397   */\n      pop\n      jump\t// out\n        /* \"#utility.yul\":21403:21769   */\n    tag_384:\n        /* \"#utility.yul\":21545:21548   */\n      0x00\n        /* \"#utility.yul\":21566:21633   */\n      tag_600\n        /* \"#utility.yul\":21630:21632   */\n      0x13\n        /* \"#utility.yul\":21625:21628   */\n      dup4\n        /* \"#utility.yul\":21566:21633   */\n      tag_354\n      jump\t// in\n    tag_600:\n        /* \"#utility.yul\":21559:21633   */\n      swap2\n      pop\n        /* \"#utility.yul\":21642:21735   */\n      tag_601\n        /* \"#utility.yul\":21731:21734   */\n      dup3\n        /* \"#utility.yul\":21642:21735   */\n      tag_383\n      jump\t// in\n    tag_601:\n        /* \"#utility.yul\":21760:21762   */\n      0x20\n        /* \"#utility.yul\":21755:21758   */\n      dup3\n        /* \"#utility.yul\":21751:21763   */\n      add\n        /* \"#utility.yul\":21744:21763   */\n      swap1\n      pop\n        /* \"#utility.yul\":21403:21769   */\n      swap2\n      swap1\n      pop\n      jump\t// out\n        /* \"#utility.yul\":21775:22194   */\n    tag_220:\n        /* \"#utility.yul\":21941:21945   */\n      0x00\n        /* \"#utility.yul\":21979:21981   */\n      0x20\n        /* \"#utility.yul\":21968:21977   */\n      dup3\n        /* \"#utility.yul\":21964:21982   */\n      add\n        /* \"#utility.yul\":21956:21982   */\n      swap1\n      pop\n        /* \"#utility.yul\":22028:22037   */\n      dup2\n        /* \"#utility.yul\":22022:22026   */\n      dup2\n        /* \"#utility.yul\":22018:22038   */\n      sub\n        /* \"#utility.yul\":22014:22015   */\n      0x00\n        /* \"#utility.yul\":22003:22012   */\n      dup4\n        /* \"#utility.yul\":21999:22016   */\n      add\n        /* \"#utility.yul\":21992:22039   */\n      mstore\n        /* \"#utility.yul\":22056:22187   */\n      tag_603\n        /* \"#utility.yul\":22182:22186   */\n      dup2\n        /* \"#utility.yul\":22056:22187   */\n      tag_384\n      jump\t// in\n    tag_603:\n        /* \"#utility.yul\":22048:22187   */\n      swap1\n      pop\n        /* \"#utility.yul\":21775:22194   */\n      swap2\n      swap1\n      pop\n      jump\t// out\n        /* \"#utility.yul\":22200:22362   */\n    tag_385:\n        /* \"#utility.yul\":22340:22354   */\n      0x416d6f756e74496e203e20300000000000000000000000000000000000000000\n        /* \"#utility.yul\":22336:22337   */\n      0x00\n        /* \"#utility.yul\":22328:22334   */\n      dup3\n        /* \"#utility.yul\":22324:22338   */\n      add\n        /* \"#utility.yul\":22317:22355   */\n      mstore\n        /* \"#utility.yul\":22200:22362   */\n      pop\n      jump\t// out\n        /* \"#utility.yul\":22368:22734   */\n    tag_386:\n        /* \"#utility.yul\":22510:22513   */\n      0x00\n        /* \"#utility.yul\":22531:22598   */\n      tag_606\n        /* \"#utility.yul\":22595:22597   */\n      0x0c\n        /* \"#utility.yul\":22590:22593   */\n      dup4\n        /* \"#utility.yul\":22531:22598   */\n      tag_354\n      jump\t// in\n    tag_606:\n        /* \"#utility.yul\":22524:22598   */\n      swap2\n      pop\n        /* \"#utility.yul\":22607:22700   */\n      tag_607\n        /* \"#utility.yul\":22696:22699   */\n      dup3\n        /* \"#utility.yul\":22607:22700   */\n      tag_385\n      jump\t// in\n    tag_607:\n        /* \"#utility.yul\":22725:22727   */\n      0x20\n        /* \"#utility.yul\":22720:22723   */\n      dup3\n        /* \"#utility.yul\":22716:22728   */\n      add\n        /* \"#utility.yul\":22709:22728   */\n      swap1\n      pop\n        /* \"#utility.yul\":22368:22734   */\n      swap2\n      swap1\n      pop\n      jump\t// out\n        /* \"#utility.yul\":22740:23159   */\n    tag_223:\n        /* \"#utility.yul\":22906:22910   */\n      0x00\n        /* \"#utility.yul\":22944:22946   */\n      0x20\n        /* \"#utility.yul\":22933:22942   */\n      dup3\n        /* \"#utility.yul\":22929:22947   */\n      add\n        /* \"#utility.yul\":22921:22947   */\n      swap1\n      pop\n        /* \"#utility.yul\":22993:23002   */\n      dup2\n        /* \"#utility.yul\":22987:22991   */\n      dup2\n        /* \"#utility.yul\":22983:23003   */\n      sub\n        /* \"#utility.yul\":22979:22980   */\n      0x00\n        /* \"#utility.yul\":22968:22977   */\n      dup4\n        /* \"#utility.yul\":22964:22981   */\n      add\n        /* \"#utility.yul\":22957:23004   */\n      mstore\n        /* \"#utility.yul\":23021:23152   */\n      tag_609\n        /* \"#utility.yul\":23147:23151   */\n      dup2\n        /* \"#utility.yul\":23021:23152   */\n      tag_386\n      jump\t// in\n    tag_609:\n        /* \"#utility.yul\":23013:23152   */\n      swap1\n      pop\n        /* \"#utility.yul\":22740:23159   */\n      swap2\n      swap1\n      pop\n      jump\t// out\n        /* \"#utility.yul\":23165:23333   */\n    tag_387:\n        /* \"#utility.yul\":23305:23325   */\n      0x5472616e7366657220696e206661696c65640000000000000000000000000000\n        /* \"#utility.yul\":23301:23302   */\n      0x00\n        /* \"#utility.yul\":23293:23299   */\n      dup3\n        /* \"#utility.yul\":23289:23303   */\n      add\n        /* \"#utility.yul\":23282:23326   */\n      mstore\n        /* \"#utility.yul\":23165:23333   */\n      pop\n      jump\t// out\n        /* \"#utility.yul\":23339:23705   */\n    tag_388:\n        /* \"#utility.yul\":23481:23484   */\n      0x00\n        /* \"#utility.yul\":23502:23569   */\n      tag_612\n        /* \"#utility.yul\":23566:23568   */\n      0x12\n        /* \"#utility.yul\":23561:23564   */\n      dup4\n        /* \"#utility.yul\":23502:23569   */\n      tag_354\n      jump\t// in\n    tag_612:\n        /* \"#utility.yul\":23495:23569   */\n      swap2\n      pop\n        /* \"#utility.yul\":23578:23671   */\n      tag_613\n        /* \"#utility.yul\":23667:23670   */\n      dup3\n        /* \"#utility.yul\":23578:23671   */\n      tag_387\n      jump\t// in\n    tag_613:\n        /* \"#utility.yul\":23696:23698   */\n      0x20\n        /* \"#utility.yul\":23691:23694   */\n      dup3\n        /* \"#utility.yul\":23687:23699   */\n      add\n        /* \"#utility.yul\":23680:23699   */\n      swap1\n      pop\n        /* \"#utility.yul\":23339:23705   */\n      swap2\n      swap1\n      pop\n      jump\t// out\n        /* \"#utility.yul\":23711:24130   */\n    tag_236:\n        /* \"#utility.yul\":23877:23881   */\n      0x00\n        /* \"#utility.yul\":23915:23917   */\n      0x20\n        /* \"#utility.yul\":23904:23913   */\n      dup3\n        /* \"#utility.yul\":23900:23918   */\n      add\n        /* \"#utility.yul\":23892:23918   */\n      swap1\n      pop\n        /* \"#utility.yul\":23964:23973   */\n      dup2\n        /* \"#utility.yul\":23958:23962   */\n      dup2\n        /* \"#utility.yul\":23954:23974   */\n      sub\n        /* \"#utility.yul\":23950:23951   */\n      0x00\n        /* \"#utility.yul\":23939:23948   */\n      dup4\n        /* \"#utility.yul\":23935:23952   */\n      add\n        /* \"#utility.yul\":23928:23975   */\n      mstore\n        /* \"#utility.yul\":23992:24123   */\n      tag_615\n        /* \"#utility.yul\":24118:24122   */\n      dup2\n        /* \"#utility.yul\":23992:24123   */\n      tag_388\n      jump\t// in\n    tag_615:\n        /* \"#utility.yul\":23984:24123   */\n      swap1\n      pop\n        /* \"#utility.yul\":23711:24130   */\n      swap2\n      swap1\n      pop\n      jump\t// out\n        /* \"#utility.yul\":24136:24312   */\n    tag_389:\n        /* \"#utility.yul\":24276:24304   */\n      0x496e73756666696369656e74206f757470757420616d6f756e74000000000000\n        /* \"#utility.yul\":24272:24273   */\n      0x00\n        /* \"#utility.yul\":24264:24270   */\n      dup3\n        /* \"#utility.yul\":24260:24274   */\n      add\n        /* \"#utility.yul\":24253:24305   */\n      mstore\n        /* \"#utility.yul\":24136:24312   */\n      pop\n      jump\t// out\n        /* \"#utility.yul\":24318:24684   */\n    tag_390:\n        /* \"#utility.yul\":24460:24463   */\n      0x00\n        /* \"#utility.yul\":24481:24548   */\n      tag_618\n        /* \"#utility.yul\":24545:24547   */\n      0x1a\n        /* \"#utility.yul\":24540:24543   */\n      dup4\n        /* \"#utility.yul\":24481:24548   */\n      tag_354\n      jump\t// in\n    tag_618:\n        /* \"#utility.yul\":24474:24548   */\n      swap2\n      pop\n        /* \"#utility.yul\":24557:24650   */\n      tag_619\n        /* \"#utility.yul\":24646:24649   */\n      dup3\n        /* \"#utility.yul\":24557:24650   */\n      tag_389\n      jump\t// in\n    tag_619:\n        /* \"#utility.yul\":24675:24677   */\n      0x20\n        /* \"#utility.yul\":24670:24673   */\n      dup3\n        /* \"#utility.yul\":24666:24678   */\n      add\n        /* \"#utility.yul\":24659:24678   */\n      swap1\n      pop\n        /* \"#utility.yul\":24318:24684   */\n      swap2\n      swap1\n      pop\n      jump\t// out\n        /* \"#utility.yul\":24690:25109   */\n    tag_245:\n        /* \"#utility.yul\":24856:24860   */\n      0x00\n        /* \"#utility.yul\":24894:24896   */\n      0x20\n        /* \"#utility.yul\":24883:24892   */\n      dup3\n        /* \"#utility.yul\":24879:24897   */\n      add\n        /* \"#utility.yul\":24871:24897   */\n      swap1\n      pop\n        /* \"#utility.yul\":24943:24952   */\n      dup2\n        /* \"#utility.yul\":24937:24941   */\n      dup2\n        /* \"#utility.yul\":24933:24953   */\n      sub\n        /* \"#utility.yul\":24929:24930   */\n      0x00\n        /* \"#utility.yul\":24918:24927   */\n      dup4\n        /* \"#utility.yul\":24914:24931   */\n      add\n        /* \"#utility.yul\":24907:24954   */\n      mstore\n        /* \"#utility.yul\":24971:25102   */\n      tag_621\n        /* \"#utility.yul\":25097:25101   */\n      dup2\n        /* \"#utility.yul\":24971:25102   */\n      tag_390\n      jump\t// in\n    tag_621:\n        /* \"#utility.yul\":24963:25102   */\n      swap1\n      pop\n        /* \"#utility.yul\":24690:25109   */\n      swap2\n      swap1\n      pop\n      jump\t// out\n        /* \"#utility.yul\":25115:25284   */\n    tag_391:\n        /* \"#utility.yul\":25255:25276   */\n      0x5472616e73666572206f7574206661696c656400000000000000000000000000\n        /* \"#utility.yul\":25251:25252   */\n      0x00\n        /* \"#utility.yul\":25243:25249   */\n      dup3\n        /* \"#utility.yul\":25239:25253   */\n      add\n        /* \"#utility.yul\":25232:25277   */\n      mstore\n        /* \"#utility.yul\":25115:25284   */\n      pop\n      jump\t// out\n        /* \"#utility.yul\":25290:25656   */\n    tag_392:\n        /* \"#utility.yul\":25432:25435   */\n      0x00\n        /* \"#utility.yul\":25453:25520   */\n      tag_624\n        /* \"#utility.yul\":25517:25519   */\n      0x13\n        /* \"#utility.yul\":25512:25515   */\n      dup4\n        /* \"#utility.yul\":25453:25520   */\n      tag_354\n      jump\t// in\n    tag_624:\n        /* \"#utility.yul\":25446:25520   */\n      swap2\n      pop\n        /* \"#utility.yul\":25529:25622   */\n      tag_625\n        /* \"#utility.yul\":25618:25621   */\n      dup3\n        /* \"#utility.yul\":25529:25622   */\n      tag_391\n      jump\t// in\n    tag_625:\n        /* \"#utility.yul\":25647:25649   */\n      0x20\n        /* \"#utility.yul\":25642:25645   */\n      dup3\n        /* \"#utility.yul\":25638:25650   */\n      add\n        /* \"#utility.yul\":25631:25650   */\n      swap1\n      pop\n        /* \"#utility.yul\":25290:25656   */\n      swap2\n      swap1\n      pop\n      jump\t// out\n        /* \"#utility.yul\":25662:26081   */\n    tag_252:\n        /* \"#utility.yul\":25828:25832   */\n      0x00\n        /* \"#utility.yul\":25866:25868   */\n      0x20\n        /* \"#utility.yul\":25855:25864   */\n      dup3\n        /* \"#utility.yul\":25851:25869   */\n      add\n        /* \"#utility.yul\":25843:25869   */\n      swap1\n      pop\n        /* \"#utility.yul\":25915:25924   */\n      dup2\n        /* \"#utility.yul\":25909:25913   */\n      dup2\n        /* \"#utility.yul\":25905:25925   */\n      sub\n        /* \"#utility.yul\":25901:25902   */\n      0x00\n        /* \"#utility.yul\":25890:25899   */\n      dup4\n        /* \"#utility.yul\":25886:25903   */\n      add\n        /* \"#utility.yul\":25879:25926   */\n      mstore\n        /* \"#utility.yul\":25943:26074   */\n      tag_627\n        /* \"#utility.yul\":26069:26073   */\n      dup2\n        /* \"#utility.yul\":25943:26074   */\n      tag_392\n      jump\t// in\n    tag_627:\n        /* \"#utility.yul\":25935:26074   */\n      swap1\n      pop\n        /* \"#utility.yul\":25662:26081   */\n      swap2\n      swap1\n      pop\n      jump\t// out\n        /* \"#utility.yul\":26087:26250   */\n    tag_393:\n        /* \"#utility.yul\":26227:26242   */\n      0x496e76616c696420746f6b656e00000000000000000000000000000000000000\n        /* \"#utility.yul\":26223:26224   */\n      0x00\n        /* \"#utility.yul\":26215:26221   */\n      dup3\n        /* \"#utility.yul\":26211:26225   */\n      add\n        /* \"#utility.yul\":26204:26243   */\n      mstore\n        /* \"#utility.yul\":26087:26250   */\n      pop\n      jump\t// out\n        /* \"#utility.yul\":26256:26622   */\n    tag_394:\n        /* \"#utility.yul\":26398:26401   */\n      0x00\n        /* \"#utility.yul\":26419:26486   */\n      tag_630\n        /* \"#utility.yul\":26483:26485   */\n      0x0d\n        /* \"#utility.yul\":26478:26481   */\n      dup4\n        /* \"#utility.yul\":26419:26486   */\n      tag_354\n      jump\t// in\n    tag_630:\n        /* \"#utility.yul\":26412:26486   */\n      swap2\n      pop\n        /* \"#utility.yul\":26495:26588   */\n      tag_631\n        /* \"#utility.yul\":26584:26587   */\n      dup3\n        /* \"#utility.yul\":26495:26588   */\n      tag_393\n      jump\t// in\n    tag_631:\n        /* \"#utility.yul\":26613:26615   */\n      0x20\n        /* \"#utility.yul\":26608:26611   */\n      dup3\n        /* \"#utility.yul\":26604:26616   */\n      add\n        /* \"#utility.yul\":26597:26616   */\n      swap1\n      pop\n        /* \"#utility.yul\":26256:26622   */\n      swap2\n      swap1\n      pop\n      jump\t// out\n        /* \"#utility.yul\":26628:27047   */\n    tag_259:\n        /* \"#utility.yul\":26794:26798   */\n      0x00\n        /* \"#utility.yul\":26832:26834   */\n      0x20\n        /* \"#utility.yul\":26821:26830   */\n      dup3\n        /* \"#utility.yul\":26817:26835   */\n      add\n        /* \"#utility.yul\":26809:26835   */\n      swap1\n      pop\n        /* \"#utility.yul\":26881:26890   */\n      dup2\n        /* \"#utility.yul\":26875:26879   */\n      dup2\n        /* \"#utility.yul\":26871:26891   */\n      sub\n        /* \"#utility.yul\":26867:26868   */\n      0x00\n        /* \"#utility.yul\":26856:26865   */\n      dup4\n        /* \"#utility.yul\":26852:26869   */\n      add\n        /* \"#utility.yul\":26845:26892   */\n      mstore\n        /* \"#utility.yul\":26909:27040   */\n      tag_633\n        /* \"#utility.yul\":27035:27039   */\n      dup2\n        /* \"#utility.yul\":26909:27040   */\n      tag_394\n      jump\t// in\n    tag_633:\n        /* \"#utility.yul\":26901:27040   */\n      swap1\n      pop\n        /* \"#utility.yul\":26628:27047   */\n      swap2\n      swap1\n      pop\n      jump\t// out\n        /* \"#utility.yul\":27053:27217   */\n    tag_395:\n        /* \"#utility.yul\":27193:27209   */\n      0x496e76616c69642073656e646572000000000000000000000000000000000000\n        /* \"#utility.yul\":27189:27190   */\n      0x00\n        /* \"#utility.yul\":27181:27187   */\n      dup3\n        /* \"#utility.yul\":27177:27191   */\n      add\n        /* \"#utility.yul\":27170:27210   */\n      mstore\n        /* \"#utility.yul\":27053:27217   */\n      pop\n      jump\t// out\n        /* \"#utility.yul\":27223:27589   */\n    tag_396:\n        /* \"#utility.yul\":27365:27368   */\n      0x00\n        /* \"#utility.yul\":27386:27453   */\n      tag_636\n        /* \"#utility.yul\":27450:27452   */\n      0x0e\n        /* \"#utility.yul\":27445:27448   */\n      dup4\n        /* \"#utility.yul\":27386:27453   */\n      tag_354\n      jump\t// in\n    tag_636:\n        /* \"#utility.yul\":27379:27453   */\n      swap2\n      pop\n        /* \"#utility.yul\":27462:27555   */\n      tag_637\n        /* \"#utility.yul\":27551:27554   */\n      dup3\n        /* \"#utility.yul\":27462:27555   */\n      tag_395\n      jump\t// in\n    tag_637:\n        /* \"#utility.yul\":27580:27582   */\n      0x20\n        /* \"#utility.yul\":27575:27578   */\n      dup3\n        /* \"#utility.yul\":27571:27583   */\n      add\n        /* \"#utility.yul\":27564:27583   */\n      swap1\n      pop\n        /* \"#utility.yul\":27223:27589   */\n      swap2\n      swap1\n      pop\n      jump\t// out\n        /* \"#utility.yul\":27595:28014   */\n    tag_262:\n        /* \"#utility.yul\":27761:27765   */\n      0x00\n        /* \"#utility.yul\":27799:27801   */\n      0x20\n        /* \"#utility.yul\":27788:27797   */\n      dup3\n        /* \"#utility.yul\":27784:27802   */\n      add\n        /* \"#utility.yul\":27776:27802   */\n      swap1\n      pop\n        /* \"#utility.yul\":27848:27857   */\n      dup2\n        /* \"#utility.yul\":27842:27846   */\n      dup2\n        /* \"#utility.yul\":27838:27858   */\n      sub\n        /* \"#utility.yul\":27834:27835   */\n      0x00\n        /* \"#utility.yul\":27823:27832   */\n      dup4\n        /* \"#utility.yul\":27819:27836   */\n      add\n        /* \"#utility.yul\":27812:27859   */\n      mstore\n        /* \"#utility.yul\":27876:28007   */\n      tag_639\n        /* \"#utility.yul\":28002:28006   */\n      dup2\n        /* \"#utility.yul\":27876:28007   */\n      tag_396\n      jump\t// in\n    tag_639:\n        /* \"#utility.yul\":27868:28007   */\n      swap1\n      pop\n        /* \"#utility.yul\":27595:28014   */\n      swap2\n      swap1\n      pop\n      jump\t// out\n        /* \"#utility.yul\":28020:28193   */\n    tag_397:\n        /* \"#utility.yul\":28160:28185   */\n      0x496e70757420746f6b656e206e6f7420696e2070616972000000000000000000\n        /* \"#utility.yul\":28156:28157   */\n      0x00\n        /* \"#utility.yul\":28148:28154   */\n      dup3\n        /* \"#utility.yul\":28144:28158   */\n      add\n        /* \"#utility.yul\":28137:28186   */\n      mstore\n        /* \"#utility.yul\":28020:28193   */\n      pop\n      jump\t// out\n        /* \"#utility.yul\":28199:28565   */\n    tag_398:\n        /* \"#utility.yul\":28341:28344   */\n      0x00\n        /* \"#utility.yul\":28362:28429   */\n      tag_642\n        /* \"#utility.yul\":28426:28428   */\n      0x17\n        /* \"#utility.yul\":28421:28424   */\n      dup4\n        /* \"#utility.yul\":28362:28429   */\n      tag_354\n      jump\t// in\n    tag_642:\n        /* \"#utility.yul\":28355:28429   */\n      swap2\n      pop\n        /* \"#utility.yul\":28438:28531   */\n      tag_643\n        /* \"#utility.yul\":28527:28530   */\n      dup3\n        /* \"#utility.yul\":28438:28531   */\n      tag_397\n      jump\t// in\n    tag_643:\n        /* \"#utility.yul\":28556:28558   */\n      0x20\n        /* \"#utility.yul\":28551:28554   */\n      dup3\n        /* \"#utility.yul\":28547:28559   */\n      add\n        /* \"#utility.yul\":28540:28559   */\n      swap1\n      pop\n        /* \"#utility.yul\":28199:28565   */\n      swap2\n      swap1\n      pop\n      jump\t// out\n        /* \"#utility.yul\":28571:28990   */\n    tag_268:\n        /* \"#utility.yul\":28737:28741   */\n      0x00\n        /* \"#utility.yul\":28775:28777   */\n      0x20\n        /* \"#utility.yul\":28764:28773   */\n      dup3\n        /* \"#utility.yul\":28760:28778   */\n      add\n        /* \"#utility.yul\":28752:28778   */\n      swap1\n      pop\n        /* \"#utility.yul\":28824:28833   */\n      dup2\n        /* \"#utility.yul\":28818:28822   */\n      dup2\n        /* \"#utility.yul\":28814:28834   */\n      sub\n        /* \"#utility.yul\":28810:28811   */\n      0x00\n        /* \"#utility.yul\":28799:28808   */\n      dup4\n        /* \"#utility.yul\":28795:28812   */\n      add\n        /* \"#utility.yul\":28788:28835   */\n      mstore\n        /* \"#utility.yul\":28852:28983   */\n      tag_645\n        /* \"#utility.yul\":28978:28982   */\n      dup2\n        /* \"#utility.yul\":28852:28983   */\n      tag_398\n      jump\t// in\n    tag_645:\n        /* \"#utility.yul\":28844:28983   */\n      swap1\n      pop\n        /* \"#utility.yul\":28571:28990   */\n      swap2\n      swap1\n      pop\n      jump\t// out\n        /* \"#utility.yul\":28996:29166   */\n    tag_399:\n        /* \"#utility.yul\":29136:29158   */\n      0x496e73756666696369656e7420455448206f7574000000000000000000000000\n        /* \"#utility.yul\":29132:29133   */\n      0x00\n        /* \"#utility.yul\":29124:29130   */\n      dup3\n        /* \"#utility.yul\":29120:29134   */\n      add\n        /* \"#utility.yul\":29113:29159   */\n      mstore\n        /* \"#utility.yul\":28996:29166   */\n      pop\n      jump\t// out\n        /* \"#utility.yul\":29172:29538   */\n    tag_400:\n        /* \"#utility.yul\":29314:29317   */\n      0x00\n        /* \"#utility.yul\":29335:29402   */\n      tag_648\n        /* \"#utility.yul\":29399:29401   */\n      0x14\n        /* \"#utility.yul\":29394:29397   */\n      dup4\n        /* \"#utility.yul\":29335:29402   */\n      tag_354\n      jump\t// in\n    tag_648:\n        /* \"#utility.yul\":29328:29402   */\n      swap2\n      pop\n        /* \"#utility.yul\":29411:29504   */\n      tag_649\n        /* \"#utility.yul\":29500:29503   */\n      dup3\n        /* \"#utility.yul\":29411:29504   */\n      tag_399\n      jump\t// in\n    tag_649:\n        /* \"#utility.yul\":29529:29531   */\n      0x20\n        /* \"#utility.yul\":29524:29527   */\n      dup3\n        /* \"#utility.yul\":29520:29532   */\n      add\n        /* \"#utility.yul\":29513:29532   */\n      swap1\n      pop\n        /* \"#utility.yul\":29172:29538   */\n      swap2\n      swap1\n      pop\n      jump\t// out\n        /* \"#utility.yul\":29544:29963   */\n    tag_292:\n        /* \"#utility.yul\":29710:29714   */\n      0x00\n        /* \"#utility.yul\":29748:29750   */\n      0x20\n        /* \"#utility.yul\":29737:29746   */\n      dup3\n        /* \"#utility.yul\":29733:29751   */\n      add\n        /* \"#utility.yul\":29725:29751   */\n      swap1\n      pop\n        /* \"#utility.yul\":29797:29806   */\n      dup2\n        /* \"#utility.yul\":29791:29795   */\n      dup2\n        /* \"#utility.yul\":29787:29807   */\n      sub\n        /* \"#utility.yul\":29783:29784   */\n      0x00\n        /* \"#utility.yul\":29772:29781   */\n      dup4\n        /* \"#utility.yul\":29768:29785   */\n      add\n        /* \"#utility.yul\":29761:29808   */\n      mstore\n        /* \"#utility.yul\":29825:29956   */\n      tag_651\n        /* \"#utility.yul\":29951:29955   */\n      dup2\n        /* \"#utility.yul\":29825:29956   */\n      tag_400\n      jump\t// in\n    tag_651:\n        /* \"#utility.yul\":29817:29956   */\n      swap1\n      pop\n        /* \"#utility.yul\":29544:29963   */\n      swap2\n      swap1\n      pop\n      jump\t// out\n        /* \"#utility.yul\":29969:30116   */\n    tag_401:\n        /* \"#utility.yul\":30070:30081   */\n      0x00\n        /* \"#utility.yul\":30107:30110   */\n      dup2\n        /* \"#utility.yul\":30092:30110   */\n      swap1\n      pop\n        /* \"#utility.yul\":29969:30116   */\n      swap3\n      swap2\n      pop\n      pop\n      jump\t// out\n        /* \"#utility.yul\":30122:30236   */\n    tag_402:\n      pop\n      jump\t// out\n        /* \"#utility.yul\":30242:30640   */\n    tag_403:\n        /* \"#utility.yul\":30401:30404   */\n      0x00\n        /* \"#utility.yul\":30422:30505   */\n      tag_655\n        /* \"#utility.yul\":30503:30504   */\n      0x00\n        /* \"#utility.yul\":30498:30501   */\n      dup4\n        /* \"#utility.yul\":30422:30505   */\n      tag_401\n      jump\t// in\n    tag_655:\n        /* \"#utility.yul\":30415:30505   */\n      swap2\n      pop\n        /* \"#utility.yul\":30514:30607   */\n      tag_656\n        /* \"#utility.yul\":30603:30606   */\n      dup3\n        /* \"#utility.yul\":30514:30607   */\n      tag_402\n      jump\t// in\n    tag_656:\n        /* \"#utility.yul\":30632:30633   */\n      0x00\n        /* \"#utility.yul\":30627:30630   */\n      dup3\n        /* \"#utility.yul\":30623:30634   */\n      add\n        /* \"#utility.yul\":30616:30634   */\n      swap1\n      pop\n        /* \"#utility.yul\":30242:30640   */\n      swap2\n      swap1\n      pop\n      jump\t// out\n        /* \"#utility.yul\":30646:31025   */\n    tag_298:\n        /* \"#utility.yul\":30830:30833   */\n      0x00\n        /* \"#utility.yul\":30852:30999   */\n      tag_658\n        /* \"#utility.yul\":30995:30998   */\n      dup3\n        /* \"#utility.yul\":30852:30999   */\n      tag_403\n      jump\t// in\n    tag_658:\n        /* \"#utility.yul\":30845:30999   */\n      swap2\n      pop\n        /* \"#utility.yul\":31016:31019   */\n      dup2\n        /* \"#utility.yul\":31009:31019   */\n      swap1\n      pop\n        /* \"#utility.yul\":30646:31025   */\n      swap2\n      swap1\n      pop\n      jump\t// out\n        /* \"#utility.yul\":31031:31200   */\n    tag_404:\n        /* \"#utility.yul\":31171:31192   */\n      0x455448207472616e73666572206661696c656400000000000000000000000000\n        /* \"#utility.yul\":31167:31168   */\n      0x00\n        /* \"#utility.yul\":31159:31165   */\n      dup3\n        /* \"#utility.yul\":31155:31169   */\n      add\n        /* \"#utility.yul\":31148:31193   */\n      mstore\n        /* \"#utility.yul\":31031:31200   */\n      pop\n      jump\t// out\n        /* \"#utility.yul\":31206:31572   */\n    tag_405:\n        /* \"#utility.yul\":31348:31351   */\n      0x00\n        /* \"#utility.yul\":31369:31436   */\n      tag_661\n        /* \"#utility.yul\":31433:31435   */\n      0x13\n        /* \"#utility.yul\":31428:31431   */\n      dup4\n        /* \"#utility.yul\":31369:31436   */\n      tag_354\n      jump\t// in\n    tag_661:\n        /* \"#utility.yul\":31362:31436   */\n      swap2\n      pop\n        /* \"#utility.yul\":31445:31538   */\n      tag_662\n        /* \"#utility.yul\":31534:31537   */\n      dup3\n        /* \"#utility.yul\":31445:31538   */\n      tag_404\n      jump\t// in\n    tag_662:\n        /* \"#utility.yul\":31563:31565   */\n      0x20\n        /* \"#utility.yul\":31558:31561   */\n      dup3\n        /* \"#utility.yul\":31554:31566   */\n      add\n        /* \"#utility.yul\":31547:31566   */\n      swap1\n      pop\n        /* \"#utility.yul\":31206:31572   */\n      swap2\n      swap1\n      pop\n      jump\t// out\n        /* \"#utility.yul\":31578:31997   */\n    tag_304:\n        /* \"#utility.yul\":31744:31748   */\n      0x00\n        /* \"#utility.yul\":31782:31784   */\n      0x20\n        /* \"#utility.yul\":31771:31780   */\n      dup3\n        /* \"#utility.yul\":31767:31785   */\n      add\n        /* \"#utility.yul\":31759:31785   */\n      swap1\n      pop\n        /* \"#utility.yul\":31831:31840   */\n      dup2\n        /* \"#utility.yul\":31825:31829   */\n      dup2\n        /* \"#utility.yul\":31821:31841   */\n      sub\n        /* \"#utility.yul\":31817:31818   */\n      0x00\n        /* \"#utility.yul\":31806:31815   */\n      dup4\n        /* \"#utility.yul\":31802:31819   */\n      add\n        /* \"#utility.yul\":31795:31842   */\n      mstore\n        /* \"#utility.yul\":31859:31990   */\n      tag_664\n        /* \"#utility.yul\":31985:31989   */\n      dup2\n        /* \"#utility.yul\":31859:31990   */\n      tag_405\n      jump\t// in\n    tag_664:\n        /* \"#utility.yul\":31851:31990   */\n      swap1\n      pop\n        /* \"#utility.yul\":31578:31997   */\n      swap2\n      swap1\n      pop\n      jump\t// out\n        /* \"#utility.yul\":32003:32225   */\n    tag_309:\n        /* \"#utility.yul\":32096:32100   */\n      0x00\n        /* \"#utility.yul\":32134:32136   */\n      0x20\n        /* \"#utility.yul\":32123:32132   */\n      dup3\n        /* \"#utility.yul\":32119:32137   */\n      add\n        /* \"#utility.yul\":32111:32137   */\n      swap1\n      pop\n        /* \"#utility.yul\":32147:32218   */\n      tag_666\n        /* \"#utility.yul\":32215:32216   */\n      0x00\n        /* \"#utility.yul\":32204:32213   */\n      dup4\n        /* \"#utility.yul\":32200:32217   */\n      add\n        /* \"#utility.yul\":32191:32197   */\n      dup5\n        /* \"#utility.yul\":32147:32218   */\n      tag_363\n      jump\t// in\n    tag_666:\n        /* \"#utility.yul\":32003:32225   */\n      swap3\n      swap2\n      pop\n      pop\n      jump\t// out\n        /* \"#utility.yul\":32231:32374   */\n    tag_406:\n        /* \"#utility.yul\":32288:32293   */\n      0x00\n        /* \"#utility.yul\":32319:32325   */\n      dup2\n        /* \"#utility.yul\":32313:32326   */\n      mload\n        /* \"#utility.yul\":32304:32326   */\n      swap1\n      pop\n        /* \"#utility.yul\":32335:32368   */\n      tag_668\n        /* \"#utility.yul\":32362:32367   */\n      dup2\n        /* \"#utility.yul\":32335:32368   */\n      tag_347\n      jump\t// in\n    tag_668:\n        /* \"#utility.yul\":32231:32374   */\n      swap3\n      swap2\n      pop\n      pop\n      jump\t// out\n        /* \"#utility.yul\":32380:32731   */\n    tag_313:\n        /* \"#utility.yul\":32450:32456   */\n      0x00\n        /* \"#utility.yul\":32499:32501   */\n      0x20\n        /* \"#utility.yul\":32487:32496   */\n      dup3\n        /* \"#utility.yul\":32478:32485   */\n      dup5\n        /* \"#utility.yul\":32474:32497   */\n      sub\n        /* \"#utility.yul\":32470:32502   */\n      slt\n        /* \"#utility.yul\":32467:32586   */\n      iszero\n      tag_670\n      jumpi\n        /* \"#utility.yul\":32505:32584   */\n      tag_671\n      tag_345\n      jump\t// in\n    tag_671:\n        /* \"#utility.yul\":32467:32586   */\n    tag_670:\n        /* \"#utility.yul\":32625:32626   */\n      0x00\n        /* \"#utility.yul\":32650:32714   */\n      tag_672\n        /* \"#utility.yul\":32706:32713   */\n      dup5\n        /* \"#utility.yul\":32697:32703   */\n      dup3\n        /* \"#utility.yul\":32686:32695   */\n      dup6\n        /* \"#utility.yul\":32682:32704   */\n      add\n        /* \"#utility.yul\":32650:32714   */\n      tag_406\n      jump\t// in\n    tag_672:\n        /* \"#utility.yul\":32640:32714   */\n      swap2\n      pop\n        /* \"#utility.yul\":32596:32724   */\n      pop\n        /* \"#utility.yul\":32380:32731   */\n      swap3\n      swap2\n      pop\n      pop\n      jump\t// out\n\n    auxdata: 0xa2646970667358221220be6602028d00c31aba9414f69a3932e1ed5776a951571efab67848988bb4ddd364736f6c634300081b0033\n}\n",
				"bytecode": {
					"linkReferences": {},
					"object": "608060405234801561000f575f5ffd5b5060405161318938038061318983398181016040528101906100319190610156565b825f5f6101000a81548173ffffffffffffffffffffffffffffffffffffffff021916908373ffffffffffffffffffffffffffffffffffffffff1602179055508160015f6101000a81548173ffffffffffffffffffffffffffffffffffffffff021916908373ffffffffffffffffffffffffffffffffffffffff1602179055508060025f6101000a81548173ffffffffffffffffffffffffffffffffffffffff021916908373ffffffffffffffffffffffffffffffffffffffff1602179055505050506101a6565b5f5ffd5b5f73ffffffffffffffffffffffffffffffffffffffff82169050919050565b5f610125826100fc565b9050919050565b6101358161011b565b811461013f575f5ffd5b50565b5f815190506101508161012c565b92915050565b5f5f5f6060848603121561016d5761016c6100f8565b5b5f61017a86828701610142565b935050602061018b86828701610142565b925050604061019c86828701610142565b9150509250925092565b612fd6806101b35f395ff3fe6080604052600436106100e0575f3560e01c80639f1d0f591161007e578063b8c876b111610058578063b8c876b11461037c578063d73792a9146103b8578063dc5fa6c5146103e2578063eaf98d231461040c57610135565b80639f1d0f59146102da578063ad5c464814610316578063b04136941461034057610135565b8063483a9d3f116100ba578063483a9d3f146102075780635f64b55b146102375780639c8f9f23146102615780639cd441da1461029e57610135565b80630fc63d101461018957806315770f92146101b357806319e36f3b146101dd57610135565b36610135573373ffffffffffffffffffffffffffffffffffffffff167f88a5966d370b9919b20f3e2c13ff65706f196a4e32cc2c12bf57088f885258743460405161012b9190612118565b60405180910390a2005b3373ffffffffffffffffffffffffffffffffffffffff167faca09dd456ca888dccf8cc966e382e6e3042bb7e4d2d7815015f844edeafce42345f3660405161017f9392919061218b565b60405180910390a2005b348015610194575f5ffd5b5061019d610436565b6040516101aa9190612235565b60405180910390f35b3480156101be575f5ffd5b506101c761045a565b6040516101d49190612118565b60405180910390f35b3480156101e8575f5ffd5b506101f1610460565b6040516101fe9190612118565b60405180910390f35b610221600480360381019061021c919061227c565b610466565b60405161022e9190612118565b60405180910390f35b348015610242575f5ffd5b5061024b610a0e565b6040516102589190612235565b60405180910390f35b34801561026c575f5ffd5b506102876004803603810190610282919061227c565b610a33565b6040516102959291906122a7565b60405180910390f35b3480156102a9575f5ffd5b506102c460048036038101906102bf91906122ce565b610db0565b6040516102d19190612118565b60405180910390f35b3480156102e5575f5ffd5b5061030060048036038101906102fb9190612347565b6111b4565b60405161030d9190612118565b60405180910390f35b348015610321575f5ffd5b5061032a6116b2565b60405161033791906123b7565b60405180910390f35b34801561034b575f5ffd5b5061036660048036038101906103619190612347565b6116d7565b6040516103739190612118565b60405180910390f35b348015610387575f5ffd5b506103a2600480360381019061039d91906123d0565b611f0c565b6040516103af9190612118565b60405180910390f35b3480156103c3575f5ffd5b506103cc611f21565b6040516103d99190612118565b60405180910390f35b3480156103ed575f5ffd5b506103f6611f27565b6040516104039190612118565b60405180910390f35b348015610417575f5ffd5b50610420611f2d565b60405161042d9190612118565b60405180910390f35b5f5f9054906101000a900473ffffffffffffffffffffffffffffffffffffffff1681565b60055481565b60045481565b5f60025f9054906101000a900473ffffffffffffffffffffffffffffffffffffffff1673ffffffffffffffffffffffffffffffffffffffff165f5f9054906101000a900473ffffffffffffffffffffffffffffffffffffffff1673ffffffffffffffffffffffffffffffffffffffff16148061054f575060025f9054906101000a900473ffffffffffffffffffffffffffffffffffffffff1673ffffffffffffffffffffffffffffffffffffffff1660015f9054906101000a900473ffffffffffffffffffffffffffffffffffffffff1673ffffffffffffffffffffffffffffffffffffffff16145b61058e576040517f08c379a000000000000000000000000000000000000000000000000000000000815260040161058590612455565b60405180910390fd5b5f34116105d0576040517f08c379a00000000000000000000000000000000000000000000000000000000081526004016105c7906124bd565b60405180910390fd5b60025f9054906101000a900473ffffffffffffffffffffffffffffffffffffffff1673ffffffffffffffffffffffffffffffffffffffff1663d0e30db0346040518263ffffffff1660e01b81526004015f604051808303818588803b158015610637575f5ffd5b505af1158015610649573d5f5f3e3d5ffd5b50505050505f60025f9054906101000a900473ffffffffffffffffffffffffffffffffffffffff1673ffffffffffffffffffffffffffffffffffffffff165f5f9054906101000a900473ffffffffffffffffffffffffffffffffffffffff1673ffffffffffffffffffffffffffffffffffffffff161490505f816106cf576004546106d3565b6003545b90505f826106e3576003546106e7565b6004545b90505f6103e860056103e86106fc9190612508565b34610707919061253b565b61071191906125a9565b9050808361071f91906125d9565b828261072b919061253b565b61073591906125a9565b94508585101561077a576040517f08c379a000000000000000000000000000000000000000000000000000000000815260040161077190612656565b60405180910390fd5b83156108605760015f9054906101000a900473ffffffffffffffffffffffffffffffffffffffff1673ffffffffffffffffffffffffffffffffffffffff1663a9059cbb33876040518363ffffffff1660e01b81526004016107dc929190612683565b6020604051808303815f875af11580156107f8573d5f5f3e3d5ffd5b505050506040513d601f19601f8201168201806040525081019061081c91906126df565b61085b576040517f08c379a000000000000000000000000000000000000000000000000000000000815260040161085290612754565b60405180910390fd5b61093b565b5f5f9054906101000a900473ffffffffffffffffffffffffffffffffffffffff1673ffffffffffffffffffffffffffffffffffffffff1663a9059cbb33876040518363ffffffff1660e01b81526004016108bb929190612683565b6020604051808303815f875af11580156108d7573d5f5f3e3d5ffd5b505050506040513d601f19601f820116820180604052508101906108fb91906126df565b61093a576040517f08c379a0000000000000000000000000000000000000000000000000000000008152600401610931906127bc565b60405180910390fd5b5b610943611f32565b3373ffffffffffffffffffffffffffffffffffffffff167f5380cf97d8f645d3c4896da60c053458dca03a3a31cec642ac80e1ddf0d8d02a60025f9054906101000a900473ffffffffffffffffffffffffffffffffffffffff1634876109c9575f5f9054906101000a900473ffffffffffffffffffffffffffffffffffffffff166109ec565b60015f9054906101000a900473ffffffffffffffffffffffffffffffffffffffff165b896040516109fd94939291906127da565b60405180910390a250505050919050565b60015f9054906101000a900473ffffffffffffffffffffffffffffffffffffffff1681565b5f5f5f8311610a77576040517f08c379a0000000000000000000000000000000000000000000000000000000008152600401610a6e90612867565b60405180910390fd5b8260065f3373ffffffffffffffffffffffffffffffffffffffff1673ffffffffffffffffffffffffffffffffffffffff1681526020019081526020015f20541015610af7576040517f08c379a0000000000000000000000000000000000000000000000000000000008152600401610aee906128cf565b60405180910390fd5b60055460035484610b08919061253b565b610b1291906125a9565b915060055460045484610b25919061253b565b610b2f91906125a9565b90508260065f3373ffffffffffffffffffffffffffffffffffffffff1673ffffffffffffffffffffffffffffffffffffffff1681526020019081526020015f205f828254610b7d9190612508565b925050819055508260055f828254610b959190612508565b925050819055505f5f9054906101000a900473ffffffffffffffffffffffffffffffffffffffff1673ffffffffffffffffffffffffffffffffffffffff1663a9059cbb33846040518363ffffffff1660e01b8152600401610bf7929190612683565b6020604051808303815f875af1158015610c13573d5f5f3e3d5ffd5b505050506040513d601f19601f82011682018060405250810190610c3791906126df565b610c76576040517f08c379a0000000000000000000000000000000000000000000000000000000008152600401610c6d90612937565b60405180910390fd5b60015f9054906101000a900473ffffffffffffffffffffffffffffffffffffffff1673ffffffffffffffffffffffffffffffffffffffff1663a9059cbb33836040518363ffffffff1660e01b8152600401610cd2929190612683565b6020604051808303815f875af1158015610cee573d5f5f3e3d5ffd5b505050506040513d601f19601f82011682018060405250810190610d1291906126df565b610d51576040517f08c379a0000000000000000000000000000000000000000000000000000000008152600401610d489061299f565b60405180910390fd5b610d59611f32565b3373ffffffffffffffffffffffffffffffffffffffff167f1dc8bb69df2b8e91fbdcbfcf93d951b3f0000f085a95fe3f7946d6161439245d838386604051610da3939291906129bd565b60405180910390a2915091565b5f5f83118015610dbf57505f82115b610dfe576040517f08c379a0000000000000000000000000000000000000000000000000000000008152600401610df590612a3c565b60405180910390fd5b5f5f9054906101000a900473ffffffffffffffffffffffffffffffffffffffff1673ffffffffffffffffffffffffffffffffffffffff166323b872dd3330866040518463ffffffff1660e01b8152600401610e5b93929190612a5a565b6020604051808303815f875af1158015610e77573d5f5f3e3d5ffd5b505050506040513d601f19601f82011682018060405250810190610e9b91906126df565b610eda576040517f08c379a0000000000000000000000000000000000000000000000000000000008152600401610ed190612937565b60405180910390fd5b60015f9054906101000a900473ffffffffffffffffffffffffffffffffffffffff1673ffffffffffffffffffffffffffffffffffffffff166323b872dd3330856040518463ffffffff1660e01b8152600401610f3893929190612a5a565b6020604051808303815f875af1158015610f54573d5f5f3e3d5ffd5b505050506040513d601f19601f82011682018060405250810190610f7891906126df565b610fb7576040517f08c379a0000000000000000000000000000000000000000000000000000000008152600401610fae9061299f565b60405180910390fd5b5f6005540361106657610fd48284610fcf919061253b565b612071565b90505f8111611018576040517f08c379a000000000000000000000000000000000000000000000000000000000815260040161100f90612ad9565b60405180910390fd5b806005819055508060065f3373ffffffffffffffffffffffffffffffffffffffff1673ffffffffffffffffffffffffffffffffffffffff1681526020019081526020015f2081905550611154565b6110a46003546005548561107a919061253b565b61108491906125a9565b60045460055485611095919061253b565b61109f91906125a9565b6120e8565b90505f81116110e8576040517f08c379a00000000000000000000000000000000000000000000000000000000081526004016110df90612ad9565b60405180910390fd5b8060065f3373ffffffffffffffffffffffffffffffffffffffff1673ffffffffffffffffffffffffffffffffffffffff1681526020019081526020015f205f82825461113491906125d9565b925050819055508060055f82825461114c91906125d9565b925050819055505b61115c611f32565b3373ffffffffffffffffffffffffffffffffffffffff167f64b83944e79c3ce8d4c297411de637c3e102d064677aac0c163976ebdcd6f50e8484846040516111a6939291906129bd565b60405180910390a292915050565b5f5f5f9054906101000a900473ffffffffffffffffffffffffffffffffffffffff1673ffffffffffffffffffffffffffffffffffffffff168473ffffffffffffffffffffffffffffffffffffffff16148061125b575060015f9054906101000a900473ffffffffffffffffffffffffffffffffffffffff1673ffffffffffffffffffffffffffffffffffffffff168473ffffffffffffffffffffffffffffffffffffffff16145b61129a576040517f08c379a000000000000000000000000000000000000000000000000000000000815260040161129190612b41565b60405180910390fd5b5f83116112dc576040517f08c379a00000000000000000000000000000000000000000000000000000000081526004016112d390612ba9565b60405180910390fd5b5f8490505f5f5f9054906101000a900473ffffffffffffffffffffffffffffffffffffffff1673ffffffffffffffffffffffffffffffffffffffff168673ffffffffffffffffffffffffffffffffffffffff161461135a575f5f9054906101000a900473ffffffffffffffffffffffffffffffffffffffff1661137d565b60015f9054906101000a900473ffffffffffffffffffffffffffffffffffffffff165b90505f5f5f9054906101000a900473ffffffffffffffffffffffffffffffffffffffff1673ffffffffffffffffffffffffffffffffffffffff168773ffffffffffffffffffffffffffffffffffffffff16146113db576004546113df565b6003545b90505f5f5f9054906101000a900473ffffffffffffffffffffffffffffffffffffffff1673ffffffffffffffffffffffffffffffffffffffff168873ffffffffffffffffffffffffffffffffffffffff161461143d57600354611441565b6004545b90508373ffffffffffffffffffffffffffffffffffffffff166323b872dd33308a6040518463ffffffff1660e01b815260040161148093929190612a5a565b6020604051808303815f875af115801561149c573d5f5f3e3d5ffd5b505050506040513d601f19601f820116820180604052508101906114c091906126df565b6114ff576040517f08c379a00000000000000000000000000000000000000000000000000000000081526004016114f690612c11565b60405180910390fd5b5f6103e860056103e86115129190612508565b8961151d919061253b565b61152791906125a9565b9050808361153591906125d9565b8282611541919061253b565b61154b91906125a9565b955086861015611590576040517f08c379a000000000000000000000000000000000000000000000000000000000815260040161158790612c79565b60405180910390fd5b8373ffffffffffffffffffffffffffffffffffffffff1663a9059cbb33886040518363ffffffff1660e01b81526004016115cb929190612683565b6020604051808303815f875af11580156115e7573d5f5f3e3d5ffd5b505050506040513d601f19601f8201168201806040525081019061160b91906126df565b61164a576040517f08c379a000000000000000000000000000000000000000000000000000000000815260040161164190612ce1565b60405180910390fd5b611652611f32565b3373ffffffffffffffffffffffffffffffffffffffff167f5380cf97d8f645d3c4896da60c053458dca03a3a31cec642ac80e1ddf0d8d02a8a8a878a60405161169e94939291906127da565b60405180910390a250505050509392505050565b60025f9054906101000a900473ffffffffffffffffffffffffffffffffffffffff1681565b5f5f5f9054906101000a900473ffffffffffffffffffffffffffffffffffffffff1673ffffffffffffffffffffffffffffffffffffffff168473ffffffffffffffffffffffffffffffffffffffff16148061177e575060015f9054906101000a900473ffffffffffffffffffffffffffffffffffffffff1673ffffffffffffffffffffffffffffffffffffffff168473ffffffffffffffffffffffffffffffffffffffff16145b6117bd576040517f08c379a00000000000000000000000000000000000000000000000000000000081526004016117b490612d49565b60405180910390fd5b5f73ffffffffffffffffffffffffffffffffffffffff163373ffffffffffffffffffffffffffffffffffffffff160361182b576040517f08c379a000000000000000000000000000000000000000000000000000000000815260040161182290612db1565b60405180910390fd5b5f831161186d576040517f08c379a000000000000000000000000000000000000000000000000000000000815260040161186490612ba9565b60405180910390fd5b5f60025f9054906101000a900473ffffffffffffffffffffffffffffffffffffffff1673ffffffffffffffffffffffffffffffffffffffff165f5f9054906101000a900473ffffffffffffffffffffffffffffffffffffffff1673ffffffffffffffffffffffffffffffffffffffff161490508473ffffffffffffffffffffffffffffffffffffffff165f5f9054906101000a900473ffffffffffffffffffffffffffffffffffffffff1673ffffffffffffffffffffffffffffffffffffffff16148061198657508473ffffffffffffffffffffffffffffffffffffffff1660015f9054906101000a900473ffffffffffffffffffffffffffffffffffffffff1673ffffffffffffffffffffffffffffffffffffffff16145b6119c5576040517f08c379a00000000000000000000000000000000000000000000000000000000081526004016119bc90612e19565b60405180910390fd5b60025f9054906101000a900473ffffffffffffffffffffffffffffffffffffffff1673ffffffffffffffffffffffffffffffffffffffff165f5f9054906101000a900473ffffffffffffffffffffffffffffffffffffffff1673ffffffffffffffffffffffffffffffffffffffff161480611aad575060025f9054906101000a900473ffffffffffffffffffffffffffffffffffffffff1673ffffffffffffffffffffffffffffffffffffffff1660015f9054906101000a900473ffffffffffffffffffffffffffffffffffffffff1673ffffffffffffffffffffffffffffffffffffffff16145b611aec576040517f08c379a0000000000000000000000000000000000000000000000000000000008152600401611ae390612455565b60405180910390fd5b5f8590505f82611b1c575f5f9054906101000a900473ffffffffffffffffffffffffffffffffffffffff16611b3f565b60015f9054906101000a900473ffffffffffffffffffffffffffffffffffffffff165b90505f5f5f9054906101000a900473ffffffffffffffffffffffffffffffffffffffff1673ffffffffffffffffffffffffffffffffffffffff168873ffffffffffffffffffffffffffffffffffffffff1614611b9d57600454611ba1565b6003545b90505f5f5f9054906101000a900473ffffffffffffffffffffffffffffffffffffffff1673ffffffffffffffffffffffffffffffffffffffff168973ffffffffffffffffffffffffffffffffffffffff1614611bff57600354611c03565b6004545b90508373ffffffffffffffffffffffffffffffffffffffff166323b872dd33308b6040518463ffffffff1660e01b8152600401611c4293929190612a5a565b6020604051808303815f875af1158015611c5e573d5f5f3e3d5ffd5b505050506040513d601f19601f82011682018060405250810190611c8291906126df565b611cc1576040517f08c379a0000000000000000000000000000000000000000000000000000000008152600401611cb890612c11565b60405180910390fd5b5f6103e860056103e8611cd49190612508565b8a611cdf919061253b565b611ce991906125a9565b90508083611cf791906125d9565b8282611d03919061253b565b611d0d91906125a9565b965087871015611d52576040517f08c379a0000000000000000000000000000000000000000000000000000000008152600401611d4990612e81565b60405180910390fd5b60025f9054906101000a900473ffffffffffffffffffffffffffffffffffffffff1673ffffffffffffffffffffffffffffffffffffffff16632e1a7d4d886040518263ffffffff1660e01b8152600401611dac9190612118565b5f604051808303815f87803b158015611dc3575f5ffd5b505af1158015611dd5573d5f5f3e3d5ffd5b505050505f3373ffffffffffffffffffffffffffffffffffffffff1688604051611dfe90612ecc565b5f6040518083038185875af1925050503d805f8114611e38576040519150601f19603f3d011682016040523d82523d5f602084013e611e3d565b606091505b5050905080611e81576040517f08c379a0000000000000000000000000000000000000000000000000000000008152600401611e7890612f2a565b60405180910390fd5b611e89611f32565b3373ffffffffffffffffffffffffffffffffffffffff167f5380cf97d8f645d3c4896da60c053458dca03a3a31cec642ac80e1ddf0d8d02a8c8c60025f9054906101000a900473ffffffffffffffffffffffffffffffffffffffff168c604051611ef694939291906127da565b60405180910390a2505050505050509392505050565b6006602052805f5260405f205f915090505481565b6103e881565b60035481565b600581565b5f5f9054906101000a900473ffffffffffffffffffffffffffffffffffffffff1673ffffffffffffffffffffffffffffffffffffffff166370a08231306040518263ffffffff1660e01b8152600401611f8b9190612f48565b602060405180830381865afa158015611fa6573d5f5f3e3d5ffd5b505050506040513d601f19601f82011682018060405250810190611fca9190612f75565b60038190555060015f9054906101000a900473ffffffffffffffffffffffffffffffffffffffff1673ffffffffffffffffffffffffffffffffffffffff166370a08231306040518263ffffffff1660e01b815260040161202a9190612f48565b602060405180830381865afa158015612045573d5f5f3e3d5ffd5b505050506040513d601f19601f820116820180604052508101906120699190612f75565b600481905550565b5f60038211156120d6578190505f600160028461208e91906125a9565b61209891906125d9565b90505b818110156120d05780915060028182856120b591906125a9565b6120bf91906125d9565b6120c991906125a9565b905061209b565b506120e3565b5f82146120e257600190505b5b919050565b5f8183106120f657816120f8565b825b905092915050565b5f819050919050565b61211281612100565b82525050565b5f60208201905061212b5f830184612109565b92915050565b5f82825260208201905092915050565b828183375f83830152505050565b5f601f19601f8301169050919050565b5f61216a8385612131565b9350612177838584612141565b6121808361214f565b840190509392505050565b5f60408201905061219e5f830186612109565b81810360208301526121b181848661215f565b9050949350505050565b5f73ffffffffffffffffffffffffffffffffffffffff82169050919050565b5f819050919050565b5f6121fd6121f86121f3846121bb565b6121da565b6121bb565b9050919050565b5f61220e826121e3565b9050919050565b5f61221f82612204565b9050919050565b61222f81612215565b82525050565b5f6020820190506122485f830184612226565b92915050565b5f5ffd5b61225b81612100565b8114612265575f5ffd5b50565b5f8135905061227681612252565b92915050565b5f602082840312156122915761229061224e565b5b5f61229e84828501612268565b91505092915050565b5f6040820190506122ba5f830185612109565b6122c76020830184612109565b9392505050565b5f5f604083850312156122e4576122e361224e565b5b5f6122f185828601612268565b925050602061230285828601612268565b9150509250929050565b5f612316826121bb565b9050919050565b6123268161230c565b8114612330575f5ffd5b50565b5f813590506123418161231d565b92915050565b5f5f5f6060848603121561235e5761235d61224e565b5b5f61236b86828701612333565b935050602061237c86828701612268565b925050604061238d86828701612268565b9150509250925092565b5f6123a182612204565b9050919050565b6123b181612397565b82525050565b5f6020820190506123ca5f8301846123a8565b92915050565b5f602082840312156123e5576123e461224e565b5b5f6123f284828501612333565b91505092915050565b5f82825260208201905092915050565b7f57455448206e6f7420696e2070616972000000000000000000000000000000005f82015250565b5f61243f6010836123fb565b915061244a8261240b565b602082019050919050565b5f6020820190508181035f83015261246c81612433565b9050919050565b7f4d7573742073656e6420455448000000000000000000000000000000000000005f82015250565b5f6124a7600d836123fb565b91506124b282612473565b602082019050919050565b5f6020820190508181035f8301526124d48161249b565b9050919050565b7f4e487b71000000000000000000000000000000000000000000000000000000005f52601160045260245ffd5b5f61251282612100565b915061251d83612100565b9250828203905081811115612535576125346124db565b5b92915050565b5f61254582612100565b915061255083612100565b925082820261255e81612100565b91508282048414831517612575576125746124db565b5b5092915050565b7f4e487b71000000000000000000000000000000000000000000000000000000005f52601260045260245ffd5b5f6125b382612100565b91506125be83612100565b9250826125ce576125cd61257c565b5b828204905092915050565b5f6125e382612100565b91506125ee83612100565b9250828201905080821115612606576126056124db565b5b92915050565b7f496e73756666696369656e74206f7574707574000000000000000000000000005f82015250565b5f6126406013836123fb565b915061264b8261260c565b602082019050919050565b5f6020820190508181035f83015261266d81612634565b9050919050565b61267d8161230c565b82525050565b5f6040820190506126965f830185612674565b6126a36020830184612109565b9392505050565b5f8115159050919050565b6126be816126aa565b81146126c8575f5ffd5b50565b5f815190506126d9816126b5565b92915050565b5f602082840312156126f4576126f361224e565b5b5f612701848285016126cb565b91505092915050565b7f5472616e7366657220746f6b656e42206661696c6564000000000000000000005f82015250565b5f61273e6016836123fb565b91506127498261270a565b602082019050919050565b5f6020820190508181035f83015261276b81612732565b9050919050565b7f5472616e7366657220746f6b656e41206661696c6564000000000000000000005f82015250565b5f6127a66016836123fb565b91506127b182612772565b602082019050919050565b5f6020820190508181035f8301526127d38161279a565b9050919050565b5f6080820190506127ed5f830187612674565b6127fa6020830186612109565b6128076040830185612674565b6128146060830184612109565b95945050505050565b7f4c6971756964697479206d757374206265203e203000000000000000000000005f82015250565b5f6128516015836123fb565b915061285c8261281d565b602082019050919050565b5f6020820190508181035f83015261287e81612845565b9050919050565b7f4e6f7420656e6f756768206c69717569646974790000000000000000000000005f82015250565b5f6128b96014836123fb565b91506128c482612885565b602082019050919050565b5f6020820190508181035f8301526128e6816128ad565b9050919050565b7f5472616e736665722041206661696c65640000000000000000000000000000005f82015250565b5f6129216011836123fb565b915061292c826128ed565b602082019050919050565b5f6020820190508181035f83015261294e81612915565b9050919050565b7f5472616e736665722042206661696c65640000000000000000000000000000005f82015250565b5f6129896011836123fb565b915061299482612955565b602082019050919050565b5f6020820190508181035f8301526129b68161297d565b9050919050565b5f6060820190506129d05f830186612109565b6129dd6020830185612109565b6129ea6040830184612109565b949350505050565b7f416d6f756e7473206d757374206265203e2030000000000000000000000000005f82015250565b5f612a266013836123fb565b9150612a31826129f2565b602082019050919050565b5f6020820190508181035f830152612a5381612a1a565b9050919050565b5f606082019050612a6d5f830186612674565b612a7a6020830185612674565b612a876040830184612109565b949350505050565b7f496e73756666696369656e74206c6971756964697479206d696e7465640000005f82015250565b5f612ac3601d836123fb565b9150612ace82612a8f565b602082019050919050565b5f6020820190508181035f830152612af081612ab7565b9050919050565b7f496e76616c696420696e70757420746f6b656e000000000000000000000000005f82015250565b5f612b2b6013836123fb565b9150612b3682612af7565b602082019050919050565b5f6020820190508181035f830152612b5881612b1f565b9050919050565b7f416d6f756e74496e203e203000000000000000000000000000000000000000005f82015250565b5f612b93600c836123fb565b9150612b9e82612b5f565b602082019050919050565b5f6020820190508181035f830152612bc081612b87565b9050919050565b7f5472616e7366657220696e206661696c656400000000000000000000000000005f82015250565b5f612bfb6012836123fb565b9150612c0682612bc7565b602082019050919050565b5f6020820190508181035f830152612c2881612bef565b9050919050565b7f496e73756666696369656e74206f757470757420616d6f756e740000000000005f82015250565b5f612c63601a836123fb565b9150612c6e82612c2f565b602082019050919050565b5f6020820190508181035f830152612c9081612c57565b9050919050565b7f5472616e73666572206f7574206661696c6564000000000000000000000000005f82015250565b5f612ccb6013836123fb565b9150612cd682612c97565b602082019050919050565b5f6020820190508181035f830152612cf881612cbf565b9050919050565b7f496e76616c696420746f6b656e000000000000000000000000000000000000005f82015250565b5f612d33600d836123fb565b9150612d3e82612cff565b602082019050919050565b5f6020820190508181035f830152612d6081612d27565b9050919050565b7f496e76616c69642073656e6465720000000000000000000000000000000000005f82015250565b5f612d9b600e836123fb565b9150612da682612d67565b602082019050919050565b5f6020820190508181035f830152612dc881612d8f565b9050919050565b7f496e70757420746f6b656e206e6f7420696e20706169720000000000000000005f82015250565b5f612e036017836123fb565b9150612e0e82612dcf565b602082019050919050565b5f6020820190508181035f830152612e3081612df7565b9050919050565b7f496e73756666696369656e7420455448206f75740000000000000000000000005f82015250565b5f612e6b6014836123fb565b9150612e7682612e37565b602082019050919050565b5f6020820190508181035f830152612e9881612e5f565b9050919050565b5f81905092915050565b50565b5f612eb75f83612e9f565b9150612ec282612ea9565b5f82019050919050565b5f612ed682612eac565b9150819050919050565b7f455448207472616e73666572206661696c6564000000000000000000000000005f82015250565b5f612f146013836123fb565b9150612f1f82612ee0565b602082019050919050565b5f6020820190508181035f830152612f4181612f08565b9050919050565b5f602082019050612f5b5f830184612674565b92915050565b5f81519050612f6f81612252565b92915050565b5f60208284031215612f8a57612f8961224e565b5b5f612f9784828501612f61565b9150509291505056fea2646970667358221220be6602028d00c31aba9414f69a3932e1ed5776a951571efab67848988bb4ddd364736f6c634300081b0033",
					"opcodes": "PUSH1 0x80 PUSH1 0x40 MSTORE CALLVALUE DUP1 ISZERO PUSH2 0xF JUMPI PUSH0 PUSH0 REVERT JUMPDEST POP PUSH1 0x40 MLOAD PUSH2 0x3189 CODESIZE SUB DUP1 PUSH2 0x3189 DUP4 CODECOPY DUP2 DUP2 ADD PUSH1 0x40 MSTORE DUP2 ADD SWAP1 PUSH2 0x31 SWAP2 SWAP1 PUSH2 0x156 JUMP JUMPDEST DUP3 PUSH0 PUSH0 PUSH2 0x100 EXP DUP2 SLOAD DUP2 PUSH20 0xFFFFFFFFFFFFFFFFFFFFFFFFFFFFFFFFFFFFFFFF MUL NOT AND SWAP1 DUP4 PUSH20 0xFFFFFFFFFFFFFFFFFFFFFFFFFFFFFFFFFFFFFFFF AND MUL OR SWAP1 SSTORE POP DUP2 PUSH1 0x1 PUSH0 PUSH2 0x100 EXP DUP2 SLOAD DUP2 PUSH20 0xFFFFFFFFFFFFFFFFFFFFFFFFFFFFFFFFFFFFFFFF MUL NOT AND SWAP1 DUP4 PUSH20 0xFFFFFFFFFFFFFFFFFFFFFFFFFFFFFFFFFFFFFFFF AND MUL OR SWAP1 SSTORE POP DUP1 PUSH1 0x2 PUSH0 PUSH2 0x100 EXP DUP2 SLOAD DUP2 PUSH20 0xFFFFFFFFFFFFFFFFFFFFFFFFFFFFFFFFFFFFFFFF MUL NOT AND SWAP1 DUP4 PUSH20 0xFFFFFFFFFFFFFFFFFFFFFFFFFFFFFFFFFFFFFFFF AND MUL OR SWAP1 SSTORE POP POP POP POP PUSH2 0x1A6 JUMP JUMPDEST PUSH0 PUSH0 REVERT JUMPDEST PUSH0 PUSH20 0xFFFFFFFFFFFFFFFFFFFFFFFFFFFFFFFFFFFFFFFF DUP3 AND SWAP1 POP SWAP2 SWAP1 POP JUMP JUMPDEST PUSH0 PUSH2 0x125 DUP3 PUSH2 0xFC JUMP JUMPDEST SWAP1 POP SWAP2 SWAP1 POP JUMP JUMPDEST PUSH2 0x135 DUP2 PUSH2 0x11B JUMP JUMPDEST DUP2 EQ PUSH2 0x13F JUMPI PUSH0 PUSH0 REVERT JUMPDEST POP JUMP JUMPDEST PUSH0 DUP2 MLOAD SWAP1 POP PUSH2 0x150 DUP2 PUSH2 0x12C JUMP JUMPDEST SWAP3 SWAP2 POP POP JUMP JUMPDEST PUSH0 PUSH0 PUSH0 PUSH1 0x60 DUP5 DUP7 SUB SLT ISZERO PUSH2 0x16D JUMPI PUSH2 0x16C PUSH2 0xF8 JUMP JUMPDEST JUMPDEST PUSH0 PUSH2 0x17A DUP7 DUP3 DUP8 ADD PUSH2 0x142 JUMP JUMPDEST SWAP4 POP POP PUSH1 0x20 PUSH2 0x18B DUP7 DUP3 DUP8 ADD PUSH2 0x142 JUMP JUMPDEST SWAP3 POP POP PUSH1 0x40 PUSH2 0x19C DUP7 DUP3 DUP8 ADD PUSH2 0x142 JUMP JUMPDEST SWAP2 POP POP SWAP3 POP SWAP3 POP SWAP3 JUMP JUMPDEST PUSH2 0x2FD6 DUP1 PUSH2 0x1B3 PUSH0 CODECOPY PUSH0 RETURN INVALID PUSH1 0x80 PUSH1 0x40 MSTORE PUSH1 0x4 CALLDATASIZE LT PUSH2 0xE0 JUMPI PUSH0 CALLDATALOAD PUSH1 0xE0 SHR DUP1 PUSH4 0x9F1D0F59 GT PUSH2 0x7E JUMPI DUP1 PUSH4 0xB8C876B1 GT PUSH2 0x58 JUMPI DUP1 PUSH4 0xB8C876B1 EQ PUSH2 0x37C JUMPI DUP1 PUSH4 0xD73792A9 EQ PUSH2 0x3B8 JUMPI DUP1 PUSH4 0xDC5FA6C5 EQ PUSH2 0x3E2 JUMPI DUP1 PUSH4 0xEAF98D23 EQ PUSH2 0x40C JUMPI PUSH2 0x135 JUMP JUMPDEST DUP1 PUSH4 0x9F1D0F59 EQ PUSH2 0x2DA JUMPI DUP1 PUSH4 0xAD5C4648 EQ PUSH2 0x316 JUMPI DUP1 PUSH4 0xB0413694 EQ PUSH2 0x340 JUMPI PUSH2 0x135 JUMP JUMPDEST DUP1 PUSH4 0x483A9D3F GT PUSH2 0xBA JUMPI DUP1 PUSH4 0x483A9D3F EQ PUSH2 0x207 JUMPI DUP1 PUSH4 0x5F64B55B EQ PUSH2 0x237 JUMPI DUP1 PUSH4 0x9C8F9F23 EQ PUSH2 0x261 JUMPI DUP1 PUSH4 0x9CD441DA EQ PUSH2 0x29E JUMPI PUSH2 0x135 JUMP JUMPDEST DUP1 PUSH4 0xFC63D10 EQ PUSH2 0x189 JUMPI DUP1 PUSH4 0x15770F92 EQ PUSH2 0x1B3 JUMPI DUP1 PUSH4 0x19E36F3B EQ PUSH2 0x1DD JUMPI PUSH2 0x135 JUMP JUMPDEST CALLDATASIZE PUSH2 0x135 JUMPI CALLER PUSH20 0xFFFFFFFFFFFFFFFFFFFFFFFFFFFFFFFFFFFFFFFF AND PUSH32 0x88A5966D370B9919B20F3E2C13FF65706F196A4E32CC2C12BF57088F88525874 CALLVALUE PUSH1 0x40 MLOAD PUSH2 0x12B SWAP2 SWAP1 PUSH2 0x2118 JUMP JUMPDEST PUSH1 0x40 MLOAD DUP1 SWAP2 SUB SWAP1 LOG2 STOP JUMPDEST CALLER PUSH20 0xFFFFFFFFFFFFFFFFFFFFFFFFFFFFFFFFFFFFFFFF AND PUSH32 0xACA09DD456CA888DCCF8CC966E382E6E3042BB7E4D2D7815015F844EDEAFCE42 CALLVALUE PUSH0 CALLDATASIZE PUSH1 0x40 MLOAD PUSH2 0x17F SWAP4 SWAP3 SWAP2 SWAP1 PUSH2 0x218B JUMP JUMPDEST PUSH1 0x40 MLOAD DUP1 SWAP2 SUB SWAP1 LOG2 STOP JUMPDEST CALLVALUE DUP1 ISZERO PUSH2 0x194 JUMPI PUSH0 PUSH0 REVERT JUMPDEST POP PUSH2 0x19D PUSH2 0x436 JUMP JUMPDEST PUSH1 0x40 MLOAD PUSH2 0x1AA SWAP2 SWAP1 PUSH2 0x2235 JUMP JUMPDEST PUSH1 0x40 MLOAD DUP1 SWAP2 SUB SWAP1 RETURN JUMPDEST CALLVALUE DUP1 ISZERO PUSH2 0x1BE JUMPI PUSH0 PUSH0 REVERT JUMPDEST POP PUSH2 0x1C7 PUSH2 0x45A JUMP JUMPDEST PUSH1 0x40 MLOAD PUSH2 0x1D4 SWAP2 SWAP1 PUSH2 0x2118 JUMP JUMPDEST PUSH1 0x40 MLOAD DUP1 SWAP2 SUB SWAP1 RETURN JUMPDEST CALLVALUE DUP1 ISZERO PUSH2 0x1E8 JUMPI PUSH0 PUSH0 REVERT JUMPDEST POP PUSH2 0x1F1 PUSH2 0x460 JUMP JUMPDEST PUSH1 0x40 MLOAD PUSH2 0x1FE SWAP2 SWAP1 PUSH2 0x2118 JUMP JUMPDEST PUSH1 0x40 MLOAD DUP1 SWAP2 SUB SWAP1 RETURN JUMPDEST PUSH2 0x221 PUSH1 0x4 DUP1 CALLDATASIZE SUB DUP2 ADD SWAP1 PUSH2 0x21C SWAP2 SWAP1 PUSH2 0x227C JUMP JUMPDEST PUSH2 0x466 JUMP JUMPDEST PUSH1 0x40 MLOAD PUSH2 0x22E SWAP2 SWAP1 PUSH2 0x2118 JUMP JUMPDEST PUSH1 0x40 MLOAD DUP1 SWAP2 SUB SWAP1 RETURN JUMPDEST CALLVALUE DUP1 ISZERO PUSH2 0x242 JUMPI PUSH0 PUSH0 REVERT JUMPDEST POP PUSH2 0x24B PUSH2 0xA0E JUMP JUMPDEST PUSH1 0x40 MLOAD PUSH2 0x258 SWAP2 SWAP1 PUSH2 0x2235 JUMP JUMPDEST PUSH1 0x40 MLOAD DUP1 SWAP2 SUB SWAP1 RETURN JUMPDEST CALLVALUE DUP1 ISZERO PUSH2 0x26C JUMPI PUSH0 PUSH0 REVERT JUMPDEST POP PUSH2 0x287 PUSH1 0x4 DUP1 CALLDATASIZE SUB DUP2 ADD SWAP1 PUSH2 0x282 SWAP2 SWAP1 PUSH2 0x227C JUMP JUMPDEST PUSH2 0xA33 JUMP JUMPDEST PUSH1 0x40 MLOAD PUSH2 0x295 SWAP3 SWAP2 SWAP1 PUSH2 0x22A7 JUMP JUMPDEST PUSH1 0x40 MLOAD DUP1 SWAP2 SUB SWAP1 RETURN JUMPDEST CALLVALUE DUP1 ISZERO PUSH2 0x2A9 JUMPI PUSH0 PUSH0 REVERT JUMPDEST POP PUSH2 0x2C4 PUSH1 0x4 DUP1 CALLDATASIZE SUB DUP2 ADD SWAP1 PUSH2 0x2BF SWAP2 SWAP1 PUSH2 0x22CE JUMP JUMPDEST PUSH2 0xDB0 JUMP JUMPDEST PUSH1 0x40 MLOAD PUSH2 0x2D1 SWAP2 SWAP1 PUSH2 0x2118 JUMP JUMPDEST PUSH1 0x40 MLOAD DUP1 SWAP2 SUB SWAP1 RETURN JUMPDEST CALLVALUE DUP1 ISZERO PUSH2 0x2E5 JUMPI PUSH0 PUSH0 REVERT JUMPDEST POP PUSH2 0x300 PUSH1 0x4 DUP1 CALLDATASIZE SUB DUP2 ADD SWAP1 PUSH2 0x2FB SWAP2 SWAP1 PUSH2 0x2347 JUMP JUMPDEST PUSH2 0x11B4 JUMP JUMPDEST PUSH1 0x40 MLOAD PUSH2 0x30D SWAP2 SWAP1 PUSH2 0x2118 JUMP JUMPDEST PUSH1 0x40 MLOAD DUP1 SWAP2 SUB SWAP1 RETURN JUMPDEST CALLVALUE DUP1 ISZERO PUSH2 0x321 JUMPI PUSH0 PUSH0 REVERT JUMPDEST POP PUSH2 0x32A PUSH2 0x16B2 JUMP JUMPDEST PUSH1 0x40 MLOAD PUSH2 0x337 SWAP2 SWAP1 PUSH2 0x23B7 JUMP JUMPDEST PUSH1 0x40 MLOAD DUP1 SWAP2 SUB SWAP1 RETURN JUMPDEST CALLVALUE DUP1 ISZERO PUSH2 0x34B JUMPI PUSH0 PUSH0 REVERT JUMPDEST POP PUSH2 0x366 PUSH1 0x4 DUP1 CALLDATASIZE SUB DUP2 ADD SWAP1 PUSH2 0x361 SWAP2 SWAP1 PUSH2 0x2347 JUMP JUMPDEST PUSH2 0x16D7 JUMP JUMPDEST PUSH1 0x40 MLOAD PUSH2 0x373 SWAP2 SWAP1 PUSH2 0x2118 JUMP JUMPDEST PUSH1 0x40 MLOAD DUP1 SWAP2 SUB SWAP1 RETURN JUMPDEST CALLVALUE DUP1 ISZERO PUSH2 0x387 JUMPI PUSH0 PUSH0 REVERT JUMPDEST POP PUSH2 0x3A2 PUSH1 0x4 DUP1 CALLDATASIZE SUB DUP2 ADD SWAP1 PUSH2 0x39D SWAP2 SWAP1 PUSH2 0x23D0 JUMP JUMPDEST PUSH2 0x1F0C JUMP JUMPDEST PUSH1 0x40 MLOAD PUSH2 0x3AF SWAP2 SWAP1 PUSH2 0x2118 JUMP JUMPDEST PUSH1 0x40 MLOAD DUP1 SWAP2 SUB SWAP1 RETURN JUMPDEST CALLVALUE DUP1 ISZERO PUSH2 0x3C3 JUMPI PUSH0 PUSH0 REVERT JUMPDEST POP PUSH2 0x3CC PUSH2 0x1F21 JUMP JUMPDEST PUSH1 0x40 MLOAD PUSH2 0x3D9 SWAP2 SWAP1 PUSH2 0x2118 JUMP JUMPDEST PUSH1 0x40 MLOAD DUP1 SWAP2 SUB SWAP1 RETURN JUMPDEST CALLVALUE DUP1 ISZERO PUSH2 0x3ED JUMPI PUSH0 PUSH0 REVERT JUMPDEST POP PUSH2 0x3F6 PUSH2 0x1F27 JUMP JUMPDEST PUSH1 0x40 MLOAD PUSH2 0x403 SWAP2 SWAP1 PUSH2 0x2118 JUMP JUMPDEST PUSH1 0x40 MLOAD DUP1 SWAP2 SUB SWAP1 RETURN JUMPDEST CALLVALUE DUP1 ISZERO PUSH2 0x417 JUMPI PUSH0 PUSH0 REVERT JUMPDEST POP PUSH2 0x420 PUSH2 0x1F2D JUMP JUMPDEST PUSH1 0x40 MLOAD PUSH2 0x42D SWAP2 SWAP1 PUSH2 0x2118 JUMP JUMPDEST PUSH1 0x40 MLOAD DUP1 SWAP2 SUB SWAP1 RETURN JUMPDEST PUSH0 PUSH0 SWAP1 SLOAD SWAP1 PUSH2 0x100 EXP SWAP1 DIV PUSH20 0xFFFFFFFFFFFFFFFFFFFFFFFFFFFFFFFFFFFFFFFF AND DUP2 JUMP JUMPDEST PUSH1 0x5 SLOAD DUP2 JUMP JUMPDEST PUSH1 0x4 SLOAD DUP2 JUMP JUMPDEST PUSH0 PUSH1 0x2 PUSH0 SWAP1 SLOAD SWAP1 PUSH2 0x100 EXP SWAP1 DIV PUSH20 0xFFFFFFFFFFFFFFFFFFFFFFFFFFFFFFFFFFFFFFFF AND PUSH20 0xFFFFFFFFFFFFFFFFFFFFFFFFFFFFFFFFFFFFFFFF AND PUSH0 PUSH0 SWAP1 SLOAD SWAP1 PUSH2 0x100 EXP SWAP1 DIV PUSH20 0xFFFFFFFFFFFFFFFFFFFFFFFFFFFFFFFFFFFFFFFF AND PUSH20 0xFFFFFFFFFFFFFFFFFFFFFFFFFFFFFFFFFFFFFFFF AND EQ DUP1 PUSH2 0x54F JUMPI POP PUSH1 0x2 PUSH0 SWAP1 SLOAD SWAP1 PUSH2 0x100 EXP SWAP1 DIV PUSH20 0xFFFFFFFFFFFFFFFFFFFFFFFFFFFFFFFFFFFFFFFF AND PUSH20 0xFFFFFFFFFFFFFFFFFFFFFFFFFFFFFFFFFFFFFFFF AND PUSH1 0x1 PUSH0 SWAP1 SLOAD SWAP1 PUSH2 0x100 EXP SWAP1 DIV PUSH20 0xFFFFFFFFFFFFFFFFFFFFFFFFFFFFFFFFFFFFFFFF AND PUSH20 0xFFFFFFFFFFFFFFFFFFFFFFFFFFFFFFFFFFFFFFFF AND EQ JUMPDEST PUSH2 0x58E JUMPI PUSH1 0x40 MLOAD PUSH32 0x8C379A000000000000000000000000000000000000000000000000000000000 DUP2 MSTORE PUSH1 0x4 ADD PUSH2 0x585 SWAP1 PUSH2 0x2455 JUMP JUMPDEST PUSH1 0x40 MLOAD DUP1 SWAP2 SUB SWAP1 REVERT JUMPDEST PUSH0 CALLVALUE GT PUSH2 0x5D0 JUMPI PUSH1 0x40 MLOAD PUSH32 0x8C379A000000000000000000000000000000000000000000000000000000000 DUP2 MSTORE PUSH1 0x4 ADD PUSH2 0x5C7 SWAP1 PUSH2 0x24BD JUMP JUMPDEST PUSH1 0x40 MLOAD DUP1 SWAP2 SUB SWAP1 REVERT JUMPDEST PUSH1 0x2 PUSH0 SWAP1 SLOAD SWAP1 PUSH2 0x100 EXP SWAP1 DIV PUSH20 0xFFFFFFFFFFFFFFFFFFFFFFFFFFFFFFFFFFFFFFFF AND PUSH20 0xFFFFFFFFFFFFFFFFFFFFFFFFFFFFFFFFFFFFFFFF AND PUSH4 0xD0E30DB0 CALLVALUE PUSH1 0x40 MLOAD DUP3 PUSH4 0xFFFFFFFF AND PUSH1 0xE0 SHL DUP2 MSTORE PUSH1 0x4 ADD PUSH0 PUSH1 0x40 MLOAD DUP1 DUP4 SUB DUP2 DUP6 DUP9 DUP1 EXTCODESIZE ISZERO DUP1 ISZERO PUSH2 0x637 JUMPI PUSH0 PUSH0 REVERT JUMPDEST POP GAS CALL ISZERO DUP1 ISZERO PUSH2 0x649 JUMPI RETURNDATASIZE PUSH0 PUSH0 RETURNDATACOPY RETURNDATASIZE PUSH0 REVERT JUMPDEST POP POP POP POP POP PUSH0 PUSH1 0x2 PUSH0 SWAP1 SLOAD SWAP1 PUSH2 0x100 EXP SWAP1 DIV PUSH20 0xFFFFFFFFFFFFFFFFFFFFFFFFFFFFFFFFFFFFFFFF AND PUSH20 0xFFFFFFFFFFFFFFFFFFFFFFFFFFFFFFFFFFFFFFFF AND PUSH0 PUSH0 SWAP1 SLOAD SWAP1 PUSH2 0x100 EXP SWAP1 DIV PUSH20 0xFFFFFFFFFFFFFFFFFFFFFFFFFFFFFFFFFFFFFFFF AND PUSH20 0xFFFFFFFFFFFFFFFFFFFFFFFFFFFFFFFFFFFFFFFF AND EQ SWAP1 POP PUSH0 DUP2 PUSH2 0x6CF JUMPI PUSH1 0x4 SLOAD PUSH2 0x6D3 JUMP JUMPDEST PUSH1 0x3 SLOAD JUMPDEST SWAP1 POP PUSH0 DUP3 PUSH2 0x6E3 JUMPI PUSH1 0x3 SLOAD PUSH2 0x6E7 JUMP JUMPDEST PUSH1 0x4 SLOAD JUMPDEST SWAP1 POP PUSH0 PUSH2 0x3E8 PUSH1 0x5 PUSH2 0x3E8 PUSH2 0x6FC SWAP2 SWAP1 PUSH2 0x2508 JUMP JUMPDEST CALLVALUE PUSH2 0x707 SWAP2 SWAP1 PUSH2 0x253B JUMP JUMPDEST PUSH2 0x711 SWAP2 SWAP1 PUSH2 0x25A9 JUMP JUMPDEST SWAP1 POP DUP1 DUP4 PUSH2 0x71F SWAP2 SWAP1 PUSH2 0x25D9 JUMP JUMPDEST DUP3 DUP3 PUSH2 0x72B SWAP2 SWAP1 PUSH2 0x253B JUMP JUMPDEST PUSH2 0x735 SWAP2 SWAP1 PUSH2 0x25A9 JUMP JUMPDEST SWAP5 POP DUP6 DUP6 LT ISZERO PUSH2 0x77A JUMPI PUSH1 0x40 MLOAD PUSH32 0x8C379A000000000000000000000000000000000000000000000000000000000 DUP2 MSTORE PUSH1 0x4 ADD PUSH2 0x771 SWAP1 PUSH2 0x2656 JUMP JUMPDEST PUSH1 0x40 MLOAD DUP1 SWAP2 SUB SWAP1 REVERT JUMPDEST DUP4 ISZERO PUSH2 0x860 JUMPI PUSH1 0x1 PUSH0 SWAP1 SLOAD SWAP1 PUSH2 0x100 EXP SWAP1 DIV PUSH20 0xFFFFFFFFFFFFFFFFFFFFFFFFFFFFFFFFFFFFFFFF AND PUSH20 0xFFFFFFFFFFFFFFFFFFFFFFFFFFFFFFFFFFFFFFFF AND PUSH4 0xA9059CBB CALLER DUP8 PUSH1 0x40 MLOAD DUP4 PUSH4 0xFFFFFFFF AND PUSH1 0xE0 SHL DUP2 MSTORE PUSH1 0x4 ADD PUSH2 0x7DC SWAP3 SWAP2 SWAP1 PUSH2 0x2683 JUMP JUMPDEST PUSH1 0x20 PUSH1 0x40 MLOAD DUP1 DUP4 SUB DUP2 PUSH0 DUP8 GAS CALL ISZERO DUP1 ISZERO PUSH2 0x7F8 JUMPI RETURNDATASIZE PUSH0 PUSH0 RETURNDATACOPY RETURNDATASIZE PUSH0 REVERT JUMPDEST POP POP POP POP PUSH1 0x40 MLOAD RETURNDATASIZE PUSH1 0x1F NOT PUSH1 0x1F DUP3 ADD AND DUP3 ADD DUP1 PUSH1 0x40 MSTORE POP DUP2 ADD SWAP1 PUSH2 0x81C SWAP2 SWAP1 PUSH2 0x26DF JUMP JUMPDEST PUSH2 0x85B JUMPI PUSH1 0x40 MLOAD PUSH32 0x8C379A000000000000000000000000000000000000000000000000000000000 DUP2 MSTORE PUSH1 0x4 ADD PUSH2 0x852 SWAP1 PUSH2 0x2754 JUMP JUMPDEST PUSH1 0x40 MLOAD DUP1 SWAP2 SUB SWAP1 REVERT JUMPDEST PUSH2 0x93B JUMP JUMPDEST PUSH0 PUSH0 SWAP1 SLOAD SWAP1 PUSH2 0x100 EXP SWAP1 DIV PUSH20 0xFFFFFFFFFFFFFFFFFFFFFFFFFFFFFFFFFFFFFFFF AND PUSH20 0xFFFFFFFFFFFFFFFFFFFFFFFFFFFFFFFFFFFFFFFF AND PUSH4 0xA9059CBB CALLER DUP8 PUSH1 0x40 MLOAD DUP4 PUSH4 0xFFFFFFFF AND PUSH1 0xE0 SHL DUP2 MSTORE PUSH1 0x4 ADD PUSH2 0x8BB SWAP3 SWAP2 SWAP1 PUSH2 0x2683 JUMP JUMPDEST PUSH1 0x20 PUSH1 0x40 MLOAD DUP1 DUP4 SUB DUP2 PUSH0 DUP8 GAS CALL ISZERO DUP1 ISZERO PUSH2 0x8D7 JUMPI RETURNDATASIZE PUSH0 PUSH0 RETURNDATACOPY RETURNDATASIZE PUSH0 REVERT JUMPDEST POP POP POP POP PUSH1 0x40 MLOAD RETURNDATASIZE PUSH1 0x1F NOT PUSH1 0x1F DUP3 ADD AND DUP3 ADD DUP1 PUSH1 0x40 MSTORE POP DUP2 ADD SWAP1 PUSH2 0x8FB SWAP2 SWAP1 PUSH2 0x26DF JUMP JUMPDEST PUSH2 0x93A JUMPI PUSH1 0x40 MLOAD PUSH32 0x8C379A000000000000000000000000000000000000000000000000000000000 DUP2 MSTORE PUSH1 0x4 ADD PUSH2 0x931 SWAP1 PUSH2 0x27BC JUMP JUMPDEST PUSH1 0x40 MLOAD DUP1 SWAP2 SUB SWAP1 REVERT JUMPDEST JUMPDEST PUSH2 0x943 PUSH2 0x1F32 JUMP JUMPDEST CALLER PUSH20 0xFFFFFFFFFFFFFFFFFFFFFFFFFFFFFFFFFFFFFFFF AND PUSH32 0x5380CF97D8F645D3C4896DA60C053458DCA03A3A31CEC642AC80E1DDF0D8D02A PUSH1 0x2 PUSH0 SWAP1 SLOAD SWAP1 PUSH2 0x100 EXP SWAP1 DIV PUSH20 0xFFFFFFFFFFFFFFFFFFFFFFFFFFFFFFFFFFFFFFFF AND CALLVALUE DUP8 PUSH2 0x9C9 JUMPI PUSH0 PUSH0 SWAP1 SLOAD SWAP1 PUSH2 0x100 EXP SWAP1 DIV PUSH20 0xFFFFFFFFFFFFFFFFFFFFFFFFFFFFFFFFFFFFFFFF AND PUSH2 0x9EC JUMP JUMPDEST PUSH1 0x1 PUSH0 SWAP1 SLOAD SWAP1 PUSH2 0x100 EXP SWAP1 DIV PUSH20 0xFFFFFFFFFFFFFFFFFFFFFFFFFFFFFFFFFFFFFFFF AND JUMPDEST DUP10 PUSH1 0x40 MLOAD PUSH2 0x9FD SWAP5 SWAP4 SWAP3 SWAP2 SWAP1 PUSH2 0x27DA JUMP JUMPDEST PUSH1 0x40 MLOAD DUP1 SWAP2 SUB SWAP1 LOG2 POP POP POP POP SWAP2 SWAP1 POP JUMP JUMPDEST PUSH1 0x1 PUSH0 SWAP1 SLOAD SWAP1 PUSH2 0x100 EXP SWAP1 DIV PUSH20 0xFFFFFFFFFFFFFFFFFFFFFFFFFFFFFFFFFFFFFFFF AND DUP2 JUMP JUMPDEST PUSH0 PUSH0 PUSH0 DUP4 GT PUSH2 0xA77 JUMPI PUSH1 0x40 MLOAD PUSH32 0x8C379A000000000000000000000000000000000000000000000000000000000 DUP2 MSTORE PUSH1 0x4 ADD PUSH2 0xA6E SWAP1 PUSH2 0x2867 JUMP JUMPDEST PUSH1 0x40 MLOAD DUP1 SWAP2 SUB SWAP1 REVERT JUMPDEST DUP3 PUSH1 0x6 PUSH0 CALLER PUSH20 0xFFFFFFFFFFFFFFFFFFFFFFFFFFFFFFFFFFFFFFFF AND PUSH20 0xFFFFFFFFFFFFFFFFFFFFFFFFFFFFFFFFFFFFFFFF AND DUP2 MSTORE PUSH1 0x20 ADD SWAP1 DUP2 MSTORE PUSH1 0x20 ADD PUSH0 KECCAK256 SLOAD LT ISZERO PUSH2 0xAF7 JUMPI PUSH1 0x40 MLOAD PUSH32 0x8C379A000000000000000000000000000000000000000000000000000000000 DUP2 MSTORE PUSH1 0x4 ADD PUSH2 0xAEE SWAP1 PUSH2 0x28CF JUMP JUMPDEST PUSH1 0x40 MLOAD DUP1 SWAP2 SUB SWAP1 REVERT JUMPDEST PUSH1 0x5 SLOAD PUSH1 0x3 SLOAD DUP5 PUSH2 0xB08 SWAP2 SWAP1 PUSH2 0x253B JUMP JUMPDEST PUSH2 0xB12 SWAP2 SWAP1 PUSH2 0x25A9 JUMP JUMPDEST SWAP2 POP PUSH1 0x5 SLOAD PUSH1 0x4 SLOAD DUP5 PUSH2 0xB25 SWAP2 SWAP1 PUSH2 0x253B JUMP JUMPDEST PUSH2 0xB2F SWAP2 SWAP1 PUSH2 0x25A9 JUMP JUMPDEST SWAP1 POP DUP3 PUSH1 0x6 PUSH0 CALLER PUSH20 0xFFFFFFFFFFFFFFFFFFFFFFFFFFFFFFFFFFFFFFFF AND PUSH20 0xFFFFFFFFFFFFFFFFFFFFFFFFFFFFFFFFFFFFFFFF AND DUP2 MSTORE PUSH1 0x20 ADD SWAP1 DUP2 MSTORE PUSH1 0x20 ADD PUSH0 KECCAK256 PUSH0 DUP3 DUP3 SLOAD PUSH2 0xB7D SWAP2 SWAP1 PUSH2 0x2508 JUMP JUMPDEST SWAP3 POP POP DUP2 SWAP1 SSTORE POP DUP3 PUSH1 0x5 PUSH0 DUP3 DUP3 SLOAD PUSH2 0xB95 SWAP2 SWAP1 PUSH2 0x2508 JUMP JUMPDEST SWAP3 POP POP DUP2 SWAP1 SSTORE POP PUSH0 PUSH0 SWAP1 SLOAD SWAP1 PUSH2 0x100 EXP SWAP1 DIV PUSH20 0xFFFFFFFFFFFFFFFFFFFFFFFFFFFFFFFFFFFFFFFF AND PUSH20 0xFFFFFFFFFFFFFFFFFFFFFFFFFFFFFFFFFFFFFFFF AND PUSH4 0xA9059CBB CALLER DUP5 PUSH1 0x40 MLOAD DUP4 PUSH4 0xFFFFFFFF AND PUSH1 0xE0 SHL DUP2 MSTORE PUSH1 0x4 ADD PUSH2 0xBF7 SWAP3 SWAP2 SWAP1 PUSH2 0x2683 JUMP JUMPDEST PUSH1 0x20 PUSH1 0x40 MLOAD DUP1 DUP4 SUB DUP2 PUSH0 DUP8 GAS CALL ISZERO DUP1 ISZERO PUSH2 0xC13 JUMPI RETURNDATASIZE PUSH0 PUSH0 RETURNDATACOPY RETURNDATASIZE PUSH0 REVERT JUMPDEST POP POP POP POP PUSH1 0x40 MLOAD RETURNDATASIZE PUSH1 0x1F NOT PUSH1 0x1F DUP3 ADD AND DUP3 ADD DUP1 PUSH1 0x40 MSTORE POP DUP2 ADD SWAP1 PUSH2 0xC37 SWAP2 SWAP1 PUSH2 0x26DF JUMP JUMPDEST PUSH2 0xC76 JUMPI PUSH1 0x40 MLOAD PUSH32 0x8C379A000000000000000000000000000000000000000000000000000000000 DUP2 MSTORE PUSH1 0x4 ADD PUSH2 0xC6D SWAP1 PUSH2 0x2937 JUMP JUMPDEST PUSH1 0x40 MLOAD DUP1 SWAP2 SUB SWAP1 REVERT JUMPDEST PUSH1 0x1 PUSH0 SWAP1 SLOAD SWAP1 PUSH2 0x100 EXP SWAP1 DIV PUSH20 0xFFFFFFFFFFFFFFFFFFFFFFFFFFFFFFFFFFFFFFFF AND PUSH20 0xFFFFFFFFFFFFFFFFFFFFFFFFFFFFFFFFFFFFFFFF AND PUSH4 0xA9059CBB CALLER DUP4 PUSH1 0x40 MLOAD DUP4 PUSH4 0xFFFFFFFF AND PUSH1 0xE0 SHL DUP2 MSTORE PUSH1 0x4 ADD PUSH2 0xCD2 SWAP3 SWAP2 SWAP1 PUSH2 0x2683 JUMP JUMPDEST PUSH1 0x20 PUSH1 0x40 MLOAD DUP1 DUP4 SUB DUP2 PUSH0 DUP8 GAS CALL ISZERO DUP1 ISZERO PUSH2 0xCEE JUMPI RETURNDATASIZE PUSH0 PUSH0 RETURNDATACOPY RETURNDATASIZE PUSH0 REVERT JUMPDEST POP POP POP POP PUSH1 0x40 MLOAD RETURNDATASIZE PUSH1 0x1F NOT PUSH1 0x1F DUP3 ADD AND DUP3 ADD DUP1 PUSH1 0x40 MSTORE POP DUP2 ADD SWAP1 PUSH2 0xD12 SWAP2 SWAP1 PUSH2 0x26DF JUMP JUMPDEST PUSH2 0xD51 JUMPI PUSH1 0x40 MLOAD PUSH32 0x8C379A000000000000000000000000000000000000000000000000000000000 DUP2 MSTORE PUSH1 0x4 ADD PUSH2 0xD48 SWAP1 PUSH2 0x299F JUMP JUMPDEST PUSH1 0x40 MLOAD DUP1 SWAP2 SUB SWAP1 REVERT JUMPDEST PUSH2 0xD59 PUSH2 0x1F32 JUMP JUMPDEST CALLER PUSH20 0xFFFFFFFFFFFFFFFFFFFFFFFFFFFFFFFFFFFFFFFF AND PUSH32 0x1DC8BB69DF2B8E91FBDCBFCF93D951B3F0000F085A95FE3F7946D6161439245D DUP4 DUP4 DUP7 PUSH1 0x40 MLOAD PUSH2 0xDA3 SWAP4 SWAP3 SWAP2 SWAP1 PUSH2 0x29BD JUMP JUMPDEST PUSH1 0x40 MLOAD DUP1 SWAP2 SUB SWAP1 LOG2 SWAP2 POP SWAP2 JUMP JUMPDEST PUSH0 PUSH0 DUP4 GT DUP1 ISZERO PUSH2 0xDBF JUMPI POP PUSH0 DUP3 GT JUMPDEST PUSH2 0xDFE JUMPI PUSH1 0x40 MLOAD PUSH32 0x8C379A000000000000000000000000000000000000000000000000000000000 DUP2 MSTORE PUSH1 0x4 ADD PUSH2 0xDF5 SWAP1 PUSH2 0x2A3C JUMP JUMPDEST PUSH1 0x40 MLOAD DUP1 SWAP2 SUB SWAP1 REVERT JUMPDEST PUSH0 PUSH0 SWAP1 SLOAD SWAP1 PUSH2 0x100 EXP SWAP1 DIV PUSH20 0xFFFFFFFFFFFFFFFFFFFFFFFFFFFFFFFFFFFFFFFF AND PUSH20 0xFFFFFFFFFFFFFFFFFFFFFFFFFFFFFFFFFFFFFFFF AND PUSH4 0x23B872DD CALLER ADDRESS DUP7 PUSH1 0x40 MLOAD DUP5 PUSH4 0xFFFFFFFF AND PUSH1 0xE0 SHL DUP2 MSTORE PUSH1 0x4 ADD PUSH2 0xE5B SWAP4 SWAP3 SWAP2 SWAP1 PUSH2 0x2A5A JUMP JUMPDEST PUSH1 0x20 PUSH1 0x40 MLOAD DUP1 DUP4 SUB DUP2 PUSH0 DUP8 GAS CALL ISZERO DUP1 ISZERO PUSH2 0xE77 JUMPI RETURNDATASIZE PUSH0 PUSH0 RETURNDATACOPY RETURNDATASIZE PUSH0 REVERT JUMPDEST POP POP POP POP PUSH1 0x40 MLOAD RETURNDATASIZE PUSH1 0x1F NOT PUSH1 0x1F DUP3 ADD AND DUP3 ADD DUP1 PUSH1 0x40 MSTORE POP DUP2 ADD SWAP1 PUSH2 0xE9B SWAP2 SWAP1 PUSH2 0x26DF JUMP JUMPDEST PUSH2 0xEDA JUMPI PUSH1 0x40 MLOAD PUSH32 0x8C379A000000000000000000000000000000000000000000000000000000000 DUP2 MSTORE PUSH1 0x4 ADD PUSH2 0xED1 SWAP1 PUSH2 0x2937 JUMP JUMPDEST PUSH1 0x40 MLOAD DUP1 SWAP2 SUB SWAP1 REVERT JUMPDEST PUSH1 0x1 PUSH0 SWAP1 SLOAD SWAP1 PUSH2 0x100 EXP SWAP1 DIV PUSH20 0xFFFFFFFFFFFFFFFFFFFFFFFFFFFFFFFFFFFFFFFF AND PUSH20 0xFFFFFFFFFFFFFFFFFFFFFFFFFFFFFFFFFFFFFFFF AND PUSH4 0x23B872DD CALLER ADDRESS DUP6 PUSH1 0x40 MLOAD DUP5 PUSH4 0xFFFFFFFF AND PUSH1 0xE0 SHL DUP2 MSTORE PUSH1 0x4 ADD PUSH2 0xF38 SWAP4 SWAP3 SWAP2 SWAP1 PUSH2 0x2A5A JUMP JUMPDEST PUSH1 0x20 PUSH1 0x40 MLOAD DUP1 DUP4 SUB DUP2 PUSH0 DUP8 GAS CALL ISZERO DUP1 ISZERO PUSH2 0xF54 JUMPI RETURNDATASIZE PUSH0 PUSH0 RETURNDATACOPY RETURNDATASIZE PUSH0 REVERT JUMPDEST POP POP POP POP PUSH1 0x40 MLOAD RETURNDATASIZE PUSH1 0x1F NOT PUSH1 0x1F DUP3 ADD AND DUP3 ADD DUP1 PUSH1 0x40 MSTORE POP DUP2 ADD SWAP1 PUSH2 0xF78 SWAP2 SWAP1 PUSH2 0x26DF JUMP JUMPDEST PUSH2 0xFB7 JUMPI PUSH1 0x40 MLOAD PUSH32 0x8C379A000000000000000000000000000000000000000000000000000000000 DUP2 MSTORE PUSH1 0x4 ADD PUSH2 0xFAE SWAP1 PUSH2 0x299F JUMP JUMPDEST PUSH1 0x40 MLOAD DUP1 SWAP2 SUB SWAP1 REVERT JUMPDEST PUSH0 PUSH1 0x5 SLOAD SUB PUSH2 0x1066 JUMPI PUSH2 0xFD4 DUP3 DUP5 PUSH2 0xFCF SWAP2 SWAP1 PUSH2 0x253B JUMP JUMPDEST PUSH2 0x2071 JUMP JUMPDEST SWAP1 POP PUSH0 DUP2 GT PUSH2 0x1018 JUMPI PUSH1 0x40 MLOAD PUSH32 0x8C379A000000000000000000000000000000000000000000000000000000000 DUP2 MSTORE PUSH1 0x4 ADD PUSH2 0x100F SWAP1 PUSH2 0x2AD9 JUMP JUMPDEST PUSH1 0x40 MLOAD DUP1 SWAP2 SUB SWAP1 REVERT JUMPDEST DUP1 PUSH1 0x5 DUP2 SWAP1 SSTORE POP DUP1 PUSH1 0x6 PUSH0 CALLER PUSH20 0xFFFFFFFFFFFFFFFFFFFFFFFFFFFFFFFFFFFFFFFF AND PUSH20 0xFFFFFFFFFFFFFFFFFFFFFFFFFFFFFFFFFFFFFFFF AND DUP2 MSTORE PUSH1 0x20 ADD SWAP1 DUP2 MSTORE PUSH1 0x20 ADD PUSH0 KECCAK256 DUP2 SWAP1 SSTORE POP PUSH2 0x1154 JUMP JUMPDEST PUSH2 0x10A4 PUSH1 0x3 SLOAD PUSH1 0x5 SLOAD DUP6 PUSH2 0x107A SWAP2 SWAP1 PUSH2 0x253B JUMP JUMPDEST PUSH2 0x1084 SWAP2 SWAP1 PUSH2 0x25A9 JUMP JUMPDEST PUSH1 0x4 SLOAD PUSH1 0x5 SLOAD DUP6 PUSH2 0x1095 SWAP2 SWAP1 PUSH2 0x253B JUMP JUMPDEST PUSH2 0x109F SWAP2 SWAP1 PUSH2 0x25A9 JUMP JUMPDEST PUSH2 0x20E8 JUMP JUMPDEST SWAP1 POP PUSH0 DUP2 GT PUSH2 0x10E8 JUMPI PUSH1 0x40 MLOAD PUSH32 0x8C379A000000000000000000000000000000000000000000000000000000000 DUP2 MSTORE PUSH1 0x4 ADD PUSH2 0x10DF SWAP1 PUSH2 0x2AD9 JUMP JUMPDEST PUSH1 0x40 MLOAD DUP1 SWAP2 SUB SWAP1 REVERT JUMPDEST DUP1 PUSH1 0x6 PUSH0 CALLER PUSH20 0xFFFFFFFFFFFFFFFFFFFFFFFFFFFFFFFFFFFFFFFF AND PUSH20 0xFFFFFFFFFFFFFFFFFFFFFFFFFFFFFFFFFFFFFFFF AND DUP2 MSTORE PUSH1 0x20 ADD SWAP1 DUP2 MSTORE PUSH1 0x20 ADD PUSH0 KECCAK256 PUSH0 DUP3 DUP3 SLOAD PUSH2 0x1134 SWAP2 SWAP1 PUSH2 0x25D9 JUMP JUMPDEST SWAP3 POP POP DUP2 SWAP1 SSTORE POP DUP1 PUSH1 0x5 PUSH0 DUP3 DUP3 SLOAD PUSH2 0x114C SWAP2 SWAP1 PUSH2 0x25D9 JUMP JUMPDEST SWAP3 POP POP DUP2 SWAP1 SSTORE POP JUMPDEST PUSH2 0x115C PUSH2 0x1F32 JUMP JUMPDEST CALLER PUSH20 0xFFFFFFFFFFFFFFFFFFFFFFFFFFFFFFFFFFFFFFFF AND PUSH32 0x64B83944E79C3CE8D4C297411DE637C3E102D064677AAC0C163976EBDCD6F50E DUP5 DUP5 DUP5 PUSH1 0x40 MLOAD PUSH2 0x11A6 SWAP4 SWAP3 SWAP2 SWAP1 PUSH2 0x29BD JUMP JUMPDEST PUSH1 0x40 MLOAD DUP1 SWAP2 SUB SWAP1 LOG2 SWAP3 SWAP2 POP POP JUMP JUMPDEST PUSH0 PUSH0 PUSH0 SWAP1 SLOAD SWAP1 PUSH2 0x100 EXP SWAP1 DIV PUSH20 0xFFFFFFFFFFFFFFFFFFFFFFFFFFFFFFFFFFFFFFFF AND PUSH20 0xFFFFFFFFFFFFFFFFFFFFFFFFFFFFFFFFFFFFFFFF AND DUP5 PUSH20 0xFFFFFFFFFFFFFFFFFFFFFFFFFFFFFFFFFFFFFFFF AND EQ DUP1 PUSH2 0x125B JUMPI POP PUSH1 0x1 PUSH0 SWAP1 SLOAD SWAP1 PUSH2 0x100 EXP SWAP1 DIV PUSH20 0xFFFFFFFFFFFFFFFFFFFFFFFFFFFFFFFFFFFFFFFF AND PUSH20 0xFFFFFFFFFFFFFFFFFFFFFFFFFFFFFFFFFFFFFFFF AND DUP5 PUSH20 0xFFFFFFFFFFFFFFFFFFFFFFFFFFFFFFFFFFFFFFFF AND EQ JUMPDEST PUSH2 0x129A JUMPI PUSH1 0x40 MLOAD PUSH32 0x8C379A000000000000000000000000000000000000000000000000000000000 DUP2 MSTORE PUSH1 0x4 ADD PUSH2 0x1291 SWAP1 PUSH2 0x2B41 JUMP JUMPDEST PUSH1 0x40 MLOAD DUP1 SWAP2 SUB SWAP1 REVERT JUMPDEST PUSH0 DUP4 GT PUSH2 0x12DC JUMPI PUSH1 0x40 MLOAD PUSH32 0x8C379A000000000000000000000000000000000000000000000000000000000 DUP2 MSTORE PUSH1 0x4 ADD PUSH2 0x12D3 SWAP1 PUSH2 0x2BA9 JUMP JUMPDEST PUSH1 0x40 MLOAD DUP1 SWAP2 SUB SWAP1 REVERT JUMPDEST PUSH0 DUP5 SWAP1 POP PUSH0 PUSH0 PUSH0 SWAP1 SLOAD SWAP1 PUSH2 0x100 EXP SWAP1 DIV PUSH20 0xFFFFFFFFFFFFFFFFFFFFFFFFFFFFFFFFFFFFFFFF AND PUSH20 0xFFFFFFFFFFFFFFFFFFFFFFFFFFFFFFFFFFFFFFFF AND DUP7 PUSH20 0xFFFFFFFFFFFFFFFFFFFFFFFFFFFFFFFFFFFFFFFF AND EQ PUSH2 0x135A JUMPI PUSH0 PUSH0 SWAP1 SLOAD SWAP1 PUSH2 0x100 EXP SWAP1 DIV PUSH20 0xFFFFFFFFFFFFFFFFFFFFFFFFFFFFFFFFFFFFFFFF AND PUSH2 0x137D JUMP JUMPDEST PUSH1 0x1 PUSH0 SWAP1 SLOAD SWAP1 PUSH2 0x100 EXP SWAP1 DIV PUSH20 0xFFFFFFFFFFFFFFFFFFFFFFFFFFFFFFFFFFFFFFFF AND JUMPDEST SWAP1 POP PUSH0 PUSH0 PUSH0 SWAP1 SLOAD SWAP1 PUSH2 0x100 EXP SWAP1 DIV PUSH20 0xFFFFFFFFFFFFFFFFFFFFFFFFFFFFFFFFFFFFFFFF AND PUSH20 0xFFFFFFFFFFFFFFFFFFFFFFFFFFFFFFFFFFFFFFFF AND DUP8 PUSH20 0xFFFFFFFFFFFFFFFFFFFFFFFFFFFFFFFFFFFFFFFF AND EQ PUSH2 0x13DB JUMPI PUSH1 0x4 SLOAD PUSH2 0x13DF JUMP JUMPDEST PUSH1 0x3 SLOAD JUMPDEST SWAP1 POP PUSH0 PUSH0 PUSH0 SWAP1 SLOAD SWAP1 PUSH2 0x100 EXP SWAP1 DIV PUSH20 0xFFFFFFFFFFFFFFFFFFFFFFFFFFFFFFFFFFFFFFFF AND PUSH20 0xFFFFFFFFFFFFFFFFFFFFFFFFFFFFFFFFFFFFFFFF AND DUP9 PUSH20 0xFFFFFFFFFFFFFFFFFFFFFFFFFFFFFFFFFFFFFFFF AND EQ PUSH2 0x143D JUMPI PUSH1 0x3 SLOAD PUSH2 0x1441 JUMP JUMPDEST PUSH1 0x4 SLOAD JUMPDEST SWAP1 POP DUP4 PUSH20 0xFFFFFFFFFFFFFFFFFFFFFFFFFFFFFFFFFFFFFFFF AND PUSH4 0x23B872DD CALLER ADDRESS DUP11 PUSH1 0x40 MLOAD DUP5 PUSH4 0xFFFFFFFF AND PUSH1 0xE0 SHL DUP2 MSTORE PUSH1 0x4 ADD PUSH2 0x1480 SWAP4 SWAP3 SWAP2 SWAP1 PUSH2 0x2A5A JUMP JUMPDEST PUSH1 0x20 PUSH1 0x40 MLOAD DUP1 DUP4 SUB DUP2 PUSH0 DUP8 GAS CALL ISZERO DUP1 ISZERO PUSH2 0x149C JUMPI RETURNDATASIZE PUSH0 PUSH0 RETURNDATACOPY RETURNDATASIZE PUSH0 REVERT JUMPDEST POP POP POP POP PUSH1 0x40 MLOAD RETURNDATASIZE PUSH1 0x1F NOT PUSH1 0x1F DUP3 ADD AND DUP3 ADD DUP1 PUSH1 0x40 MSTORE POP DUP2 ADD SWAP1 PUSH2 0x14C0 SWAP2 SWAP1 PUSH2 0x26DF JUMP JUMPDEST PUSH2 0x14FF JUMPI PUSH1 0x40 MLOAD PUSH32 0x8C379A000000000000000000000000000000000000000000000000000000000 DUP2 MSTORE PUSH1 0x4 ADD PUSH2 0x14F6 SWAP1 PUSH2 0x2C11 JUMP JUMPDEST PUSH1 0x40 MLOAD DUP1 SWAP2 SUB SWAP1 REVERT JUMPDEST PUSH0 PUSH2 0x3E8 PUSH1 0x5 PUSH2 0x3E8 PUSH2 0x1512 SWAP2 SWAP1 PUSH2 0x2508 JUMP JUMPDEST DUP10 PUSH2 0x151D SWAP2 SWAP1 PUSH2 0x253B JUMP JUMPDEST PUSH2 0x1527 SWAP2 SWAP1 PUSH2 0x25A9 JUMP JUMPDEST SWAP1 POP DUP1 DUP4 PUSH2 0x1535 SWAP2 SWAP1 PUSH2 0x25D9 JUMP JUMPDEST DUP3 DUP3 PUSH2 0x1541 SWAP2 SWAP1 PUSH2 0x253B JUMP JUMPDEST PUSH2 0x154B SWAP2 SWAP1 PUSH2 0x25A9 JUMP JUMPDEST SWAP6 POP DUP7 DUP7 LT ISZERO PUSH2 0x1590 JUMPI PUSH1 0x40 MLOAD PUSH32 0x8C379A000000000000000000000000000000000000000000000000000000000 DUP2 MSTORE PUSH1 0x4 ADD PUSH2 0x1587 SWAP1 PUSH2 0x2C79 JUMP JUMPDEST PUSH1 0x40 MLOAD DUP1 SWAP2 SUB SWAP1 REVERT JUMPDEST DUP4 PUSH20 0xFFFFFFFFFFFFFFFFFFFFFFFFFFFFFFFFFFFFFFFF AND PUSH4 0xA9059CBB CALLER DUP9 PUSH1 0x40 MLOAD DUP4 PUSH4 0xFFFFFFFF AND PUSH1 0xE0 SHL DUP2 MSTORE PUSH1 0x4 ADD PUSH2 0x15CB SWAP3 SWAP2 SWAP1 PUSH2 0x2683 JUMP JUMPDEST PUSH1 0x20 PUSH1 0x40 MLOAD DUP1 DUP4 SUB DUP2 PUSH0 DUP8 GAS CALL ISZERO DUP1 ISZERO PUSH2 0x15E7 JUMPI RETURNDATASIZE PUSH0 PUSH0 RETURNDATACOPY RETURNDATASIZE PUSH0 REVERT JUMPDEST POP POP POP POP PUSH1 0x40 MLOAD RETURNDATASIZE PUSH1 0x1F NOT PUSH1 0x1F DUP3 ADD AND DUP3 ADD DUP1 PUSH1 0x40 MSTORE POP DUP2 ADD SWAP1 PUSH2 0x160B SWAP2 SWAP1 PUSH2 0x26DF JUMP JUMPDEST PUSH2 0x164A JUMPI PUSH1 0x40 MLOAD PUSH32 0x8C379A000000000000000000000000000000000000000000000000000000000 DUP2 MSTORE PUSH1 0x4 ADD PUSH2 0x1641 SWAP1 PUSH2 0x2CE1 JUMP JUMPDEST PUSH1 0x40 MLOAD DUP1 SWAP2 SUB SWAP1 REVERT JUMPDEST PUSH2 0x1652 PUSH2 0x1F32 JUMP JUMPDEST CALLER PUSH20 0xFFFFFFFFFFFFFFFFFFFFFFFFFFFFFFFFFFFFFFFF AND PUSH32 0x5380CF97D8F645D3C4896DA60C053458DCA03A3A31CEC642AC80E1DDF0D8D02A DUP11 DUP11 DUP8 DUP11 PUSH1 0x40 MLOAD PUSH2 0x169E SWAP5 SWAP4 SWAP3 SWAP2 SWAP1 PUSH2 0x27DA JUMP JUMPDEST PUSH1 0x40 MLOAD DUP1 SWAP2 SUB SWAP1 LOG2 POP POP POP POP POP SWAP4 SWAP3 POP POP POP JUMP JUMPDEST PUSH1 0x2 PUSH0 SWAP1 SLOAD SWAP1 PUSH2 0x100 EXP SWAP1 DIV PUSH20 0xFFFFFFFFFFFFFFFFFFFFFFFFFFFFFFFFFFFFFFFF AND DUP2 JUMP JUMPDEST PUSH0 PUSH0 PUSH0 SWAP1 SLOAD SWAP1 PUSH2 0x100 EXP SWAP1 DIV PUSH20 0xFFFFFFFFFFFFFFFFFFFFFFFFFFFFFFFFFFFFFFFF AND PUSH20 0xFFFFFFFFFFFFFFFFFFFFFFFFFFFFFFFFFFFFFFFF AND DUP5 PUSH20 0xFFFFFFFFFFFFFFFFFFFFFFFFFFFFFFFFFFFFFFFF AND EQ DUP1 PUSH2 0x177E JUMPI POP PUSH1 0x1 PUSH0 SWAP1 SLOAD SWAP1 PUSH2 0x100 EXP SWAP1 DIV PUSH20 0xFFFFFFFFFFFFFFFFFFFFFFFFFFFFFFFFFFFFFFFF AND PUSH20 0xFFFFFFFFFFFFFFFFFFFFFFFFFFFFFFFFFFFFFFFF AND DUP5 PUSH20 0xFFFFFFFFFFFFFFFFFFFFFFFFFFFFFFFFFFFFFFFF AND EQ JUMPDEST PUSH2 0x17BD JUMPI PUSH1 0x40 MLOAD PUSH32 0x8C379A000000000000000000000000000000000000000000000000000000000 DUP2 MSTORE PUSH1 0x4 ADD PUSH2 0x17B4 SWAP1 PUSH2 0x2D49 JUMP JUMPDEST PUSH1 0x40 MLOAD DUP1 SWAP2 SUB SWAP1 REVERT JUMPDEST PUSH0 PUSH20 0xFFFFFFFFFFFFFFFFFFFFFFFFFFFFFFFFFFFFFFFF AND CALLER PUSH20 0xFFFFFFFFFFFFFFFFFFFFFFFFFFFFFFFFFFFFFFFF AND SUB PUSH2 0x182B JUMPI PUSH1 0x40 MLOAD PUSH32 0x8C379A000000000000000000000000000000000000000000000000000000000 DUP2 MSTORE PUSH1 0x4 ADD PUSH2 0x1822 SWAP1 PUSH2 0x2DB1 JUMP JUMPDEST PUSH1 0x40 MLOAD DUP1 SWAP2 SUB SWAP1 REVERT JUMPDEST PUSH0 DUP4 GT PUSH2 0x186D JUMPI PUSH1 0x40 MLOAD PUSH32 0x8C379A000000000000000000000000000000000000000000000000000000000 DUP2 MSTORE PUSH1 0x4 ADD PUSH2 0x1864 SWAP1 PUSH2 0x2BA9 JUMP JUMPDEST PUSH1 0x40 MLOAD DUP1 SWAP2 SUB SWAP1 REVERT JUMPDEST PUSH0 PUSH1 0x2 PUSH0 SWAP1 SLOAD SWAP1 PUSH2 0x100 EXP SWAP1 DIV PUSH20 0xFFFFFFFFFFFFFFFFFFFFFFFFFFFFFFFFFFFFFFFF AND PUSH20 0xFFFFFFFFFFFFFFFFFFFFFFFFFFFFFFFFFFFFFFFF AND PUSH0 PUSH0 SWAP1 SLOAD SWAP1 PUSH2 0x100 EXP SWAP1 DIV PUSH20 0xFFFFFFFFFFFFFFFFFFFFFFFFFFFFFFFFFFFFFFFF AND PUSH20 0xFFFFFFFFFFFFFFFFFFFFFFFFFFFFFFFFFFFFFFFF AND EQ SWAP1 POP DUP5 PUSH20 0xFFFFFFFFFFFFFFFFFFFFFFFFFFFFFFFFFFFFFFFF AND PUSH0 PUSH0 SWAP1 SLOAD SWAP1 PUSH2 0x100 EXP SWAP1 DIV PUSH20 0xFFFFFFFFFFFFFFFFFFFFFFFFFFFFFFFFFFFFFFFF AND PUSH20 0xFFFFFFFFFFFFFFFFFFFFFFFFFFFFFFFFFFFFFFFF AND EQ DUP1 PUSH2 0x1986 JUMPI POP DUP5 PUSH20 0xFFFFFFFFFFFFFFFFFFFFFFFFFFFFFFFFFFFFFFFF AND PUSH1 0x1 PUSH0 SWAP1 SLOAD SWAP1 PUSH2 0x100 EXP SWAP1 DIV PUSH20 0xFFFFFFFFFFFFFFFFFFFFFFFFFFFFFFFFFFFFFFFF AND PUSH20 0xFFFFFFFFFFFFFFFFFFFFFFFFFFFFFFFFFFFFFFFF AND EQ JUMPDEST PUSH2 0x19C5 JUMPI PUSH1 0x40 MLOAD PUSH32 0x8C379A000000000000000000000000000000000000000000000000000000000 DUP2 MSTORE PUSH1 0x4 ADD PUSH2 0x19BC SWAP1 PUSH2 0x2E19 JUMP JUMPDEST PUSH1 0x40 MLOAD DUP1 SWAP2 SUB SWAP1 REVERT JUMPDEST PUSH1 0x2 PUSH0 SWAP1 SLOAD SWAP1 PUSH2 0x100 EXP SWAP1 DIV PUSH20 0xFFFFFFFFFFFFFFFFFFFFFFFFFFFFFFFFFFFFFFFF AND PUSH20 0xFFFFFFFFFFFFFFFFFFFFFFFFFFFFFFFFFFFFFFFF AND PUSH0 PUSH0 SWAP1 SLOAD SWAP1 PUSH2 0x100 EXP SWAP1 DIV PUSH20 0xFFFFFFFFFFFFFFFFFFFFFFFFFFFFFFFFFFFFFFFF AND PUSH20 0xFFFFFFFFFFFFFFFFFFFFFFFFFFFFFFFFFFFFFFFF AND EQ DUP1 PUSH2 0x1AAD JUMPI POP PUSH1 0x2 PUSH0 SWAP1 SLOAD SWAP1 PUSH2 0x100 EXP SWAP1 DIV PUSH20 0xFFFFFFFFFFFFFFFFFFFFFFFFFFFFFFFFFFFFFFFF AND PUSH20 0xFFFFFFFFFFFFFFFFFFFFFFFFFFFFFFFFFFFFFFFF AND PUSH1 0x1 PUSH0 SWAP1 SLOAD SWAP1 PUSH2 0x100 EXP SWAP1 DIV PUSH20 0xFFFFFFFFFFFFFFFFFFFFFFFFFFFFFFFFFFFFFFFF AND PUSH20 0xFFFFFFFFFFFFFFFFFFFFFFFFFFFFFFFFFFFFFFFF AND EQ JUMPDEST PUSH2 0x1AEC JUMPI PUSH1 0x40 MLOAD PUSH32 0x8C379A000000000000000000000000000000000000000000000000000000000 DUP2 MSTORE PUSH1 0x4 ADD PUSH2 0x1AE3 SWAP1 PUSH2 0x2455 JUMP JUMPDEST PUSH1 0x40 MLOAD DUP1 SWAP2 SUB SWAP1 REVERT JUMPDEST PUSH0 DUP6 SWAP1 POP PUSH0 DUP3 PUSH2 0x1B1C JUMPI PUSH0 PUSH0 SWAP1 SLOAD SWAP1 PUSH2 0x100 EXP SWAP1 DIV PUSH20 0xFFFFFFFFFFFFFFFFFFFFFFFFFFFFFFFFFFFFFFFF AND PUSH2 0x1B3F JUMP JUMPDEST PUSH1 0x1 PUSH0 SWAP1 SLOAD SWAP1 PUSH2 0x100 EXP SWAP1 DIV PUSH20 0xFFFFFFFFFFFFFFFFFFFFFFFFFFFFFFFFFFFFFFFF AND JUMPDEST SWAP1 POP PUSH0 PUSH0 PUSH0 SWAP1 SLOAD SWAP1 PUSH2 0x100 EXP SWAP1 DIV PUSH20 0xFFFFFFFFFFFFFFFFFFFFFFFFFFFFFFFFFFFFFFFF AND PUSH20 0xFFFFFFFFFFFFFFFFFFFFFFFFFFFFFFFFFFFFFFFF AND DUP9 PUSH20 0xFFFFFFFFFFFFFFFFFFFFFFFFFFFFFFFFFFFFFFFF AND EQ PUSH2 0x1B9D JUMPI PUSH1 0x4 SLOAD PUSH2 0x1BA1 JUMP JUMPDEST PUSH1 0x3 SLOAD JUMPDEST SWAP1 POP PUSH0 PUSH0 PUSH0 SWAP1 SLOAD SWAP1 PUSH2 0x100 EXP SWAP1 DIV PUSH20 0xFFFFFFFFFFFFFFFFFFFFFFFFFFFFFFFFFFFFFFFF AND PUSH20 0xFFFFFFFFFFFFFFFFFFFFFFFFFFFFFFFFFFFFFFFF AND DUP10 PUSH20 0xFFFFFFFFFFFFFFFFFFFFFFFFFFFFFFFFFFFFFFFF AND EQ PUSH2 0x1BFF JUMPI PUSH1 0x3 SLOAD PUSH2 0x1C03 JUMP JUMPDEST PUSH1 0x4 SLOAD JUMPDEST SWAP1 POP DUP4 PUSH20 0xFFFFFFFFFFFFFFFFFFFFFFFFFFFFFFFFFFFFFFFF AND PUSH4 0x23B872DD CALLER ADDRESS DUP12 PUSH1 0x40 MLOAD DUP5 PUSH4 0xFFFFFFFF AND PUSH1 0xE0 SHL DUP2 MSTORE PUSH1 0x4 ADD PUSH2 0x1C42 SWAP4 SWAP3 SWAP2 SWAP1 PUSH2 0x2A5A JUMP JUMPDEST PUSH1 0x20 PUSH1 0x40 MLOAD DUP1 DUP4 SUB DUP2 PUSH0 DUP8 GAS CALL ISZERO DUP1 ISZERO PUSH2 0x1C5E JUMPI RETURNDATASIZE PUSH0 PUSH0 RETURNDATACOPY RETURNDATASIZE PUSH0 REVERT JUMPDEST POP POP POP POP PUSH1 0x40 MLOAD RETURNDATASIZE PUSH1 0x1F NOT PUSH1 0x1F DUP3 ADD AND DUP3 ADD DUP1 PUSH1 0x40 MSTORE POP DUP2 ADD SWAP1 PUSH2 0x1C82 SWAP2 SWAP1 PUSH2 0x26DF JUMP JUMPDEST PUSH2 0x1CC1 JUMPI PUSH1 0x40 MLOAD PUSH32 0x8C379A000000000000000000000000000000000000000000000000000000000 DUP2 MSTORE PUSH1 0x4 ADD PUSH2 0x1CB8 SWAP1 PUSH2 0x2C11 JUMP JUMPDEST PUSH1 0x40 MLOAD DUP1 SWAP2 SUB SWAP1 REVERT JUMPDEST PUSH0 PUSH2 0x3E8 PUSH1 0x5 PUSH2 0x3E8 PUSH2 0x1CD4 SWAP2 SWAP1 PUSH2 0x2508 JUMP JUMPDEST DUP11 PUSH2 0x1CDF SWAP2 SWAP1 PUSH2 0x253B JUMP JUMPDEST PUSH2 0x1CE9 SWAP2 SWAP1 PUSH2 0x25A9 JUMP JUMPDEST SWAP1 POP DUP1 DUP4 PUSH2 0x1CF7 SWAP2 SWAP1 PUSH2 0x25D9 JUMP JUMPDEST DUP3 DUP3 PUSH2 0x1D03 SWAP2 SWAP1 PUSH2 0x253B JUMP JUMPDEST PUSH2 0x1D0D SWAP2 SWAP1 PUSH2 0x25A9 JUMP JUMPDEST SWAP7 POP DUP8 DUP8 LT ISZERO PUSH2 0x1D52 JUMPI PUSH1 0x40 MLOAD PUSH32 0x8C379A000000000000000000000000000000000000000000000000000000000 DUP2 MSTORE PUSH1 0x4 ADD PUSH2 0x1D49 SWAP1 PUSH2 0x2E81 JUMP JUMPDEST PUSH1 0x40 MLOAD DUP1 SWAP2 SUB SWAP1 REVERT JUMPDEST PUSH1 0x2 PUSH0 SWAP1 SLOAD SWAP1 PUSH2 0x100 EXP SWAP1 DIV PUSH20 0xFFFFFFFFFFFFFFFFFFFFFFFFFFFFFFFFFFFFFFFF AND PUSH20 0xFFFFFFFFFFFFFFFFFFFFFFFFFFFFFFFFFFFFFFFF AND PUSH4 0x2E1A7D4D DUP9 PUSH1 0x40 MLOAD DUP3 PUSH4 0xFFFFFFFF AND PUSH1 0xE0 SHL DUP2 MSTORE PUSH1 0x4 ADD PUSH2 0x1DAC SWAP2 SWAP1 PUSH2 0x2118 JUMP JUMPDEST PUSH0 PUSH1 0x40 MLOAD DUP1 DUP4 SUB DUP2 PUSH0 DUP8 DUP1 EXTCODESIZE ISZERO DUP1 ISZERO PUSH2 0x1DC3 JUMPI PUSH0 PUSH0 REVERT JUMPDEST POP GAS CALL ISZERO DUP1 ISZERO PUSH2 0x1DD5 JUMPI RETURNDATASIZE PUSH0 PUSH0 RETURNDATACOPY RETURNDATASIZE PUSH0 REVERT JUMPDEST POP POP POP POP PUSH0 CALLER PUSH20 0xFFFFFFFFFFFFFFFFFFFFFFFFFFFFFFFFFFFFFFFF AND DUP9 PUSH1 0x40 MLOAD PUSH2 0x1DFE SWAP1 PUSH2 0x2ECC JUMP JUMPDEST PUSH0 PUSH1 0x40 MLOAD DUP1 DUP4 SUB DUP2 DUP6 DUP8 GAS CALL SWAP3 POP POP POP RETURNDATASIZE DUP1 PUSH0 DUP2 EQ PUSH2 0x1E38 JUMPI PUSH1 0x40 MLOAD SWAP2 POP PUSH1 0x1F NOT PUSH1 0x3F RETURNDATASIZE ADD AND DUP3 ADD PUSH1 0x40 MSTORE RETURNDATASIZE DUP3 MSTORE RETURNDATASIZE PUSH0 PUSH1 0x20 DUP5 ADD RETURNDATACOPY PUSH2 0x1E3D JUMP JUMPDEST PUSH1 0x60 SWAP2 POP JUMPDEST POP POP SWAP1 POP DUP1 PUSH2 0x1E81 JUMPI PUSH1 0x40 MLOAD PUSH32 0x8C379A000000000000000000000000000000000000000000000000000000000 DUP2 MSTORE PUSH1 0x4 ADD PUSH2 0x1E78 SWAP1 PUSH2 0x2F2A JUMP JUMPDEST PUSH1 0x40 MLOAD DUP1 SWAP2 SUB SWAP1 REVERT JUMPDEST PUSH2 0x1E89 PUSH2 0x1F32 JUMP JUMPDEST CALLER PUSH20 0xFFFFFFFFFFFFFFFFFFFFFFFFFFFFFFFFFFFFFFFF AND PUSH32 0x5380CF97D8F645D3C4896DA60C053458DCA03A3A31CEC642AC80E1DDF0D8D02A DUP13 DUP13 PUSH1 0x2 PUSH0 SWAP1 SLOAD SWAP1 PUSH2 0x100 EXP SWAP1 DIV PUSH20 0xFFFFFFFFFFFFFFFFFFFFFFFFFFFFFFFFFFFFFFFF AND DUP13 PUSH1 0x40 MLOAD PUSH2 0x1EF6 SWAP5 SWAP4 SWAP3 SWAP2 SWAP1 PUSH2 0x27DA JUMP JUMPDEST PUSH1 0x40 MLOAD DUP1 SWAP2 SUB SWAP1 LOG2 POP POP POP POP POP POP POP SWAP4 SWAP3 POP POP POP JUMP JUMPDEST PUSH1 0x6 PUSH1 0x20 MSTORE DUP1 PUSH0 MSTORE PUSH1 0x40 PUSH0 KECCAK256 PUSH0 SWAP2 POP SWAP1 POP SLOAD DUP2 JUMP JUMPDEST PUSH2 0x3E8 DUP2 JUMP JUMPDEST PUSH1 0x3 SLOAD DUP2 JUMP JUMPDEST PUSH1 0x5 DUP2 JUMP JUMPDEST PUSH0 PUSH0 SWAP1 SLOAD SWAP1 PUSH2 0x100 EXP SWAP1 DIV PUSH20 0xFFFFFFFFFFFFFFFFFFFFFFFFFFFFFFFFFFFFFFFF AND PUSH20 0xFFFFFFFFFFFFFFFFFFFFFFFFFFFFFFFFFFFFFFFF AND PUSH4 0x70A08231 ADDRESS PUSH1 0x40 MLOAD DUP3 PUSH4 0xFFFFFFFF AND PUSH1 0xE0 SHL DUP2 MSTORE PUSH1 0x4 ADD PUSH2 0x1F8B SWAP2 SWAP1 PUSH2 0x2F48 JUMP JUMPDEST PUSH1 0x20 PUSH1 0x40 MLOAD DUP1 DUP4 SUB DUP2 DUP7 GAS STATICCALL ISZERO DUP1 ISZERO PUSH2 0x1FA6 JUMPI RETURNDATASIZE PUSH0 PUSH0 RETURNDATACOPY RETURNDATASIZE PUSH0 REVERT JUMPDEST POP POP POP POP PUSH1 0x40 MLOAD RETURNDATASIZE PUSH1 0x1F NOT PUSH1 0x1F DUP3 ADD AND DUP3 ADD DUP1 PUSH1 0x40 MSTORE POP DUP2 ADD SWAP1 PUSH2 0x1FCA SWAP2 SWAP1 PUSH2 0x2F75 JUMP JUMPDEST PUSH1 0x3 DUP2 SWAP1 SSTORE POP PUSH1 0x1 PUSH0 SWAP1 SLOAD SWAP1 PUSH2 0x100 EXP SWAP1 DIV PUSH20 0xFFFFFFFFFFFFFFFFFFFFFFFFFFFFFFFFFFFFFFFF AND PUSH20 0xFFFFFFFFFFFFFFFFFFFFFFFFFFFFFFFFFFFFFFFF AND PUSH4 0x70A08231 ADDRESS PUSH1 0x40 MLOAD DUP3 PUSH4 0xFFFFFFFF AND PUSH1 0xE0 SHL DUP2 MSTORE PUSH1 0x4 ADD PUSH2 0x202A SWAP2 SWAP1 PUSH2 0x2F48 JUMP JUMPDEST PUSH1 0x20 PUSH1 0x40 MLOAD DUP1 DUP4 SUB DUP2 DUP7 GAS STATICCALL ISZERO DUP1 ISZERO PUSH2 0x2045 JUMPI RETURNDATASIZE PUSH0 PUSH0 RETURNDATACOPY RETURNDATASIZE PUSH0 REVERT JUMPDEST POP POP POP POP PUSH1 0x40 MLOAD RETURNDATASIZE PUSH1 0x1F NOT PUSH1 0x1F DUP3 ADD AND DUP3 ADD DUP1 PUSH1 0x40 MSTORE POP DUP2 ADD SWAP1 PUSH2 0x2069 SWAP2 SWAP1 PUSH2 0x2F75 JUMP JUMPDEST PUSH1 0x4 DUP2 SWAP1 SSTORE POP JUMP JUMPDEST PUSH0 PUSH1 0x3 DUP3 GT ISZERO PUSH2 0x20D6 JUMPI DUP2 SWAP1 POP PUSH0 PUSH1 0x1 PUSH1 0x2 DUP5 PUSH2 0x208E SWAP2 SWAP1 PUSH2 0x25A9 JUMP JUMPDEST PUSH2 0x2098 SWAP2 SWAP1 PUSH2 0x25D9 JUMP JUMPDEST SWAP1 POP JUMPDEST DUP2 DUP2 LT ISZERO PUSH2 0x20D0 JUMPI DUP1 SWAP2 POP PUSH1 0x2 DUP2 DUP3 DUP6 PUSH2 0x20B5 SWAP2 SWAP1 PUSH2 0x25A9 JUMP JUMPDEST PUSH2 0x20BF SWAP2 SWAP1 PUSH2 0x25D9 JUMP JUMPDEST PUSH2 0x20C9 SWAP2 SWAP1 PUSH2 0x25A9 JUMP JUMPDEST SWAP1 POP PUSH2 0x209B JUMP JUMPDEST POP PUSH2 0x20E3 JUMP JUMPDEST PUSH0 DUP3 EQ PUSH2 0x20E2 JUMPI PUSH1 0x1 SWAP1 POP JUMPDEST JUMPDEST SWAP2 SWAP1 POP JUMP JUMPDEST PUSH0 DUP2 DUP4 LT PUSH2 0x20F6 JUMPI DUP2 PUSH2 0x20F8 JUMP JUMPDEST DUP3 JUMPDEST SWAP1 POP SWAP3 SWAP2 POP POP JUMP JUMPDEST PUSH0 DUP2 SWAP1 POP SWAP2 SWAP1 POP JUMP JUMPDEST PUSH2 0x2112 DUP2 PUSH2 0x2100 JUMP JUMPDEST DUP3 MSTORE POP POP JUMP JUMPDEST PUSH0 PUSH1 0x20 DUP3 ADD SWAP1 POP PUSH2 0x212B PUSH0 DUP4 ADD DUP5 PUSH2 0x2109 JUMP JUMPDEST SWAP3 SWAP2 POP POP JUMP JUMPDEST PUSH0 DUP3 DUP3 MSTORE PUSH1 0x20 DUP3 ADD SWAP1 POP SWAP3 SWAP2 POP POP JUMP JUMPDEST DUP3 DUP2 DUP4 CALLDATACOPY PUSH0 DUP4 DUP4 ADD MSTORE POP POP POP JUMP JUMPDEST PUSH0 PUSH1 0x1F NOT PUSH1 0x1F DUP4 ADD AND SWAP1 POP SWAP2 SWAP1 POP JUMP JUMPDEST PUSH0 PUSH2 0x216A DUP4 DUP6 PUSH2 0x2131 JUMP JUMPDEST SWAP4 POP PUSH2 0x2177 DUP4 DUP6 DUP5 PUSH2 0x2141 JUMP JUMPDEST PUSH2 0x2180 DUP4 PUSH2 0x214F JUMP JUMPDEST DUP5 ADD SWAP1 POP SWAP4 SWAP3 POP POP POP JUMP JUMPDEST PUSH0 PUSH1 0x40 DUP3 ADD SWAP1 POP PUSH2 0x219E PUSH0 DUP4 ADD DUP7 PUSH2 0x2109 JUMP JUMPDEST DUP2 DUP2 SUB PUSH1 0x20 DUP4 ADD MSTORE PUSH2 0x21B1 DUP2 DUP5 DUP7 PUSH2 0x215F JUMP JUMPDEST SWAP1 POP SWAP5 SWAP4 POP POP POP POP JUMP JUMPDEST PUSH0 PUSH20 0xFFFFFFFFFFFFFFFFFFFFFFFFFFFFFFFFFFFFFFFF DUP3 AND SWAP1 POP SWAP2 SWAP1 POP JUMP JUMPDEST PUSH0 DUP2 SWAP1 POP SWAP2 SWAP1 POP JUMP JUMPDEST PUSH0 PUSH2 0x21FD PUSH2 0x21F8 PUSH2 0x21F3 DUP5 PUSH2 0x21BB JUMP JUMPDEST PUSH2 0x21DA JUMP JUMPDEST PUSH2 0x21BB JUMP JUMPDEST SWAP1 POP SWAP2 SWAP1 POP JUMP JUMPDEST PUSH0 PUSH2 0x220E DUP3 PUSH2 0x21E3 JUMP JUMPDEST SWAP1 POP SWAP2 SWAP1 POP JUMP JUMPDEST PUSH0 PUSH2 0x221F DUP3 PUSH2 0x2204 JUMP JUMPDEST SWAP1 POP SWAP2 SWAP1 POP JUMP JUMPDEST PUSH2 0x222F DUP2 PUSH2 0x2215 JUMP JUMPDEST DUP3 MSTORE POP POP JUMP JUMPDEST PUSH0 PUSH1 0x20 DUP3 ADD SWAP1 POP PUSH2 0x2248 PUSH0 DUP4 ADD DUP5 PUSH2 0x2226 JUMP JUMPDEST SWAP3 SWAP2 POP POP JUMP JUMPDEST PUSH0 PUSH0 REVERT JUMPDEST PUSH2 0x225B DUP2 PUSH2 0x2100 JUMP JUMPDEST DUP2 EQ PUSH2 0x2265 JUMPI PUSH0 PUSH0 REVERT JUMPDEST POP JUMP JUMPDEST PUSH0 DUP2 CALLDATALOAD SWAP1 POP PUSH2 0x2276 DUP2 PUSH2 0x2252 JUMP JUMPDEST SWAP3 SWAP2 POP POP JUMP JUMPDEST PUSH0 PUSH1 0x20 DUP3 DUP5 SUB SLT ISZERO PUSH2 0x2291 JUMPI PUSH2 0x2290 PUSH2 0x224E JUMP JUMPDEST JUMPDEST PUSH0 PUSH2 0x229E DUP5 DUP3 DUP6 ADD PUSH2 0x2268 JUMP JUMPDEST SWAP2 POP POP SWAP3 SWAP2 POP POP JUMP JUMPDEST PUSH0 PUSH1 0x40 DUP3 ADD SWAP1 POP PUSH2 0x22BA PUSH0 DUP4 ADD DUP6 PUSH2 0x2109 JUMP JUMPDEST PUSH2 0x22C7 PUSH1 0x20 DUP4 ADD DUP5 PUSH2 0x2109 JUMP JUMPDEST SWAP4 SWAP3 POP POP POP JUMP JUMPDEST PUSH0 PUSH0 PUSH1 0x40 DUP4 DUP6 SUB SLT ISZERO PUSH2 0x22E4 JUMPI PUSH2 0x22E3 PUSH2 0x224E JUMP JUMPDEST JUMPDEST PUSH0 PUSH2 0x22F1 DUP6 DUP3 DUP7 ADD PUSH2 0x2268 JUMP JUMPDEST SWAP3 POP POP PUSH1 0x20 PUSH2 0x2302 DUP6 DUP3 DUP7 ADD PUSH2 0x2268 JUMP JUMPDEST SWAP2 POP POP SWAP3 POP SWAP3 SWAP1 POP JUMP JUMPDEST PUSH0 PUSH2 0x2316 DUP3 PUSH2 0x21BB JUMP JUMPDEST SWAP1 POP SWAP2 SWAP1 POP JUMP JUMPDEST PUSH2 0x2326 DUP2 PUSH2 0x230C JUMP JUMPDEST DUP2 EQ PUSH2 0x2330 JUMPI PUSH0 PUSH0 REVERT JUMPDEST POP JUMP JUMPDEST PUSH0 DUP2 CALLDATALOAD SWAP1 POP PUSH2 0x2341 DUP2 PUSH2 0x231D JUMP JUMPDEST SWAP3 SWAP2 POP POP JUMP JUMPDEST PUSH0 PUSH0 PUSH0 PUSH1 0x60 DUP5 DUP7 SUB SLT ISZERO PUSH2 0x235E JUMPI PUSH2 0x235D PUSH2 0x224E JUMP JUMPDEST JUMPDEST PUSH0 PUSH2 0x236B DUP7 DUP3 DUP8 ADD PUSH2 0x2333 JUMP JUMPDEST SWAP4 POP POP PUSH1 0x20 PUSH2 0x237C DUP7 DUP3 DUP8 ADD PUSH2 0x2268 JUMP JUMPDEST SWAP3 POP POP PUSH1 0x40 PUSH2 0x238D DUP7 DUP3 DUP8 ADD PUSH2 0x2268 JUMP JUMPDEST SWAP2 POP POP SWAP3 POP SWAP3 POP SWAP3 JUMP JUMPDEST PUSH0 PUSH2 0x23A1 DUP3 PUSH2 0x2204 JUMP JUMPDEST SWAP1 POP SWAP2 SWAP1 POP JUMP JUMPDEST PUSH2 0x23B1 DUP2 PUSH2 0x2397 JUMP JUMPDEST DUP3 MSTORE POP POP JUMP JUMPDEST PUSH0 PUSH1 0x20 DUP3 ADD SWAP1 POP PUSH2 0x23CA PUSH0 DUP4 ADD DUP5 PUSH2 0x23A8 JUMP JUMPDEST SWAP3 SWAP2 POP POP JUMP JUMPDEST PUSH0 PUSH1 0x20 DUP3 DUP5 SUB SLT ISZERO PUSH2 0x23E5 JUMPI PUSH2 0x23E4 PUSH2 0x224E JUMP JUMPDEST JUMPDEST PUSH0 PUSH2 0x23F2 DUP5 DUP3 DUP6 ADD PUSH2 0x2333 JUMP JUMPDEST SWAP2 POP POP SWAP3 SWAP2 POP POP JUMP JUMPDEST PUSH0 DUP3 DUP3 MSTORE PUSH1 0x20 DUP3 ADD SWAP1 POP SWAP3 SWAP2 POP POP JUMP JUMPDEST PUSH32 0x57455448206E6F7420696E207061697200000000000000000000000000000000 PUSH0 DUP3 ADD MSTORE POP JUMP JUMPDEST PUSH0 PUSH2 0x243F PUSH1 0x10 DUP4 PUSH2 0x23FB JUMP JUMPDEST SWAP2 POP PUSH2 0x244A DUP3 PUSH2 0x240B JUMP JUMPDEST PUSH1 0x20 DUP3 ADD SWAP1 POP SWAP2 SWAP1 POP JUMP JUMPDEST PUSH0 PUSH1 0x20 DUP3 ADD SWAP1 POP DUP2 DUP2 SUB PUSH0 DUP4 ADD MSTORE PUSH2 0x246C DUP2 PUSH2 0x2433 JUMP JUMPDEST SWAP1 POP SWAP2 SWAP1 POP JUMP JUMPDEST PUSH32 0x4D7573742073656E642045544800000000000000000000000000000000000000 PUSH0 DUP3 ADD MSTORE POP JUMP JUMPDEST PUSH0 PUSH2 0x24A7 PUSH1 0xD DUP4 PUSH2 0x23FB JUMP JUMPDEST SWAP2 POP PUSH2 0x24B2 DUP3 PUSH2 0x2473 JUMP JUMPDEST PUSH1 0x20 DUP3 ADD SWAP1 POP SWAP2 SWAP1 POP JUMP JUMPDEST PUSH0 PUSH1 0x20 DUP3 ADD SWAP1 POP DUP2 DUP2 SUB PUSH0 DUP4 ADD MSTORE PUSH2 0x24D4 DUP2 PUSH2 0x249B JUMP JUMPDEST SWAP1 POP SWAP2 SWAP1 POP JUMP JUMPDEST PUSH32 0x4E487B7100000000000000000000000000000000000000000000000000000000 PUSH0 MSTORE PUSH1 0x11 PUSH1 0x4 MSTORE PUSH1 0x24 PUSH0 REVERT JUMPDEST PUSH0 PUSH2 0x2512 DUP3 PUSH2 0x2100 JUMP JUMPDEST SWAP2 POP PUSH2 0x251D DUP4 PUSH2 0x2100 JUMP JUMPDEST SWAP3 POP DUP3 DUP3 SUB SWAP1 POP DUP2 DUP2 GT ISZERO PUSH2 0x2535 JUMPI PUSH2 0x2534 PUSH2 0x24DB JUMP JUMPDEST JUMPDEST SWAP3 SWAP2 POP POP JUMP JUMPDEST PUSH0 PUSH2 0x2545 DUP3 PUSH2 0x2100 JUMP JUMPDEST SWAP2 POP PUSH2 0x2550 DUP4 PUSH2 0x2100 JUMP JUMPDEST SWAP3 POP DUP3 DUP3 MUL PUSH2 0x255E DUP2 PUSH2 0x2100 JUMP JUMPDEST SWAP2 POP DUP3 DUP3 DIV DUP5 EQ DUP4 ISZERO OR PUSH2 0x2575 JUMPI PUSH2 0x2574 PUSH2 0x24DB JUMP JUMPDEST JUMPDEST POP SWAP3 SWAP2 POP POP JUMP JUMPDEST PUSH32 0x4E487B7100000000000000000000000000000000000000000000000000000000 PUSH0 MSTORE PUSH1 0x12 PUSH1 0x4 MSTORE PUSH1 0x24 PUSH0 REVERT JUMPDEST PUSH0 PUSH2 0x25B3 DUP3 PUSH2 0x2100 JUMP JUMPDEST SWAP2 POP PUSH2 0x25BE DUP4 PUSH2 0x2100 JUMP JUMPDEST SWAP3 POP DUP3 PUSH2 0x25CE JUMPI PUSH2 0x25CD PUSH2 0x257C JUMP JUMPDEST JUMPDEST DUP3 DUP3 DIV SWAP1 POP SWAP3 SWAP2 POP POP JUMP JUMPDEST PUSH0 PUSH2 0x25E3 DUP3 PUSH2 0x2100 JUMP JUMPDEST SWAP2 POP PUSH2 0x25EE DUP4 PUSH2 0x2100 JUMP JUMPDEST SWAP3 POP DUP3 DUP3 ADD SWAP1 POP DUP1 DUP3 GT ISZERO PUSH2 0x2606 JUMPI PUSH2 0x2605 PUSH2 0x24DB JUMP JUMPDEST JUMPDEST SWAP3 SWAP2 POP POP JUMP JUMPDEST PUSH32 0x496E73756666696369656E74206F757470757400000000000000000000000000 PUSH0 DUP3 ADD MSTORE POP JUMP JUMPDEST PUSH0 PUSH2 0x2640 PUSH1 0x13 DUP4 PUSH2 0x23FB JUMP JUMPDEST SWAP2 POP PUSH2 0x264B DUP3 PUSH2 0x260C JUMP JUMPDEST PUSH1 0x20 DUP3 ADD SWAP1 POP SWAP2 SWAP1 POP JUMP JUMPDEST PUSH0 PUSH1 0x20 DUP3 ADD SWAP1 POP DUP2 DUP2 SUB PUSH0 DUP4 ADD MSTORE PUSH2 0x266D DUP2 PUSH2 0x2634 JUMP JUMPDEST SWAP1 POP SWAP2 SWAP1 POP JUMP JUMPDEST PUSH2 0x267D DUP2 PUSH2 0x230C JUMP JUMPDEST DUP3 MSTORE POP POP JUMP JUMPDEST PUSH0 PUSH1 0x40 DUP3 ADD SWAP1 POP PUSH2 0x2696 PUSH0 DUP4 ADD DUP6 PUSH2 0x2674 JUMP JUMPDEST PUSH2 0x26A3 PUSH1 0x20 DUP4 ADD DUP5 PUSH2 0x2109 JUMP JUMPDEST SWAP4 SWAP3 POP POP POP JUMP JUMPDEST PUSH0 DUP2 ISZERO ISZERO SWAP1 POP SWAP2 SWAP1 POP JUMP JUMPDEST PUSH2 0x26BE DUP2 PUSH2 0x26AA JUMP JUMPDEST DUP2 EQ PUSH2 0x26C8 JUMPI PUSH0 PUSH0 REVERT JUMPDEST POP JUMP JUMPDEST PUSH0 DUP2 MLOAD SWAP1 POP PUSH2 0x26D9 DUP2 PUSH2 0x26B5 JUMP JUMPDEST SWAP3 SWAP2 POP POP JUMP JUMPDEST PUSH0 PUSH1 0x20 DUP3 DUP5 SUB SLT ISZERO PUSH2 0x26F4 JUMPI PUSH2 0x26F3 PUSH2 0x224E JUMP JUMPDEST JUMPDEST PUSH0 PUSH2 0x2701 DUP5 DUP3 DUP6 ADD PUSH2 0x26CB JUMP JUMPDEST SWAP2 POP POP SWAP3 SWAP2 POP POP JUMP JUMPDEST PUSH32 0x5472616E7366657220746F6B656E42206661696C656400000000000000000000 PUSH0 DUP3 ADD MSTORE POP JUMP JUMPDEST PUSH0 PUSH2 0x273E PUSH1 0x16 DUP4 PUSH2 0x23FB JUMP JUMPDEST SWAP2 POP PUSH2 0x2749 DUP3 PUSH2 0x270A JUMP JUMPDEST PUSH1 0x20 DUP3 ADD SWAP1 POP SWAP2 SWAP1 POP JUMP JUMPDEST PUSH0 PUSH1 0x20 DUP3 ADD SWAP1 POP DUP2 DUP2 SUB PUSH0 DUP4 ADD MSTORE PUSH2 0x276B DUP2 PUSH2 0x2732 JUMP JUMPDEST SWAP1 POP SWAP2 SWAP1 POP JUMP JUMPDEST PUSH32 0x5472616E7366657220746F6B656E41206661696C656400000000000000000000 PUSH0 DUP3 ADD MSTORE POP JUMP JUMPDEST PUSH0 PUSH2 0x27A6 PUSH1 0x16 DUP4 PUSH2 0x23FB JUMP JUMPDEST SWAP2 POP PUSH2 0x27B1 DUP3 PUSH2 0x2772 JUMP JUMPDEST PUSH1 0x20 DUP3 ADD SWAP1 POP SWAP2 SWAP1 POP JUMP JUMPDEST PUSH0 PUSH1 0x20 DUP3 ADD SWAP1 POP DUP2 DUP2 SUB PUSH0 DUP4 ADD MSTORE PUSH2 0x27D3 DUP2 PUSH2 0x279A JUMP JUMPDEST SWAP1 POP SWAP2 SWAP1 POP JUMP JUMPDEST PUSH0 PUSH1 0x80 DUP3 ADD SWAP1 POP PUSH2 0x27ED PUSH0 DUP4 ADD DUP8 PUSH2 0x2674 JUMP JUMPDEST PUSH2 0x27FA PUSH1 0x20 DUP4 ADD DUP7 PUSH2 0x2109 JUMP JUMPDEST PUSH2 0x2807 PUSH1 0x40 DUP4 ADD DUP6 PUSH2 0x2674 JUMP JUMPDEST PUSH2 0x2814 PUSH1 0x60 DUP4 ADD DUP5 PUSH2 0x2109 JUMP JUMPDEST SWAP6 SWAP5 POP POP POP POP POP JUMP JUMPDEST PUSH32 0x4C6971756964697479206D757374206265203E20300000000000000000000000 PUSH0 DUP3 ADD MSTORE POP JUMP JUMPDEST PUSH0 PUSH2 0x2851 PUSH1 0x15 DUP4 PUSH2 0x23FB JUMP JUMPDEST SWAP2 POP PUSH2 0x285C DUP3 PUSH2 0x281D JUMP JUMPDEST PUSH1 0x20 DUP3 ADD SWAP1 POP SWAP2 SWAP1 POP JUMP JUMPDEST PUSH0 PUSH1 0x20 DUP3 ADD SWAP1 POP DUP2 DUP2 SUB PUSH0 DUP4 ADD MSTORE PUSH2 0x287E DUP2 PUSH2 0x2845 JUMP JUMPDEST SWAP1 POP SWAP2 SWAP1 POP JUMP JUMPDEST PUSH32 0x4E6F7420656E6F756768206C6971756964697479000000000000000000000000 PUSH0 DUP3 ADD MSTORE POP JUMP JUMPDEST PUSH0 PUSH2 0x28B9 PUSH1 0x14 DUP4 PUSH2 0x23FB JUMP JUMPDEST SWAP2 POP PUSH2 0x28C4 DUP3 PUSH2 0x2885 JUMP JUMPDEST PUSH1 0x20 DUP3 ADD SWAP1 POP SWAP2 SWAP1 POP JUMP JUMPDEST PUSH0 PUSH1 0x20 DUP3 ADD SWAP1 POP DUP2 DUP2 SUB PUSH0 DUP4 ADD MSTORE PUSH2 0x28E6 DUP2 PUSH2 0x28AD JUMP JUMPDEST SWAP1 POP SWAP2 SWAP1 POP JUMP JUMPDEST PUSH32 0x5472616E736665722041206661696C6564000000000000000000000000000000 PUSH0 DUP3 ADD MSTORE POP JUMP JUMPDEST PUSH0 PUSH2 0x2921 PUSH1 0x11 DUP4 PUSH2 0x23FB JUMP JUMPDEST SWAP2 POP PUSH2 0x292C DUP3 PUSH2 0x28ED JUMP JUMPDEST PUSH1 0x20 DUP3 ADD SWAP1 POP SWAP2 SWAP1 POP JUMP JUMPDEST PUSH0 PUSH1 0x20 DUP3 ADD SWAP1 POP DUP2 DUP2 SUB PUSH0 DUP4 ADD MSTORE PUSH2 0x294E DUP2 PUSH2 0x2915 JUMP JUMPDEST SWAP1 POP SWAP2 SWAP1 POP JUMP JUMPDEST PUSH32 0x5472616E736665722042206661696C6564000000000000000000000000000000 PUSH0 DUP3 ADD MSTORE POP JUMP JUMPDEST PUSH0 PUSH2 0x2989 PUSH1 0x11 DUP4 PUSH2 0x23FB JUMP JUMPDEST SWAP2 POP PUSH2 0x2994 DUP3 PUSH2 0x2955 JUMP JUMPDEST PUSH1 0x20 DUP3 ADD SWAP1 POP SWAP2 SWAP1 POP JUMP JUMPDEST PUSH0 PUSH1 0x20 DUP3 ADD SWAP1 POP DUP2 DUP2 SUB PUSH0 DUP4 ADD MSTORE PUSH2 0x29B6 DUP2 PUSH2 0x297D JUMP JUMPDEST SWAP1 POP SWAP2 SWAP1 POP JUMP JUMPDEST PUSH0 PUSH1 0x60 DUP3 ADD SWAP1 POP PUSH2 0x29D0 PUSH0 DUP4 ADD DUP7 PUSH2 0x2109 JUMP JUMPDEST PUSH2 0x29DD PUSH1 0x20 DUP4 ADD DUP6 PUSH2 0x2109 JUMP JUMPDEST PUSH2 0x29EA PUSH1 0x40 DUP4 ADD DUP5 PUSH2 0x2109 JUMP JUMPDEST SWAP5 SWAP4 POP POP POP POP JUMP JUMPDEST PUSH32 0x416D6F756E7473206D757374206265203E203000000000000000000000000000 PUSH0 DUP3 ADD MSTORE POP JUMP JUMPDEST PUSH0 PUSH2 0x2A26 PUSH1 0x13 DUP4 PUSH2 0x23FB JUMP JUMPDEST SWAP2 POP PUSH2 0x2A31 DUP3 PUSH2 0x29F2 JUMP JUMPDEST PUSH1 0x20 DUP3 ADD SWAP1 POP SWAP2 SWAP1 POP JUMP JUMPDEST PUSH0 PUSH1 0x20 DUP3 ADD SWAP1 POP DUP2 DUP2 SUB PUSH0 DUP4 ADD MSTORE PUSH2 0x2A53 DUP2 PUSH2 0x2A1A JUMP JUMPDEST SWAP1 POP SWAP2 SWAP1 POP JUMP JUMPDEST PUSH0 PUSH1 0x60 DUP3 ADD SWAP1 POP PUSH2 0x2A6D PUSH0 DUP4 ADD DUP7 PUSH2 0x2674 JUMP JUMPDEST PUSH2 0x2A7A PUSH1 0x20 DUP4 ADD DUP6 PUSH2 0x2674 JUMP JUMPDEST PUSH2 0x2A87 PUSH1 0x40 DUP4 ADD DUP5 PUSH2 0x2109 JUMP JUMPDEST SWAP5 SWAP4 POP POP POP POP JUMP JUMPDEST PUSH32 0x496E73756666696369656E74206C6971756964697479206D696E746564000000 PUSH0 DUP3 ADD MSTORE POP JUMP JUMPDEST PUSH0 PUSH2 0x2AC3 PUSH1 0x1D DUP4 PUSH2 0x23FB JUMP JUMPDEST SWAP2 POP PUSH2 0x2ACE DUP3 PUSH2 0x2A8F JUMP JUMPDEST PUSH1 0x20 DUP3 ADD SWAP1 POP SWAP2 SWAP1 POP JUMP JUMPDEST PUSH0 PUSH1 0x20 DUP3 ADD SWAP1 POP DUP2 DUP2 SUB PUSH0 DUP4 ADD MSTORE PUSH2 0x2AF0 DUP2 PUSH2 0x2AB7 JUMP JUMPDEST SWAP1 POP SWAP2 SWAP1 POP JUMP JUMPDEST PUSH32 0x496E76616C696420696E70757420746F6B656E00000000000000000000000000 PUSH0 DUP3 ADD MSTORE POP JUMP JUMPDEST PUSH0 PUSH2 0x2B2B PUSH1 0x13 DUP4 PUSH2 0x23FB JUMP JUMPDEST SWAP2 POP PUSH2 0x2B36 DUP3 PUSH2 0x2AF7 JUMP JUMPDEST PUSH1 0x20 DUP3 ADD SWAP1 POP SWAP2 SWAP1 POP JUMP JUMPDEST PUSH0 PUSH1 0x20 DUP3 ADD SWAP1 POP DUP2 DUP2 SUB PUSH0 DUP4 ADD MSTORE PUSH2 0x2B58 DUP2 PUSH2 0x2B1F JUMP JUMPDEST SWAP1 POP SWAP2 SWAP1 POP JUMP JUMPDEST PUSH32 0x416D6F756E74496E203E20300000000000000000000000000000000000000000 PUSH0 DUP3 ADD MSTORE POP JUMP JUMPDEST PUSH0 PUSH2 0x2B93 PUSH1 0xC DUP4 PUSH2 0x23FB JUMP JUMPDEST SWAP2 POP PUSH2 0x2B9E DUP3 PUSH2 0x2B5F JUMP JUMPDEST PUSH1 0x20 DUP3 ADD SWAP1 POP SWAP2 SWAP1 POP JUMP JUMPDEST PUSH0 PUSH1 0x20 DUP3 ADD SWAP1 POP DUP2 DUP2 SUB PUSH0 DUP4 ADD MSTORE PUSH2 0x2BC0 DUP2 PUSH2 0x2B87 JUMP JUMPDEST SWAP1 POP SWAP2 SWAP1 POP JUMP JUMPDEST PUSH32 0x5472616E7366657220696E206661696C65640000000000000000000000000000 PUSH0 DUP3 ADD MSTORE POP JUMP JUMPDEST PUSH0 PUSH2 0x2BFB PUSH1 0x12 DUP4 PUSH2 0x23FB JUMP JUMPDEST SWAP2 POP PUSH2 0x2C06 DUP3 PUSH2 0x2BC7 JUMP JUMPDEST PUSH1 0x20 DUP3 ADD SWAP1 POP SWAP2 SWAP1 POP JUMP JUMPDEST PUSH0 PUSH1 0x20 DUP3 ADD SWAP1 POP DUP2 DUP2 SUB PUSH0 DUP4 ADD MSTORE PUSH2 0x2C28 DUP2 PUSH2 0x2BEF JUMP JUMPDEST SWAP1 POP SWAP2 SWAP1 POP JUMP JUMPDEST PUSH32 0x496E73756666696369656E74206F757470757420616D6F756E74000000000000 PUSH0 DUP3 ADD MSTORE POP JUMP JUMPDEST PUSH0 PUSH2 0x2C63 PUSH1 0x1A DUP4 PUSH2 0x23FB JUMP JUMPDEST SWAP2 POP PUSH2 0x2C6E DUP3 PUSH2 0x2C2F JUMP JUMPDEST PUSH1 0x20 DUP3 ADD SWAP1 POP SWAP2 SWAP1 POP JUMP JUMPDEST PUSH0 PUSH1 0x20 DUP3 ADD SWAP1 POP DUP2 DUP2 SUB PUSH0 DUP4 ADD MSTORE PUSH2 0x2C90 DUP2 PUSH2 0x2C57 JUMP JUMPDEST SWAP1 POP SWAP2 SWAP1 POP JUMP JUMPDEST PUSH32 0x5472616E73666572206F7574206661696C656400000000000000000000000000 PUSH0 DUP3 ADD MSTORE POP JUMP JUMPDEST PUSH0 PUSH2 0x2CCB PUSH1 0x13 DUP4 PUSH2 0x23FB JUMP JUMPDEST SWAP2 POP PUSH2 0x2CD6 DUP3 PUSH2 0x2C97 JUMP JUMPDEST PUSH1 0x20 DUP3 ADD SWAP1 POP SWAP2 SWAP1 POP JUMP JUMPDEST PUSH0 PUSH1 0x20 DUP3 ADD SWAP1 POP DUP2 DUP2 SUB PUSH0 DUP4 ADD MSTORE PUSH2 0x2CF8 DUP2 PUSH2 0x2CBF JUMP JUMPDEST SWAP1 POP SWAP2 SWAP1 POP JUMP JUMPDEST PUSH32 0x496E76616C696420746F6B656E00000000000000000000000000000000000000 PUSH0 DUP3 ADD MSTORE POP JUMP JUMPDEST PUSH0 PUSH2 0x2D33 PUSH1 0xD DUP4 PUSH2 0x23FB JUMP JUMPDEST SWAP2 POP PUSH2 0x2D3E DUP3 PUSH2 0x2CFF JUMP JUMPDEST PUSH1 0x20 DUP3 ADD SWAP1 POP SWAP2 SWAP1 POP JUMP JUMPDEST PUSH0 PUSH1 0x20 DUP3 ADD SWAP1 POP DUP2 DUP2 SUB PUSH0 DUP4 ADD MSTORE PUSH2 0x2D60 DUP2 PUSH2 0x2D27 JUMP JUMPDEST SWAP1 POP SWAP2 SWAP1 POP JUMP JUMPDEST PUSH32 0x496E76616C69642073656E646572000000000000000000000000000000000000 PUSH0 DUP3 ADD MSTORE POP JUMP JUMPDEST PUSH0 PUSH2 0x2D9B PUSH1 0xE DUP4 PUSH2 0x23FB JUMP JUMPDEST SWAP2 POP PUSH2 0x2DA6 DUP3 PUSH2 0x2D67 JUMP JUMPDEST PUSH1 0x20 DUP3 ADD SWAP1 POP SWAP2 SWAP1 POP JUMP JUMPDEST PUSH0 PUSH1 0x20 DUP3 ADD SWAP1 POP DUP2 DUP2 SUB PUSH0 DUP4 ADD MSTORE PUSH2 0x2DC8 DUP2 PUSH2 0x2D8F JUMP JUMPDEST SWAP1 POP SWAP2 SWAP1 POP JUMP JUMPDEST PUSH32 0x496E70757420746F6B656E206E6F7420696E2070616972000000000000000000 PUSH0 DUP3 ADD MSTORE POP JUMP JUMPDEST PUSH0 PUSH2 0x2E03 PUSH1 0x17 DUP4 PUSH2 0x23FB JUMP JUMPDEST SWAP2 POP PUSH2 0x2E0E DUP3 PUSH2 0x2DCF JUMP JUMPDEST PUSH1 0x20 DUP3 ADD SWAP1 POP SWAP2 SWAP1 POP JUMP JUMPDEST PUSH0 PUSH1 0x20 DUP3 ADD SWAP1 POP DUP2 DUP2 SUB PUSH0 DUP4 ADD MSTORE PUSH2 0x2E30 DUP2 PUSH2 0x2DF7 JUMP JUMPDEST SWAP1 POP SWAP2 SWAP1 POP JUMP JUMPDEST PUSH32 0x496E73756666696369656E7420455448206F7574000000000000000000000000 PUSH0 DUP3 ADD MSTORE POP JUMP JUMPDEST PUSH0 PUSH2 0x2E6B PUSH1 0x14 DUP4 PUSH2 0x23FB JUMP JUMPDEST SWAP2 POP PUSH2 0x2E76 DUP3 PUSH2 0x2E37 JUMP JUMPDEST PUSH1 0x20 DUP3 ADD SWAP1 POP SWAP2 SWAP1 POP JUMP JUMPDEST PUSH0 PUSH1 0x20 DUP3 ADD SWAP1 POP DUP2 DUP2 SUB PUSH0 DUP4 ADD MSTORE PUSH2 0x2E98 DUP2 PUSH2 0x2E5F JUMP JUMPDEST SWAP1 POP SWAP2 SWAP1 POP JUMP JUMPDEST PUSH0 DUP2 SWAP1 POP SWAP3 SWAP2 POP POP JUMP JUMPDEST POP JUMP JUMPDEST PUSH0 PUSH2 0x2EB7 PUSH0 DUP4 PUSH2 0x2E9F JUMP JUMPDEST SWAP2 POP PUSH2 0x2EC2 DUP3 PUSH2 0x2EA9 JUMP JUMPDEST PUSH0 DUP3 ADD SWAP1 POP SWAP2 SWAP1 POP JUMP JUMPDEST PUSH0 PUSH2 0x2ED6 DUP3 PUSH2 0x2EAC JUMP JUMPDEST SWAP2 POP DUP2 SWAP1 POP SWAP2 SWAP1 POP JUMP JUMPDEST PUSH32 0x455448207472616E73666572206661696C656400000000000000000000000000 PUSH0 DUP3 ADD MSTORE POP JUMP JUMPDEST PUSH0 PUSH2 0x2F14 PUSH1 0x13 DUP4 PUSH2 0x23FB JUMP JUMPDEST SWAP2 POP PUSH2 0x2F1F DUP3 PUSH2 0x2EE0 JUMP JUMPDEST PUSH1 0x20 DUP3 ADD SWAP1 POP SWAP2 SWAP1 POP JUMP JUMPDEST PUSH0 PUSH1 0x20 DUP3 ADD SWAP1 POP DUP2 DUP2 SUB PUSH0 DUP4 ADD MSTORE PUSH2 0x2F41 DUP2 PUSH2 0x2F08 JUMP JUMPDEST SWAP1 POP SWAP2 SWAP1 POP JUMP JUMPDEST PUSH0 PUSH1 0x20 DUP3 ADD SWAP1 POP PUSH2 0x2F5B PUSH0 DUP4 ADD DUP5 PUSH2 0x2674 JUMP JUMPDEST SWAP3 SWAP2 POP POP JUMP JUMPDEST PUSH0 DUP2 MLOAD SWAP1 POP PUSH2 0x2F6F DUP2 PUSH2 0x2252 JUMP JUMPDEST SWAP3 SWAP2 POP POP JUMP JUMPDEST PUSH0 PUSH1 0x20 DUP3 DUP5 SUB SLT ISZERO PUSH2 0x2F8A JUMPI PUSH2 0x2F89 PUSH2 0x224E JUMP JUMPDEST JUMPDEST PUSH0 PUSH2 0x2F97 DUP5 DUP3 DUP6 ADD PUSH2 0x2F61 JUMP JUMPDEST SWAP2 POP POP SWAP3 SWAP2 POP POP JUMP INVALID LOG2 PUSH5 0x6970667358 0x22 SLT KECCAK256 0xBE PUSH7 0x2028D00C31ABA SWAP5 EQ 0xF6 SWAP11 CODECOPY ORIGIN 0xE1 0xED JUMPI PUSH23 0xA951571EFAB67848988BB4DDD364736F6C634300081B00 CALLER "
				},
				"gasEstimates": {
					"creation": {
						"codeDepositCost": "2449200",
						"executionCost": "infinite",
						"totalCost": "infinite"
					},
					"external": {
						"": "infinite",
						"FEE_DENOMINATOR()": "369",
						"FEE_PERCENT()": "413",
						"WETH()": "infinite",
						"addLiquidity(uint256,uint256)": "infinite",
						"liquidity(address)": "2824",
						"removeLiquidity(uint256)": "infinite",
						"reserveA()": "2491",
						"reserveB()": "2493",
						"swap(address,uint256,uint256)": "infinite",
						"swapExactETHForToken(uint256)": "infinite",
						"swapExactTokenForETH(address,uint256,uint256)": "infinite",
						"tokenA()": "infinite",
						"tokenB()": "infinite",
						"totalLiquidity()": "2471"
					},
					"internal": {
						"_updateReserves()": "infinite",
						"min(uint256,uint256)": "63",
						"sqrt(uint256)": "infinite"
					}
				},
				"methodIdentifiers": {
					"FEE_DENOMINATOR()": "d73792a9",
					"FEE_PERCENT()": "eaf98d23",
					"WETH()": "ad5c4648",
					"addLiquidity(uint256,uint256)": "9cd441da",
					"liquidity(address)": "b8c876b1",
					"removeLiquidity(uint256)": "9c8f9f23",
					"reserveA()": "dc5fa6c5",
					"reserveB()": "19e36f3b",
					"swap(address,uint256,uint256)": "9f1d0f59",
					"swapExactETHForToken(uint256)": "483a9d3f",
					"swapExactTokenForETH(address,uint256,uint256)": "b0413694",
					"tokenA()": "0fc63d10",
					"tokenB()": "5f64b55b",
					"totalLiquidity()": "15770f92"
				}
			},
			"storageLayout": {
				"storage": [
					{
						"astId": 94,
						"contract": "DexContract.sol:SimpleDex",
						"label": "tokenA",
						"offset": 0,
						"slot": "0",
						"type": "t_contract(IERC20)77"
					},
					{
						"astId": 97,
						"contract": "DexContract.sol:SimpleDex",
						"label": "tokenB",
						"offset": 0,
						"slot": "1",
						"type": "t_contract(IERC20)77"
					},
					{
						"astId": 100,
						"contract": "DexContract.sol:SimpleDex",
						"label": "WETH",
						"offset": 0,
						"slot": "2",
						"type": "t_contract(IWETH)91"
					},
					{
						"astId": 102,
						"contract": "DexContract.sol:SimpleDex",
						"label": "reserveA",
						"offset": 0,
						"slot": "3",
						"type": "t_uint256"
					},
					{
						"astId": 104,
						"contract": "DexContract.sol:SimpleDex",
						"label": "reserveB",
						"offset": 0,
						"slot": "4",
						"type": "t_uint256"
					},
					{
						"astId": 106,
						"contract": "DexContract.sol:SimpleDex",
						"label": "totalLiquidity",
						"offset": 0,
						"slot": "5",
						"type": "t_uint256"
					},
					{
						"astId": 110,
						"contract": "DexContract.sol:SimpleDex",
						"label": "liquidity",
						"offset": 0,
						"slot": "6",
						"type": "t_mapping(t_address,t_uint256)"
					}
				],
				"types": {
					"t_address": {
						"encoding": "inplace",
						"label": "address",
						"numberOfBytes": "20"
					},
					"t_contract(IERC20)77": {
						"encoding": "inplace",
						"label": "contract IERC20",
						"numberOfBytes": "20"
					},
					"t_contract(IWETH)91": {
						"encoding": "inplace",
						"label": "contract IWETH",
						"numberOfBytes": "20"
					},
					"t_mapping(t_address,t_uint256)": {
						"encoding": "mapping",
						"key": "t_address",
						"label": "mapping(address => uint256)",
						"numberOfBytes": "32",
						"value": "t_uint256"
					},
					"t_uint256": {
						"encoding": "inplace",
						"label": "uint256",
						"numberOfBytes": "32"
					}
				}
			},
			"userdoc": {
				"kind": "user",
				"methods": {},
				"version": 1
			}
		}
	}
}